:020000040800F2
:10000000D08400207502000839170008591500082F
:10001000351700084D0800080D1800080000000002
:100020000000000000000000000000004117000870
:1000300051080008000000003D170008451700089F
:100040008F0200088F0200088F0200088F0200084C
:100050008F0200088F0200088F0200088F0200083C
:100060008F0200088F0200088F0200088F0200082C
:100070008F0200088F0200088F0200088F0200081C
:100080008F0200088F0200088F0200088F0200080C
:100090008F0200088F0200088F0200088F020008FC
:1000A0008F0200088F0200088F0200088F020008EC
:1000B0008F0200088F0200088F0200088F020008DC
:1000C0008F0200088F0200088F0200088F020008CC
:1000D0008F0200088F0200088F0200088F020008BC
:1000E000550800088F0200088F0200088F020008E0
:1000F0008F0200088F0200088F0200088F0200089C
:100100008F0200088F0200088F0200088F0200088B
:100110008F0200088F0200088F0200088F0200087B
:100120008F0200088F0200088F0200088F0200086B
:100130008F02000800000000000000008F0200088D
:100140008F0200088F0200088F0200088F0200084B
:100150008F0200088F0200088F0200088F0200083B
:100160008F0200088F0200088F0200088F0200082B
:100170008F0200088F0200088F02000800000000B4
:10018000000000008F0200080000000000000000D6
:100190008F02000800000000000000008F0200082D
:1001A0000000000000000000000000008F020008B6
:1001B0008F0200088F0200088F0200088F020008DB
:1001C0008F02000800F002F800F045F80AA090E85D
:1001D000000C82448344AAF10107DA4501D100F002
:1001E0003AF8AFF2090EBAE80F0013F0010F18BF8A
:1001F000FB1A43F001031847702E0000902E0000F8
:10020000103A24BF78C878C1FAD8520724BF30C842
:1002100030C144BF04680C60704700000023002414
:1002200000250026103A28BF78C1FBD8520728BF06
:1002300030C148BF0B607047642900F0C7800020C0
:1002400070471FB502F062FE9DE8030000F0D2F98E
:100250001FBD10B510BD00F055FA1146FFF7F1FFB4
:1002600001F0D6FA00F08DFA03B4FFF7F2FF03BCF9
:1002700000F0C6FA0948804709480047FEE7FEE754
:10028000FEE7FEE7FEE7FEE7FEE7FEE7FEE7FEE746
:1002900004480549054A064B70470000F917000855
:1002A000C5010008D0000020D0840020D0800020AC
:1002B000D080002070B5A0FB0140B4F1805170F1F6
:1002C000000024BF002070BD204600F0BEF80500ED
:1002D0001CBF214600F04CF9284670BD53EA020CC1
:1002E00000F069802DE9F04B4FF00006002B1FBF96
:1002F000B3FA83F503FA05F424FA05F65E4012BF5B
:100300001643B2FA82F502FA05F4C5F120051EBFC4
:1003100022FA05FC44EA0C04203556EA044C4FEA64
:10032000144418BF641C4FF000084FF000099042BD
:1003300071EB030C39D3002919BFB1FA81F701FA27
:1003400007F6B0FA80F700FA07F6C7F120071EBFDC
:1003500020FA07FC46EA0C062037B6FBF4FCA7EBB4
:100360000507103F07F01F0BCBF120062CFA06F60D
:100370000CFA0BFB44BFB3460026202FA4BF5E46F9
:100380004FF0000B5BEA060C08BF4FF0010B19EBB6
:100390000B0948EB0608ABFB027C06FB02CC0BFB0F
:1003A00003CCC01B71EB0C01C1E70B460246414672
:1003B0004846BDE8F08B13B5084318BF4FF0FF3037
:1003C0000146AFF30080BDE81C4070472DE9F041C5
:1003D0000646002410687529314616A510D0AFF3E3
:1003E0000080002802DA404213A507E031688A073E
:1003F00001D512A502E0490704D511A5012401E0A9
:10040000AFF3008000210A2206F1240709E0B0FBC7
:10041000F2FCB0FBF2F302FB1C00303078541846BB
:10042000491C0028F3D123462A463046BDE8F04156
:1004300000F045B8000000002D0000002B00000077
:100440002000000070477047704770B5064600F006
:10045000B1F8056806F10B0020F00704B4429CBF18
:10046000002070BD2B466A68BAB11068A04210D354
:1004700004F1080188423CBF5068586007D35168B6
:10048000101941601168091B016058601460101D4B
:1004900070BD13465268002AE7D12146284600F075
:1004A00095F80028DED170BD10B500F087F800681F
:1004B00010BD10B5044600F081F8046010BD2DE9B0
:1004C000F0470D4699469246044600F1240801681B
:1004D000880604D5E06921F01001216000E00120C8
:1004E000A84201DD471B00E00027A1697A1902EB51
:1004F0000900081AA0612078C00602D42046AFF394
:100500000080002608E0D4E901211AF8060090478F
:10051000206A401C761C20624E45F4DB2078C00621
:100520000AD52046AFF3008006E0D4E9012130204F
:100530009047206A401C2062381EA7F10107F4DCB6
:1005400007E0D4E9012118F805009047206A401C13
:100550002062281EA5F10105F3DC2046AFF30080E0
:100560002078000602D50220BDE8F0870120FBE7D5
:100570004FF000020429C0F0128010F0030C00F0CC
:100580009880CCF1040CBCF1020F18BF00F8012BCD
:10059000A8BF20F8022BA1EB0C0100F08AB85FEA9B
:1005A000C17C24BF00F8012B00F8012B48BF00F8E4
:1005B000012B704700487047180000200048704722
:1005C00010000020704770477047704738B50446E8
:1005D0000A4600206946AFF30080002808BF38BDF6
:1005E00002460099204600F0B2F8012038BD0120F3
:1005F00000F0D0B8F8B5AFF30080054600200C46F7
:10060000102000BF0646A819A0420DD932466946FF
:100610000020AFF30080070008BF00F0BBF800988F
:10062000A04218BF0546C419FFF7C4FF056007467E
:10063000F01D20F007004619284600F00AF8B442E1
:1006400008BFF8BDA21B31463868BDE8F84000F08D
:100650007EB800210160C0E901107047102070478A
:1006600070B50446051FFFF7A5FF0068002C14BFF6
:10067000446870BD002C18BFAC423CBF2046646883
:10068000F8D301680A18AA4218BF456003D12A6846
:1006900005461144016028684119A1421CBF6C60E5
:1006A00070BD6168696021680844286070BD4FF0C2
:1006B000000200B5134694469646203922BFA0E8B2
:1006C0000C50A0E80C50B1F12001BFF4F7AF0907BE
:1006D00028BFA0E80C5048BF0CC05DF804EB8900AF
:1006E00028BF40F8042B08BF704748BF20F8022BF2
:1006F00011F0804F18BF00F8012B70470048704779
:10070000100000207546FFF7F9FFAE460500694668
:10071000534620F00700854618B020B5FFF7B8FD16
:10072000BDE820404FF000064FF000074FF00008F2
:100730004FF0000BAC46ACE8C009ACE8C009ACE82F
:10074000C009ACE8C00921F007018D467047034697
:1007500040688C46002818BF88423CBF034640686A
:10076000F8D318681844884207D00CF1030020F031
:100770000700001D411A521A0146081D0A60FFF7C2
:100780006FBF10B50446AFF300802046BDE81040AF
:10079000FFF76ABD10B500F00BF8BDE8104000F09F
:1007A00001B87047002801D000F02AB87047000057
:1007B00010B5012805D0002103A000F027F8012082
:1007C00010BD09A1F8E7000053494752544D454D6B
:1007D0003A204F7574206F662068656170206D65E2
:1007E0006D6F7279000000003A2048656170206DDD
:1007F000656D6F727920636F7272757074656400D5
:1008000001491820ABBEFEE72600020070B5054680
:100810000C460A2000E06D1C00F011F835B1287874
:100820000028F8D102E0641C00F009F814B1207827
:100830000028F8D1BDE870400A20AFF3008008B569
:1008400069468DF800000320ABBE08BDFEE700003E
:100850007047000080B543F61440C4F20100006800
:1008600080042ED540F20040C4F20200012100F0C5
:10087000BDF940F20C00C2F20000016801290BD161
:1008800040F27101C2F200010A78002A1CBF002266
:100890000A7002210CE000BF8A1E042A09D840F227
:1008A0007102C2F200021278002A14BF013901312C
:1008B000016040F27000C2F20000017881F0010195
:1008C00001704FF40050BDE8804000F0AFB8000068
:1008D00010B54379012B4FF002031DD0037103685B
:1008E00002F0100ED3F800C0D1E9004140F6FE72CC
:1008F00002FA0EF221432CEA020201FA0EF1114330
:100900001960C0211A6801FA0EF122EA010119608A
:100910000121002301714371184610BD002804BF56
:100920000120704710B50446007920B9002060719D
:10093000204600F007F802202071002001212061EC
:10094000217110BD80B586B047F200410068C4F245
:100950000001002288420592049201D006B080BDB9
:1009600043F630000092C4F20200036943F00053E2
:100970000361036903F000530093009B0092036836
:1009800043F001030360006800F00100009000984C
:10099000102001900320CDE9020201F5C63001A923
:1009A00000F050F806B080BD81B04FF0000CCDF8DB
:1009B00000C00068002900900098104414BF143053
:1009C00008300090009900200B6001B070470000D3
:1009D00010B54279012A4FF0020223D00271026859
:1009E00001F0100E4FF0010C14680CFA0EF32343C3
:1009F0001360D2F800C049B13C230CF4701103FA23
:100A00000EF399420AD1022105E000BF0CF03C012F
:100A10003C2903D10121536819435160012100226F
:100A200001714271104610BD7047000043F6144139
:100A3000C4F201010A68024214BF08607047FFF760
:100A4000F3BF00002DE9F04F82B000F13E4241F6C5
:100A5000000502F1FF77C4F20205072243F6004EBB
:100A60004FEAB726A84208BF0622C4F2010E062E9E
:100A700038BF4FEAB7220125002600274FF00008B3
:100A8000009208E008F101080437B8F1100F06F1F0
:100A9000020600F0A7800C6805FA08F914EA090FAD
:100AA000F0D0D1F804B003220BF0030CACF1010438
:100AB000B240012C6FEA020A10D88268CC6802EAC0
:100AC0000A02B440224382604268CBF3001422EA57
:100AD000090204FA08F42243426005E0BCF1030F66
:100AE00002D14FF0030C20E0C2688C6802EA0A02CF
:100AF000B4402243BCF1020FC26016D16FF0030272
:100B000002EA58020244D2F820C007F01C050F2365
:100B10000C69AB402CEA030304FA05F52B4313627E
:100B2000D1F804B001250BF0030C02680CFA06F3AF
:100B300002EA0A021A431BF4403F0260A2D00022DC
:100B400043F644030192C4F202031A684FF6084CBC
:100B500042F480421A601A68CFF6FF7C02F48042A9
:100B60000192019A28F00302724452F80C3007F007
:100B70000C050F24AC40A343009C04FA05F52B435D
:100B800042F80C30DEF808204B6842EA090543F6CB
:100B90000C4CDC0258BF22EA0905CEF80850C4F21A
:100BA000010CDCF800209C0242EA090558BF22EA49
:100BB0000905CCF80050DEF804209C0342EA090540
:100BC00058BF22EA0905CEF80450DEF80020DB0306
:100BD00042EA090558BF22EA0905CEF8005001256E
:100BE00050E700BF02B0BDE8F08F0000426902EAA2
:100BF0000103914341EA034181617047002A08BF24
:100C0000090481617047000040F2CC00C2F200008C
:100C10000068704740F2000040F2CC01C2F20000D0
:100C2000C2F2000100780A681044086070470000B2
:100C300080B543F60040C4F20200016841F400713F
:100C40000160016841F480610160016841F48071D4
:100C50000160032000F088F8002000F005F800F0A3
:100C600027F8002080BD000070B540F20006C2F2F7
:100C7000000640F208013278C2F200014FF47A73A4
:100C80000968B3FBF2F20446B1FBF2F1084600F04A
:100C90007BFB0F2C4FF0010508D838B94FF0FF301F
:100CA00021460022002500F033F87460284670BD0C
:100CB00082B0002043F640010190C4F202014A686C
:100CC00042F480424A604A6802F480420192019AEA
:100CD0000090086840F080500860086800F080507C
:100CE0000090009802B07047002848BF7047C1B21A
:100CF00000F01F00012202FA00F04EF20012CEF2C4
:100D0000000242EAD10121F00301086070470000AF
:100D100010B54EF60C5CCEF2000CDCF80030C3F3DC
:100D2000022E8EF00704042C28BF0424BEF1030316
:100D30004FF0FF3E0EFA04F438BF0023A143994060
:100D40000EFA03F39A43114300F00F0200F16043DF
:100D50000901043A03F564436244002848BF02F1E4
:100D60000C03197010BD00004EF60C51CEF20001BC
:100D70000A684FF6FF031A4060F30A2242F08060CF
:100D800040F0FD70086070472DE9F041002800F048
:100D90008B8043F60808C4F202080446D8F8F8032A
:100DA0000D4600F00F00884207D288F8F853D8F8B3
:100DB000F80300F00F00A84276D12068810717D50C
:100DC000410705D5D8F8001041F4E051C8F80010EB
:100DD000010705D5D8F8001041F46041C8F80010AB
:100DE000D8F80010A26821F0F0011143C8F80010F3
:100DF000C0073FD1D8F8F80300F00F00A84207D988
:100E000088F8F853D8F8F80300F00F00A8424BD147
:100E10002068410707D5D8F80010E26821F4E051B6
:100E20001143C8F80010000708D5D8F80000216960
:100E300020F4604040EAC100C8F8000000F07CF8EF
:100E4000D8F8001043F25002C1F30311C0F60002BB
:100E5000515C40F2080220FA01F140F20400C2F2B3
:100E600000000068C2F200021160FFF7FDFE0020E2
:100E7000BDE8F0816068811E022907D258F8081C7D
:100E800089015CBF0120BDE8F08111E0012807D194
:100E900058F8081C89035CBF0120BDE8F08107E019
:100EA00058F8081C890703D40120BDE8F08100BF71
:100EB000D8F8001021F003010843C8F80000FFF73C
:100EC000A3FE064641F28837D8F80000616800F0BA
:100ED0000C00B0EB810F8DD0FFF796FE801BB8425F
:100EE000F2D90320BDE8F08140F2080043F6080182
:100EF000C2F20000C4F202010068096843F2600215
:100F0000C1F38221C0F60002515CC8407047000066
:100F100040F2080043F60801C2F20000C4F20201E8
:100F20000068096843F26002C1F34231C0F6000272
:100F3000515CC8407047000010B543F60404C4F289
:100F400002046068C0F3810142F20040C0F2F40084
:100F5000DFE801F04402081841F20020C0F27A00F4
:100F600010BD00BF216801F03F02216823684902DB
:100F7000C3F3881116D4A1FB00010023FFF7AEF9DB
:100F800017E000BF216801F03F0221682368490291
:100F9000C3F3881116D4A1FB00010023FFF79EF9CB
:100FA00017E000BF41F20020C0F27A004843B0FBD6
:100FB000F2F021680222C1F3014102EB4101B0FBD2
:100FC000F1F010BD41F20020C0F27A004843B0FBBE
:100FD000F2F02168C1F30271B0FBF1F010BD000026
:100FE0002DE9F04182B0002800F096800446007898
:100FF00043F60006C007C4F202062BD0B06800F02A
:101000000C00042820D0B06800F00C00082802D1A1
:101010007068400218D4B06800F00C000C2802D1AF
:101020007068400210D46068B0F5803F07D0B0F51A
:10103000A02F40F03B81306840F480203060306861
:1010400040F4803030603BE13068800302D5606856
:10105000002861D02078800722D5B06810F00C0FEE
:1010600011D0B06800F00C00082802D1706840026E
:1010700009D5B06800F00C000C2840F09F80706823
:10108000400200F19B803068800702D5E0680128AB
:1010900042D13068216920F0F80040EAC100306098
:1010A000207800073CD42078400751D4A56985B347
:1010B000B06800F00C00082840F0A880012D2BD06B
:1010C0007068E16900F480028A4225D1216A00F04B
:1010D0003F028A4220D147F6C071626A0140B1EBFB
:1010E000821F19D1A16A4FF6FF73C903994300F417
:1010F0004032A1F580318A420ED1E16A00F070627F
:10110000B2EB016F08D1216B00F0E040B0EB017F42
:1011100002D1002034E100BF012002B0BDE8F0811F
:101120006069002840F20000C4F247205ED001212F
:10113000C0F8801EFFF768FD054600BF706F80078E
:10114000B1D4FFF761FD401B0228F7D9C5E000BF0D
:10115000306C10F080580AD100200190306C40F0C3
:1011600080503064306C00F080500190019847F25C
:101170000007C4F200073868C00511D4386840F48D
:1011800080703860FFF740FD054600BF3868C00535
:1011900006D4FFF739FD401B0228F7D99DE000BFB8
:1011A000A068012805D0052852D1306F40F0040016
:1011B0003067306F40F00100306753E0E06800288E
:1011C00060D00020C4F2472001210160FFF71CFD20
:1011D000054600BF306880073FF55BAFFFF714FDA1
:1011E000401B02284FF00300F4D9C9E00021C0F8E9
:1011F000801EFFF709FD0546706F80077FF553AF2E
:10120000FFF702FD401B0228F6D966E00027C4F272
:10121000472700203866FFF7F7FC022D05460BD163
:10122000306880015ED5FFF7EFFC401B02284FF0CD
:101230000300F5D9A4E000BF306880017FF569AFF5
:10124000FFF7E2FC401B02284FF00300F4D997E0BF
:10125000316F002821F001013167316F21F0040165
:10126000316763D0FFF7D0FC054641F2883700BFF5
:10127000306F80076CD4FFF7C7FC401BB842F7D92A
:101280002BE000BF0020C4F2472000210160FFF7DF
:10129000BBFC0546306880077FF502AFFFF7B4FC62
:1012A000401B02284FF00300F4D969E031680028A0
:1012B00021F480313160316821F48021316051D0D6
:1012C000FFF7A2FC054600BF306880033FF5C2AEC1
:1012D000FFF79AFC401B6428F6D9032002B0BDE852
:1012E000F08100BF04F11C052FCD246B084340EAB8
:1012F0008210D9034FF6FF729143A1F5803140EA85
:101300000560084340EA0470706001203866FFF70A
:101310007BFC0446306880013FF5FBAEFFF774FCB0
:10132000001B02284FF00300F4D929E0FFF76CFC02
:10133000054641F2883700BF306F800708D5FFF7B8
:1013400063FC401BB8424FF00300F5D918E000BF22
:10135000B8F1000F7FF4AAAE306C20F080503064FA
:10136000A4E600BFFFF750FC0546306880037FF518
:1013700071AEFFF749FC401B64284FF00300F4D91D
:1013800002B0BDE8F0810000411E0020B0EB116FFB
:101390001CBF012070474EF21002CEF200025160D5
:1013A0004EF62351CEF20001F0230B70072190601E
:1013B00011607047002804BF0120704770B50446D3
:1013C00090F83D0028B9002084F83C00204600F049
:1013D0006FF8022084F83D002068D4E902C2D4F8F6
:1013E00010E0C56804F1180625F00C05C560056914
:1013F0004ACE25F47C55294319433143114341F426
:1014000000610161C16849F20C629143626941EA7D
:101410000C0141EA0E01114341F40041C1604169F0
:1014200041F2004340F48062C4F2010321F44071B0
:101430009A42416102D1FFF76BFD01E0FFF754FDD5
:10144000D4E900531921A0FB01015A00DB0FFEF77C
:1014500045FF48F21F51C5F2EB11A0FB01235A09C9
:101460004FF69C73C1F6FF7302FB0300322303EBBC
:10147000C000A0FB01014FF4F87000EA111000EB6E
:101480000210C1F342110844A8602869012120F428
:1014900080402861686920F02A006861E86840F4AB
:1014A0000050E8600020206484F83D1070BD00000A
:1014B0002DE9F04385B0006844F60005C4F200054C
:1014C000A84203D005B0BDE8F08300BF002643F674
:1014D00030000096C4F2020001696C4641F480219C
:1014E000016101694FF0020801F480210091009927
:1014F000009601684FF0030941F0020101600168A4
:10150000072701F00201009100990096016841F05F
:10151000080101600068214600F008000090009872
:101520004FF48050009005F5DE30CDE90186CDF80E
:101530000C900497FFF786FA4FF44070CDE900084D
:1015400005F5E2302146CDE902690497FFF77AFA02
:1015500005B0BDE8F0830000FEE7000080B582B072
:101560000020CDE9000040F2740047F20041C2F2D1
:101570000000C4F200010160FFF7D0F920B1EFF3E1
:10158000108072B6FEE700BF40F27400C2F20000A5
:1015900069460022FFF79CF920B1EFF3108072B684
:1015A000FEE700BF02B080BD2DE9F04786B00027FE
:1015B00043F63000CDE904770097C4F202000168D9
:1015C00041F6000A41F0040101600168C4F2020A18
:1015D00001F004010091009900970168AAF5A05656
:1015E00041F0800101600168002201F0800100915A
:1015F00000990097016844F2810841F001010160FF
:10160000016801F00101009100990097016841F023
:1016100002010160016801F0020100910099009748
:10162000016841F008010160016801F008010091C2
:1016300000990097016841F040010160006844F2A0
:10164000810100F04000009000983046FFF7D6FA84
:101650005046402100224FF04009FFF7CFFA4FF4E7
:10166000005001904FF4881001ADCDE90207AAF5B2
:1016700080502946FFF7E6F9012430462946CDF887
:101680000480CDE902470497FFF7DCF9504629466C
:10169000CDE90194CDE90377FFF7D4F98020CDE9B6
:1016A0000107504629460397FFF7CCF94FF4E8505D
:1016B00001900220CDE90207032004900A20AAF538
:1016C000C054059020462946FFF7BCF94FF400703E
:1016D000CDE90107204629460397FFF7B3F92820F3
:1016E00000210022FFF714FB2820FFF7FDFA06B0C7
:1016F000BDE8F08780B540F2880044F60001C2F2F0
:101700000000C4F2000100234FF00C0C4FF4E13252
:1017100080E80E00C0E90333C0E905C3C0E9073320
:10172000FFF748FE002808BF80BDEFF3108072B6B7
:10173000FEE70000FEE70000FEE700007047000043
:1017400070470000FFF766BAB0B594B0002443F6C6
:1017500040000C94CDE90A44CDE908440694CDE953
:101760000444CDE902440194C4F20200016801225C
:1017700041F0805101600068022500F08050019026
:10178000019847F200000194C4F20000016862F37E
:101790008F310160006800F44040019001981020F2
:1017A0000B9008200F906420CDE9100507A807953D
:1017B0000A92CDE90D54CDE91255FFF711FC28B17D
:1017C000EFF3108072B600BFFEE700BF0F20CDE937
:1017D00002054FF4A05005904FF48050069002A8E7
:1017E00003210494FFF7D0FA20B1EFF3108072B612
:1017F000FEE700BF14B0B0BD4EF68850CEF2000038
:10180000016841F47001016070470000FEE70000CC
:1018100084B0FFF70DFAFFF797FFFFF7C5FEFFF75C
:101820009DFEFFF767FF40F27400C2F20000FFF771
:1018300075F84FF41D700821FEF73CFD9FED461B27
:101840009FED430B54EC117B9FED451B56EC10BBF9
:101850009FED3D0B0090A0F1200A4FF0000951ECE4
:10186000110BCDE9011000BF55EC108B4046294605
:1018700042462B4600F0C8FE5A46334601F04EF968
:101880003A46234600F068FF41EC100B00F02CFABA
:101890000AF12000039009F101008AED080B01F024
:1018A00012F902460B4600F0AFFE5A46334601F0ED
:1018B00035F93A46234600F04FFF41EC100B00F09B
:1018C00013FA09F102008AED0A0B01F0FCF8024656
:1018D0000B4600F099FE5A46334601F01FF93A468E
:1018E000234600F039FF41EC100B00F0FDF909F13F
:1018F00003008AED0C0B01F0E6F802460B4600F0FF
:1019000083FE5A46334601F009F93A46234600F071
:1019100023FF41EC100B00F0E7F9DDE9013240460E
:1019200029468AED0E0B00F06FFE41EC100B09F119
:101930000409DDF80CA0B9F51D7F95D1009800F0E1
:1019400013F800BF00BF00BF00000000000000004F
:10195000182D4454FB2109400000000000A08340E2
:10196000000000000000104094B0009040F27400AD
:10197000C2F200000021FFF72BF89FEDC78B9FED0F
:10198000C89B9FEDC9AB9FEDCABB00BF009800216B
:101990000891014600224FF0000B074604460790CD
:1019A00000210692002205900020099034E000BF3B
:1019B00051EC1C0B53EC192B01F0B0F853EC1A2B23
:1019C00000F022FE53EC1B2B01F0A8F801F04EF8BA
:1019D000034640F27400C2F2000000210022FEF72C
:1019E000E3FF0598099B2830059006980B9A05306F
:1019F000069007980C9918300790089801334032E8
:101A00000831033038340BF1070BB3F51D7F07F1B4
:101A1000080708900993B9D040F20C00C2F2000008
:101A2000CDE90B210268B0EE48CA012AF0EE68CA7F
:101A3000BEDB501E032801A880E8940806D2B0EE51
:101A400048CA4FF00008F0EE68CAA5E022F0030093
:101A5000DDF824E05B46DDE90752DDE905ABB0EED9
:101A600048CA4FF000084FF00309F0EE68CA0A9028
:101A70004AF2F376C3F22D46CDE90F43CDE9117E4C
:101A8000CDF84C80ABFB060CA2FB0608A3FB0603BB
:101A9000AEFB060E4EF660464FEADC10CFF6FF7640
:101AA00000FB06A04FEADE110D904FEAD81000FBB4
:101AB0000658D80901FB067100FB064091ED00DBDA
:101AC0000E90A9F1020014462E4600F0FCFF0246DB
:101AD0000B4651EC1D0B00F03FFE02460B4651EC4D
:101AE0001C0B00F091FD074698ED00CB48460D46D3
:101AF00000F0E9FF02460B4651EC1C0B00F02CFEF7
:101B000002460B463846294600F07EFD05460D98F4
:101B10000F4690ED00CB09F1020000F0D4FF024621
:101B20000B4651EC1C0B00F017FE02460B462846F4
:101B3000394600F069FD05460E980F4690ED00CB42
:101B400009F1040000F0BFFF02460B4651EC1C0BEC
:101B500000F002FE02460B462846394600F054FDCE
:101B60002246DDE90F43DDE9117E41EC1C0B0B98A9
:101B70003546DDF84C8082440C99351804440744FE
:101B80000A9808F1040809F108098B440A440B4437
:101B900040458E447FF46CAF01980DF1080B4AF27A
:101BA000F3759BE8900810F00309C3F22D453FF44C
:101BB000FFAE4FEA4800099901304143A1FB0523DC
:101BC000DA094FF41D7302FB1311009A02EBC101F5
:101BD00091ED00DB00F077FF02460B4651EC1D0B48
:101BE00000F0BAFD02460B4651EC1C0B00F00CFD58
:101BF00041EC1C0BB9F1010F3FF4DAAE06468A4600
:101C00000320099900EB48004143A1FB0523DA09B1
:101C10004FF41D7302FB1311009A02EBC10191ED09
:101C200000CB00F050FF02460B4651EC1C0B00F0BD
:101C300093FD02460B463046514600F0E5FC41EC70
:101C40001C0BB9F1020F3FF4B3AE06468A460520DD
:101C5000099900EB48004143A1FB0523DA094FF441
:101C60001D7302FB1311009A02EBC10191ED00CB31
:101C700000F029FF02460B4651EC1C0B00F06CFDF6
:101C800002460B463046514600F0BEFC41EC1C0BB0
:101C90008EE600BF00BF00BF000000000000000093
:101CA00083C8C96D305FF43F000000000000F03FC2
:101CB000000000000070974003B4019841000098B4
:101CC00050EAC12018BF04204A0D18BF40F001009F
:101CD00040F2FF72B2EB515F08BF40F002000128F2
:101CE00008BF052002B0704710B52F499FED2C1B8F
:101CF0002DED020B84B0059820F000408842DCBF37
:101D000000209DED040B32DD2849884209D104985A
:101D100040B94FF00100FEF7CCFB00F03DFC06B0EF
:101D200010BD05DB9DED040B00F02AFC06B010BDD4
:101D300068469DED040B00F03BF810F0030011D055
:101D4000012818D09DED021B9DED000B02281AD032
:101D500000F04AFA51EC100B00F04AFC06B041ECDE
:101D6000100B10BD9DED021B9DED000B012000F03E
:101D70006FFB06B010BD9DED021B9DED000B00F04A
:101D800033FA06B010BD012000F062FB51EC100BDD
:101D900000F02EFC06B041EC100B10BD000000005E
:101DA0000000000000000000FB21E93F0000F07F80
:101DB0002DE9F14F04462DED020B2DED088B8AB075
:101DC0009FEDE70B80ED020B139EE74826F00045E0
:101DD00085420ADC9DED120B002084ED000B0AB059
:101DE000BDEC088B03B0BDE8F08FE0489FEDE0ABA1
:101DF0009FEDE1BBA84247DDE14F9FEDE39B9FEDE7
:101E0000E48B9DED120B53EC1A2B51EC100B002EB2
:101E10001CDD00F08DFF41EC100BBD4208D053ECEF
:101E20001B2B51EC100B00F083FFC4E900010BE009
:101E300053EC192B51EC100B00F07AFF53EC182BDC
:101E400000F076FFC4E900010120C8E700F0DCFBE8
:101E500041EC100BBD4208D053EC1B2B51EC100B86
:101E600000F0D2FBC4E900010BE053EC192B51EC5C
:101E7000100B00F0C9FB53EC182B00F0C5FBC4E9B4
:101E800000014FF0FF30AAE7C348A84279DB9DED7F
:101E9000120B51EC100B00F09FFB41EC180B9FED67
:101EA000C00B53EC102B00F039FE9FEDBF1B53EC21
:101EB000112B00F0A9FB00F0A9FD074600F003FE7E
:101EC00041EC190B53EC1A2B00F028FE53EC182BA5
:101ED00000F022FF41EC180B53EC1B2B51EC190BBB
:101EE00000F01CFEDFF8C8A241EC100B4FEA1558B9
:101EF0000125FA4453EC102B51EC180B00F018FF9D
:101F0000032DC4E900013DD0C1F30A5005EB451192
:101F1000A8EB00001139814234DA0AEB051BB0EE60
:101F200048AA9BED000BF0EE68AA53EC102B51EC85
:101F3000190B00F0F3FD41EC1B0B51EC1A0B53ECA9
:101F40001B2B00F0F5FE41EC180B51EC1A0B53EC77
:101F5000182B00F0EDFE53EC1B2B00F0E9FE9BED7F
:101F6000020B41EC1A0B53EC102B51EC190B00F047
:101F7000D5FD53EC1A2B00F0DBFE41EC100B6D1C71
:101F8000B8E70EE0002EA8BF3846BFF628AF94EDA4
:101F9000000B51EC100B00F02BFBC4E90001784260
:101FA0001DE7C6F3130040F4801EC6F30A50A0F2EA
:101FB000F530471100F01F05C5F12000DDF848B0ED
:101FC00008900020069007900520EC467949002DE6
:101FD00007EB0002794408BF51F8221009D051F8EC
:101FE000223001EB8201AB404A68089922FA01F1E4
:101FF0001943A1FB0E26A1FB0B131A449A4234BFCE
:102000000123002303EB06080CEB8003D3E901A6B0
:102010000E448E4234BF0121002192448A4411B102
:10202000924502D903E0924501D2012100E000214E
:10203000C3E901A641444CF82010011EA0F10100A3
:10204000C4DC029800F10050850F0298DDE90367B7
:102050008000DDF8148000F036FD41EC1A0B3046AC
:1020600000F048FD9FED541B53EC112B00F056FD82
:1020700041EC1B0B384600F03DFD9FED511B53EC2E
:10208000112B00F04BFD41EC180B404600F032FDE7
:102090009FED4D1B53EC112B00F040FD41EC190B53
:1020A00051EC180B53EC192B00F0AEFA53EC1B2B30
:1020B00000F0AAFA53EC1A2B00F0A6FACDE90801B9
:1020C000002008909DED080B53EC1A2B51EC100BDF
:1020D00000F02EFE53EC1B2B00F02AFE53EC182BC5
:1020E00000F026FE53EC192B00F016FE9FED381B76
:1020F00053EC112B00F012FD9FED370B41EC180B48
:1021000053EC102B9DED080B51EC100B00F006FD6D
:1021100053EC182B00F078FA9FED310B41EC180BC3
:1021200053EC102B9DED080B51EC100B00F0F6FC5E
:1021300053EC182B00F068FA41EC100B139810F0D8
:10214000004F06D06D4251EC100B00F051FA41ECFB
:10215000100B284684ED000B41E600000000000053
:102160000000000000000000FB21E93F7CD9024094
:1021700000004054FB21F93F3163621A61B4D03D45
:10218000FB21F93F000000000000601A61B4D03D5F
:102190007370032E8A19A33BFB2139410000000014
:1021A00083C8C96D305FE43F000000000000E03FDD
:1021B00062100000B00F0000000000000000103EA0
:1021C000000000000000103C000000000000103A79
:1021D000182D4454FB21F93D3326A611460B113C22
:1021E00000000054FB21F93D10B52DED040B2DED41
:1021F000088B82B0B0EE419AF0EE619A0B9820F015
:1022000000449FED4BABB4F1795F11DA9DED0A0B01
:1022100051EC100B00F0FAFB002801BFB0EE4A0AA7
:10222000F0EE6A0A02B0BDEC088B04BF04B010BD2A
:102230009DED0A0B53EC102B51EC100B00F06EFCD3
:1022400041EC180B3C480621B0EE480AF0EE680A53
:10225000784400F081F853EC182B51EC100B00F08F
:102260005DFC9DED0A0B41EC1B0B53EC192B51EC63
:10227000100B00F053FC41EC190B53EC1B2B51ECF1
:10228000180B00F04BFC53EC192B00F051FD9FEDA7
:102290002C0B41EC190B53EC102B51EC180B00F0EC
:1022A0003DFC41EC100B2848844210DA53EC192B0A
:1022B00051EC100B00F03CFD53EC1A2B00F02CFD00
:1022C00041EC100B02B0BDEC088B04B010BD1F48F0
:1022D000A042BCBF9FED1E1B8DED001B06DBA4F5CD
:1022E00000100190002000909DED001B51EC100BA0
:1022F00053EC112B00F01CFD9DED000B41EC180B75
:1023000053EC102B51EC1A0B00F012FD41EC1A0BA0
:1023100053EC192B51EC180B00F00AFD53EC1A2B5F
:1023200000F0FAFC41EC100BCCE7000000000000CC
:10233000000000000000F03FD40C0000000000008E
:10234000000000000000E03F3333D33F0000E93FCE
:10235000000000000000D23F70B504462DED028B56
:102360004D1E00EBC500B0EE408AF0EE608A90EDA5
:10237000000B35F0060017D053EC182B51EC100B66
:1023800000F0CCFB41EC100B6D1E04EBC50090ED92
:10239000001B51EC100B53EC112B00F035F941EC04
:1023A000100B35F00600E7D1022D36D0042D1CD0DD
:1023B000062D1CBFBDEC028B70BD53EC182B51ECED
:1023C000100B00F0ABFB94ED0A1B53EC112B00F04B
:1023D0001BF953EC182B00F0A1FB94ED081B53ECF8
:1023E000112B00F011F941EC100B53EC182B51ECB0
:1023F000100B00F093FB94ED061B53EC112B00F037
:1024000003F953EC182B00F089FB94ED040B53EC0B
:10241000102B00F0F9F841EC100B53EC182B51EC99
:10242000100B00F07BFB94ED021B53EC112B00F022
:10243000EBF853EC182B00F071FB94ED001B53EC00
:10244000112B00F0E1F8BDEC028B41EC100B70BDDC
:1024500031B504462DED040B2DED0A8BB0EE41BADB
:10246000F0EE61BA0B989DED0A0B20F00040B0F140
:10247000795F0DDA51EC100BFFF71EFC042808BF42
:1024800000F09AF89DED0A0BBDEC0A8B05B030BD4B
:1024900053EC102B51EC100B00F040FB41EC180BEF
:1024A0009DED0A0B53EC182B51EC100B00F036FB92
:1024B00041EC190B2C48B0EE480AF0EE680A0521F1
:1024C0007844FFF749FF9FED2ACBB0EE40AAF0EE2B
:1024D00060AA9CB353EC1C2B51EC190B00F01EFBB3
:1024E00041EC1C0B53EC1A2B51EC190B00F016FBB2
:1024F0009FED210B41EC190B53EC102B51EC1B0BF6
:1025000000F00CFB53EC192B00F012FC53EC182BD1
:1025100000F004FB53EC1B2B00F00AFC53EC1C2BCB
:1025200000F006FC9DED0A1B53EC112B00F0F4FBB0
:10253000BDEC0A8B05B041EC100B30BDFFE753EC4E
:102540001A2B51EC180B00F0E9FA53EC1C2B00F09D
:102550005BF853EC192B00F0E1FA9DED0A1B53ECEC
:10256000112B00F051F8E3E7640B000000000000BD
:10257000495555555555C5BF000000000000E03FC6
:1025800010B553EC102B51EC100B00F03DF841EC62
:10259000100B10BD000000009FED050B10B553ECB3
:1025A000102B51EC100B00F0D7F841EC100B10BDC4
:1025B00000000000000000009FED050B10B553EC7B
:1025C000102B51EC100B00F0A9FA41EC100B10BDD0
:1025D000000000000000001082B0CDE9000121F0F1
:1025E000004001909DED000B02B051EC100B7047C4
:1025F00081F00041704780F00040704721F00041B9
:10260000704720F00040704710B591EA030F48BFB3
:1026100083F0004300F19483841A71EB030C05D21C
:10262000121943EB0C03001B61EB0C014FEA115430
:10263000A4EB135CDFF81CE11EEA430F18BF9EEA0F
:10264000445F00F0748021EA045123EA0E0343F44E
:102650008013DCF1200E32D322FA0CFE10EB0E00B8
:1026600023FA0CFE41EB0E01CCF1200E03FA0EFE14
:1026700010EB0E00CCF1200E51F10001B1F5801FDE
:1026800032D201EB045112FA0EF2BDE8104058BFED
:102690007047401C38BF5FEA420218BF70470028ED
:1026A00014BF20F0010041F100014FEA410313F58E
:1026B000001F38BF7047A1F1C04100F027BB012ABD
:1026C00043EB0302ACF1200CDCF11F0E32BF4FF0E4
:1026D000000E23FA0CF310EB030041EB0451B4EBB2
:1026E000115FD0D0A1EB045101F58011490801EB35
:1026F00004515FEA30000ED350F1000038BF12FAE7
:102700000EFE08D1BDE81040C9E7401C38BF5FEAA3
:102710004202CAD1C3E7BDE810404FEA410313F5B6
:10272000001F38BF7047A1F1C04100F0EFBA9EEA28
:10273000445F08D011EA5E0FBDE8104004BF01F00D
:10274000004100207047BDE8104070B500F090FADD
:1027500064FBBE3E0000E0FF2DE9C04130B4DFF86D
:10276000A4C23CEA111418BF3CEA131400F0ED8037
:102770001CEA111481EA030544EAD57418BF1CEA67
:10278000131500F0C880A4EB050404F17F7404F570
:1027900000344FF0004545EAC12145EAC32341EA30
:1027A000505143EA52534FEAC0204FEAC2229942A5
:1027B00008BF904200F09D804FEA13650FF2441667
:1027C000765D4FEA134506FB05F7C7F1807706FBF8
:1027D00007F74FEAD737A7FB03687642A7FB06CE79
:1027E000C8F5803838BFA8F1010807FB08E6A6FB4A
:1027F000028C4FF0000EE6FB03CEDCF1000CCEF1B4
:10280000004E38BFAEF1010EA6FB0C584FF000078A
:10281000E6FB0E87A1FB08C6A0FB07CE16EB0E0653
:102820004FF0000545F10005E1FB076515F1E04EAD
:102830007EBFA4F580345FEA46066D4116F180073D
:1028400045F100054FEA172747EA05674FEA1525C6
:102850004FEA0666A6F1DE46B6F1805F20D938461B
:1028600005EBC47124F0010C01EB0C11BCF1FE6FFF
:1028700002D8F0BCBDE8008124425CBF01F5801E97
:102880009EEAC47F02D4F0BCBDE80081244200F17E
:102890003980A1F1C041F0BCBDE8004100F036BA7A
:1028A0004FEAD02040EA41504FEAD1214FEAD222EC
:1028B00042EA43524FEAD323A7FB028607FB036693
:1028C00005FB02661EEA0E0F58BFA6EB0056B6EBDC
:1028D00000564FEA520E4EEAC37E18EB0E0E56EB30
:1028E000530EBCD518EB02085E417F1C55F1000564
:1028F000B5E74FF480154FF000074FF000064FF09A
:102900000008ACE701F1C04101F000414FF00000C8
:10291000F0BCBDE800810CEA131511EA0C1F00D0D1
:102920000CE013EA0C1F00F026804FF0000081EA53
:10293000030101F00041F0BCBDE80081F0BCBDE83E
:10294000004181EA030100F0E1B9F0BCBDE80041BB
:1029500070B500F08DF900BF097EFC3E00F007B8AD
:102960004FF0000081EA030101F00041704781EA65
:10297000030100F0CBB9F0BCBDE8004122494FF0A3
:1029800000007047FFFDFBF9F7F5F4F2F0EEEDEB18
:10299000E9E8E6E4E3E1E0DEDDDBDAD8D7D5D4D35D
:1029A000D1D0CFCDCCCBCAC8C7C6C5C4C2C1C0BFA9
:1029B000BEBDBCBBBAB9B8B7B6B5B4B3B2B1B0AFAF
:1029C000AEADACABAAA9A8A8A7A6A5A4A3A3A2A193
:1029D000A09F9F9E9D9C9C9B9A999998979796954E
:1029E00095949393929191908F8F8E8E8D8C8C8BEA
:1029F0008B8A898988888787868585848483838272
:102A0000828181800000FF070000F87F4FEA4103C8
:102A10004FEA5353A3F58063D3F11E03C8BFD3F12C
:102A2000210C0CDD4FF0004242EAC12242EA505232
:102A300032FA03FC8CEAE17CACEBE1707047102BBE
:102A4000C4BF0020704703F5787CBCF1FF3F04D081
:102A50006FF0004282EA2100704770B500F008F97B
:102A60004992248000207047F2E700004FEA11539A
:102A7000A3F58063D3F11E03A8BFD3F1200C08DBBC
:102A80004FF0004242EAC12252EA505232FA03F0B9
:102A9000704709420BD4102BC4BF0020704703F5C8
:102AA000787CBCF1FF3F05D04FF0FF3070474FF00E
:102AB0000000704770B500F0DBF800BF4992248039
:102AC00000207047F0E710F0004248BF4042B0FAE3
:102AD00080F310FA03F10AD0C3F11D0303F58063FC
:102AE00002EB03524FEA415002EBD12170474FF005
:102AF00000007047B0FA80F310FA03F10AD0C3F176
:102B00001D0303F580634FEA03524FEA415002EB85
:102B1000D12170474FF000007047000070B5DFF81A
:102B200048C11CEA111E1EBF1CEA13159EEA0C0FB9
:102B300095EA0C0F00F06F8081EA03044EEAD47E20
:102B4000AE4421EA4C1123EA4C1341F4801143F4C2
:102B50008013AEF17F7EA1FB024CA0FB036536190A
:102B600055EB0C05A1FB034C4CF10003A0FB021C30
:102B700016EB0C06654153F10003094218BF46F0FD
:102B8000010613F4007F0BD14FEA03314FEA053001
:102B900041EA155140EA165034036FF003020AE08F
:102BA0004FEAC3214FEAC52041EA555140EA565049
:102BB000F4026FF0020202EB2E4201EB025585EAAD
:102BC000CE710AD05FEA440C18BF24F0004450F1E3
:102BD000000041F1000120EAD47040F2FE7C624521
:102BE00000D270BDA84214BF4FF080444FF0404463
:102BF000002E08BF0024BEF1806FA8BFA1F1C04124
:102C0000BDE8704080F2828001F1C04101F00041D6
:102C10004FF0000070470CEA13159EEA0C0F18BF26
:102C200095EA0C0F06D081EA030E4FF000000EF07B
:102C3000004170BD00F01CF88900013E00F007B8AB
:102C400000F009B84FEA430C5FEA5C5C08D081EA07
:102C5000030100F05BB84FEA410C5FEA5C5CF6D11F
:102C600002494FF0000070470000FF070000F87FA6
:102C70000EF1020E2EF0030E5EF8046B364205D400
:102C8000012A43EB030515F5001F12D8012841EB7B
:102C9000010C1CF5001F0CD80ED14FEAD17C0CEBB7
:102CA0004C0C0CF1020C15F5001F08BF4CEBD37C4B
:102CB00004E04FF0080C01E04FEAD37C0CEB4C052C
:102CC00026FA05F606F00706B6F1040C06D20EEB5E
:102CD000860CBDE870404CF0010C6047DFE80CF05A
:102CE000090B02024FF00041A1F500214FF0000056
:102CF00070BD19461046012851EB010418BFD4F5E8
:102D0000001484BF002001F0004170BD0808A0F548
:102D100000114FEA3101704710B591EA030F81F0BD
:102D200000413FF579AC83F0004300F009B80000A2
:102D300010B591EA030F48BF83F000433FF56CAC38
:102D4000841A71EB030C07D28CF0004C121943EB80
:102D50000C03001B61EB0C014FEA1154A4EB135C54
:102D6000DFF8A4E11EEA430F18BF9EEA445F00F0BB
:102D7000B48021EA045123EA6E035242C3EB6E038E
:102D800038BF5B1EDCF1200E25D322FA0CFE10EBBF
:102D90000E0043FA0CFE41EB0E01CCF1200E03FABB
:102DA0000EFE10EB0E00CCF1200E51F1000129D4E3
:102DB00001EB045112FA0EF2BDE8104058BF704703
:102DC000401C1CBFB2F1004F704700280CBF491CCB
:102DD00020F00100704712EB020E43EB030218BF14
:102DE0004FF0010E4EEA4202ACF1200CDCF11E0E57
:102DF00056D943FA0CFE10EB0E00CCF11E0E51F129
:102E0000FF31D5D50EF1010E12FA0EFE404141EB15
:102E1000010101EB445C5FEA5C5C10D901EB0451F9
:102E200010EBDE7038BFBEF1004FBDE8104018BF98
:102E3000704700280CBF491C20F00100704734D2B5
:102E40004FEAD42C24F4006411F500111BD0B1FA20
:102E500081F20B3AA41AA41ED2F12003914030FA59
:102E600003F31943904001EBCC7101EB0451002CAA
:102E7000BDE81040A8BF704701F1C04101F000411A
:102E80004FF000007047B0FA80F310FA03F102D15E
:102E9000BDE810407047E41A173C4805C90AE2E74C
:102EA00001EB0451BDE81040704749104FEA300073
:102EB00001EB0451BDE8104002E04FF00001704703
:102EC0004A0008BF0042F8D0B2F5001F28BF704783
:102ED00001F000414FF0000070479EEA445F07D0C8
:102EE00011EA5E0FBDE8104004BF002100207047CA
:102EF000BDE8104070B5FFF7BBFE00BF40DFF63EF7
:102F0000104683F0004170470000E0FFF1EE100A28
:102F10004FF6FF71C0F2C03120EA010040F040706E
:102F2000E1EE100A704700004C5555555555A53F28
:102F30007751C1166CC156BF9015CB19A001FA3E4E
:102F4000AD529C804F7E92BEC4B1B4BD9EEE213E78
:102F5000D43888BEE9FAA8BD00004054FB21F93FEF
:102F60003163621A61B4D03D0000601A61B4D03D93
:102F70007370032E8A19A33B0000002E8A19A33B0D
:102F8000C14920259A837B39000000000000000021
:102F90006E83F9A22915444ED15727FCC0DD34F5C4
:102FA000999562DB4190433CAB6351FE61C5BBDE4A
:102FB0003A6E24B7E0D24D42EA2E49061C92D1095E
:102FC0001CEB1DFE3EA729B1F53582E88444BB2EDB
:102FD00026709CE9417E5FB439D69139F439538328
:102FE0008B5F849C3B28F9BDFF97F81F0F9805DE87
:102FF0008B112FEF1F6D0A5ACF7E366DB709CB2785
:10300000663F464F2DEA5F9EC7BA27757BF1E5EB19
:10301000F739073DEA92528AB15FFB6B085D8D1F5D
:103020004630035600000000A6F810111111813F30
:10303000D561C119A0012ABF7DFEB157E31DC73E6E
:10304000EB9C2B8AE6E55ABE7CD5CF5A3AD9E53DB2
:103050000000000000000000010203040607080948
:103060000000000001020304883000080000002076
:103070001000000000020008983000081000002036
:10308000C08400001C0200080100000010000000C5
:083090000024F400010000001F
:04000005080001C529
:00000001FF
