:020000040800F2
:10000000C80B00206D020008611B0008CD19000814
:100010005D1B0008990600080D2400080000000080
:10002000000000000000000000000000691B000844
:100030009D06000800000000651B00086D1B0008FD
:10004000870200088702000887020008870200086C
:10005000870200088702000887020008870200085C
:10006000870200088702000887020008870200084C
:10007000870200088702000887020008870200083C
:10008000870200088702000887020008870200082C
:10009000870200088702000887020008870200081C
:1000A000870200088702000887020008870200080C
:1000B00087020008870200088702000887020008FC
:1000C00087020008870200088702000887020008EC
:1000D00087020008870200088702000887020008DC
:1000E00087020008870200088702000887020008CC
:1000F00087020008870200088702000887020008BC
:1001000087020008870200088702000887020008AB
:10011000870200088702000887020008870200089B
:10012000870200088702000887020008870200088B
:10013000870200080000000000000000870200089D
:10014000870200088702000887020008870200086B
:10015000870200088702000887020008870200085B
:10016000870200088702000887020008870200084B
:1001700087020008870200088702000800000000CC
:1001800000000000870200080000000000000000DE
:10019000870200080000000000000000870200083D
:1001A00000000000000000000000000087020008BE
:1001B00087020008870200088702000887020008FB
:1001C0008702000800F002F800F041F80AA090E869
:1001D000000C82448344AAF10107DA4501D100F002
:1001E00036F8AFF2090EBAE80F0013F0010F18BF8E
:1001F000FB1A43F00103184738230000582300007E
:10020000103A24BF78C878C1FAD8520724BF30C842
:1002100030C144BF04680C60704700000023002414
:1002200000250026103A28BF78C1FBD8520728BF06
:1002300030C148BF0B607047642900F0F780002090
:1002400070471FB502F055F91FBD10B510BD00F085
:10025000E8F91146FFF7F5FF02F0DAF800F006FAC8
:1002600003B4FFF7F2FF03BC00F00EFA0948804721
:1002700009480047FEE7FEE7FEE7FEE7FEE7FEE788
:10028000FEE7FEE7FEE7FEE704480549054A064BA0
:1002900070470000251C0008C5010008C8050020A3
:1002A000C80B0020C8070020C807002053EA020C32
:1002B00000F069802DE9F04B4FF00006002B1FBFC6
:1002C000B3FA83F503FA05F424FA05F65E4012BF8B
:1002D0001643B2FA82F502FA05F4C5F120051EBFF5
:1002E00022FA05FC44EA0C04203556EA044C4FEA95
:1002F000144418BF641C4FF000084FF000099042EE
:1003000071EB030C39D3002919BFB1FA81F701FA57
:1003100007F6B0FA80F700FA07F6C7F120071EBF0C
:1003200020FA07FC46EA0C062037B6FBF4FCA7EBE4
:100330000507103F07F01F0BCBF120062CFA06F63D
:100340000CFA0BFB44BFB3460026202FA4BF5E4629
:100350004FF0000B5BEA060C08BF4FF0010B19EBE6
:100360000B0948EB0608ABFB027C06FB02CC0BFB3F
:1003700003CCC01B71EB0C01C1E70B4602464146A2
:100380004846BDE8F08B13B5084318BF4FF0FF3067
:100390000146AFF30080BDE81C4070470FB41CB5A8
:1003A000074B06AA7B4469460090059800F021F9A6
:1003B0000020694600F030F91CBC5DF814FB000019
:1003C000710200002DE9F0410E4604460020206233
:1003D0002046E168884730B3252805D0D4E90121BB
:1003E0009047206A401CF2E7E168204600278847D2
:1003F000050018D0A5F14100192802D820354FF486
:1004000000673246294620462760FFF715FF40B1B6
:10041000012804D0F61D26F007060836D8E7361D59
:10042000D6E72846DAE7206ABDE8F0812DE9F041F9
:100430000646002410687529314616A510D0AFF382
:100440000080002802DA404213A507E031688A07DD
:1004500001D512A502E0490704D511A5012401E048
:10046000AFF3008000210A2206F1240709E0B0FB67
:10047000F2FCB0FBF2F302FB1C003030785418465B
:10048000491C0028F3D123462A463046BDE8F041F6
:1004900000F051B8000000002D0000002B0000000B
:1004A0002000000010B5431C02E010F8011B71B1E0
:1004B0008107FAD14FF0013202C88C1A8C4314EA3A
:1004C000C211F9D0C01A0A0603D0C01E10BDC01A4E
:1004D00010BD0A0401D0801E10BD0902FCD0401ED0
:1004E00010BD4FF0000200B51346944696462039E1
:1004F00022BFA0E80C50A0E80C50B1F12001BFF4DD
:10050000F7AF090728BFA0E80C5048BF0CC05DF842
:1005100004EB890028BF40F8042B08BF704748BF90
:1005200020F8022B11F0804F18BF00F8012B704704
:100530007047704770472DE9F0470D46994692463F
:10054000044600F124080168880604D5E06921F01A
:100550001001216000E00120A84201DD471B00E0FE
:100560000027A1697A1902EB0900081AA061207816
:10057000C00602D42046AFF30080002608E0D4E98C
:1005800001211AF806009047206A401C761C206260
:100590004E45F4DB2078C0060AD52046AFF3008034
:1005A00006E0D4E9012130209047206A401C2062F7
:1005B000381EA7F10107F4DC07E0D4E9012118F89F
:1005C00005009047206A401C2062281EA5F1010505
:1005D000F3DC2046AFF300802078000602D502202D
:1005E000BDE8F0870120FBE701694A1C0261087839
:1005F000704700B58FB0CDE9013100210591054963
:100600007944CDE9031011466846FFF7DBFE0FB0D1
:1006100000BD0000E5FFFFFF0A6802F8010B0A6059
:100620007047754600F02CF8AE4605006946534603
:1006300020F00700854618B020B5FFF725FEBDE87D
:1006400020404FF000064FF000074FF000084FF039
:10065000000BAC46ACE8C009ACE8C009ACE8C00986
:10066000ACE8C00921F007018D46704710B504467B
:10067000AFF300802046BDE81040FFF7F1BD000059
:10068000004870471000002001491820ABBEFEE76B
:100690002600020070470000FEE7000070470000DF
:1006A000EFF3108072B600BFFEE70000B0B504465D
:1006B00000F0FCF8054640F20000C2F200000078AD
:1006C000611C18BF044400BF00F0F0F8401BA042BA
:1006D000FAD3B0BD2DE9F04F82B000F13E4241F6B1
:1006E000000502F1FF77C4F2020507224FEAB726A0
:1006F000A84208BF0622062E38BF4FEAB7224FF0A5
:10070000010A002400274FF00008009208E000BF13
:10071000023708F10108202F04F1040400F0B4802E
:100720000E680AFA08F916EA090FF1D0D1F804A008
:100730000AF0030BABF10106012E17D803228668DD
:1007400002FA07FECA6826EA0E06BA403243826001
:100750004268CAF3001522EA090205FA08F54FEAD1
:10076000480C6FEA0E062A4342600BE00322BA40AF
:10077000D643BBF1030FBC4604D1BC464FF0030B7C
:1007800022E000BFC2688D68324005FA0CF52A43AA
:10079000BBF1020FC26017D16FF0030202EA5802E8
:1007A000024404F01C030F25D2F820E005FA03FAF6
:1007B0000D692EEA0A0E05FA03F343EA0E031362EB
:1007C000D1F804A00AF0030B02680BFA0CF33240D4
:1007D0001A431AF4403F4FF0010A026098D00022F9
:1007E00043F644030192C4F202031A6843F6004E32
:1007F00042F480421A601A68C4F2010E02F4804288
:100800000192019A28F003024FF6084C7244CFF689
:10081000FF7C52F80C3004F00C060F25B540AB43BA
:10082000009D05FA06F6334342F80C30DEF8082046
:100830004B6842EA090643F60C4CDD0258BF22EA37
:100840000906CEF80860C4F2010CDCF800209D0215
:1008500042EA090658BF22EA0906CCF80060DEF831
:1008600004209D0342EA090658BF22EA0906CEF891
:100870000460DEF80020DB0342EA090658BF22EAE2
:100880000906CEF8006043E702B0BDE8F08F000033
:10089000426902EA0103914341EA034181617047E1
:1008A000002A08BF090481617047000040F2C0506F
:1008B000C2F200000068704740F2000040F2C051F0
:1008C000C2F20000C2F2000100780A681044086019
:1008D0007047000080B543F60040C4F20200016892
:1008E00041F400710160016841F4806101600168B8
:1008F00041F480710160032000F074F8002000F0E2
:1009000005F800F027F8002080BD000070B540F227
:100910000006C2F2000640F208013278C2F200017D
:100920004FF47A730968B3FBF2F20446B1FBF2F1BB
:10093000084600F08FFE0F2C4FF0010508D838B99B
:100940004FF0FF3021460022002500F01FF87460B0
:10095000284670BD82B0002043F640010190C4F2E9
:1009600002014A6842F480424A604A6802F48042C6
:100970000192019A0090086840F080500860086871
:1009800000F080500090009802B0704710B54EF60D
:100990000C5CCEF2000CDCF80030C3F3022E8EF0BB
:1009A0000704042C28BF0424BEF103034FF0FF3ECC
:1009B0000EFA04F438BF0023A14399400EFA03F362
:1009C0009A43114300F00F02043A624409010C32C9
:1009D00000F16043B0F1FF3FC8BF03F564421170FE
:1009E00010BD00004EF60C51CEF200010A684FF621
:1009F000FF031A4060F30A2242F0806040F0FD706D
:100A00000860704701220168C0F80025002280F8C4
:100A1000F424886940F000608861486D40F080509F
:100A200040F0030200204A65704700002DE9F04FB6
:100A30008BB0002800F086800446056890F8BD045D
:100A400028B9002084F8BC04204600F093F8032065
:100A500084F8BD04E86BC0055CBF002020612068FD
:100A600001F09AFC206804F11C0A0A90D4E90C50A9
:100A700004F1040E9AE8C0079EE80E58CDE908502C
:100A800003A880E8C0030A988DE80058CDF81CA0A0
:100A900001F044F9002852D120680021002501F01E
:100AA00083FC616861B301200023002203EBC303D0
:100AB00004EB830787F83C20D3B20132A7F8443017
:100AC000D3B2994287F83D0087F84050C7E91255E4
:100AD0007D65EBD800200023002200BF03EBC30399
:100AE00004EB830787F87C220132D3B2994287F85E
:100AF0007D0287F88002C7E9A200C7F89402EDD80A
:100B0000A06822680A90D4E90C5004F1140E04F194
:100B1000240AD4E903379EE840589AE80007CDE953
:100B2000085002A880E8005810460A9ACDE90076DD
:100B3000CDE90589CDF81CA001F0F0F930B1022013
:100B400084F8BD0401200BB0BDE8F08F002084F8CC
:100B50003800012084F8BD04606A012802D12046D3
:100B6000FFF750FF206801F0C9F900200BB0BDE885
:100B7000F08F0000F0B59DB0044601A80430582164
:100B8000FFF7AFFC2068B0F1A04F01D01DB0F0BD61
:100B90004FF48070019001A800F03EF8002818BFC3
:100BA000FFF77EFD002743F630061897C4F20206D1
:100BB0003068002440F0010030603068C4F2020464
:100BC00000F00100189018984FF4E8501890022097
:100BD000CDE9190703201B900A2018AD1C90204670
:100BE0002946FFF777FD4FF40070CDE9180720463E
:100BF00029461A97FFF76EFD706840F0800070601C
:100C00000097706940F480407061706900F4804022
:100C1000009000981DB0F0BD2DE9F04381B004466E
:100C2000006843F68C06C107C4F2020604D14FF0F7
:100C3000000981070CD415E03168A26B21F0C06176
:100C400011433160B2FA82F14FEA5119810709D597
:100C50003168E26B21F0C05111433160002A08BFB6
:100C60004FF00109410705D44FF00008010712D4E5
:100C700020E000BF3168226B21F440111143316044
:100C8000B2FA82F14FEA5118B2F5801F08BF4FF057
:100C9000010901070ED53168626B21F4400111434F
:100CA000B2F5800F316008BF4FF00109002A08BF7C
:100CB0004FF0010881065AD50020009056F84C0CE0
:100CC00047F2000740F0805046F84C0C56F84C0CA8
:100CD000C4F2000700F0805000900098386840F49B
:100CE00080703860FFF7E2FD054600BF3868C00538
:100CF00006D4FFF7DBFD401B0228F7D93CE100BF1B
:100D000056F81C0C10F4407017D0216C01F440719F
:100D1000884212D056F81C0C40F64061C4F24721BC
:100D2000012220F440700A6000220A6046F81C0C80
:100D300056F81C0CC00740F075812068216C56F8ED
:100D4000842C4FF6FF4701F4407322F4F812C0F6EA
:100D5000FF770F40B3F5407F08BF3A4346F8842C35
:100D600056F81C2C6FF31F31114346F81C1CC106AA
:100D70000AD4010613D4410619D4C1051FD4810534
:100D80002AD4410530D438E094F8580040F6406148
:100D9000C4F24721C1F8A00320680106EBD5B16871
:100DA000E26C21F440011143B1604106E5D5B16820
:100DB000A26C21F080611143B160C105DFD5B1683B
:100DC000626D21F000611143B160B2F1006F08BFA4
:100DD0004FF001088105D4D5B168626C21F08051D3
:100DE0001143B160410508D5B168226D21F0005171
:100DF0001143B2F1005FB1601ED0B9F1000F1BD1F9
:100E0000B0F5006F18D0B8F1000F4FF0000000F0FF
:100E10001B816827C4F24727B860FFF747FD0546E6
:100E200056F88C0C800040F1AB80FFF73FFD401B73
:100E30000228F5D9A0E000BF40F26809C4F24729B2
:100E40000020C9F80000FFF731FD054656F88C0C6C
:100E5000000105D5FFF72AFD401B0228F6D98BE0DB
:100E60002068C10701D0A16B19B1810714D5E16BCE
:100E700091B956F8081C56F8082CD4E9013501F44C
:100E8000403102F0706219436769114341EA8511EC
:100E900041EA077146F8081C410703D5216BB1F5FB
:100EA000801F05D001071FD5616BB1F5800F1BD1E5
:100EB00056F8081C56F8082CD4E9013701F44031E3
:100EC00002F0E04219432569114341EA871141EAE2
:100ED0000561D4F828C046F8081C3168ACF101025D
:100EE00021F01F0111433160410520D5216DB1F181
:100EF000005F1CD156F808CC56F8082CE568002194
:100F0000CFF6FF71D4E9013701EBC5314FF0C06571
:100F100002F0E04205EA4C2505F100751A432A4328
:100F20006FF30F0142EA8712114346F8081C0005CF
:100F300011D5271D8FCF40EA81100021CFF6FF7118
:100F400001EBC2316FF30F0140EA0360084340EA4E
:100F5000077046F8080C0120C9F80000FFF7A6FC4E
:100F6000054600BF56F88C0C00013FF54CAFFFF76B
:100F70009DFC401B0228F5D9032001B0BDE8F08399
:100F80002068410701D5216B19B101071AD5616BA2
:100F9000C1B956F8041CD4E9062301F44031656A4E
:100FA000114341EA831141EA0561D4F82CC046F8A7
:100FB000041C31686FF0FF0221F4F85102EB0C229F
:100FC00011433160C00517D5606DB0F1006F13D1CA
:100FD00056F8040C04F118030ECB002500F07060E5
:100FE000CFF6FF7505EBC33308436FF30F0340EAF9
:100FF0008210184346F8040C0120B860FFF756FC35
:10100000044600BF56F88C0C800007D4FFF74EFC56
:10101000001B0328F6D3032016E000BF002001B018
:10102000BDE8F083FFF742FC054641F2883700BF78
:1010300056F81C0C80073FF580AEFFF737FC401BCD
:10104000B8424FF00300F3D901B0BDE8F0830000CF
:101050002DE9F041002800F08B8043F60808C4F227
:1010600002080446D8F8F8030D4600F00F00884245
:1010700007D288F8F853D8F8F80300F00F00A84218
:1010800076D12068810717D5410705D5D8F800101B
:1010900041F4E051C8F80010010705D5D8F8001058
:1010A00041F46041C8F80010D8F80010A26821F09F
:1010B000F0011143C8F80010C0073FD1D8F8F80379
:1010C00000F00F00A84207D988F8F853D8F8F803C1
:1010D00000F00F00A8424BD12068410707D5D8F88F
:1010E0000010E26821F4E0511143C8F80010000735
:1010F00008D5D8F80000216920F4604040EAC1001A
:10110000C8F8000000F07CF8D8F8001042F20C5249
:10111000C1F30311C0F60002515C40F2080220FA4C
:1011200001F140F20400C2F200000068C2F20002C5
:101130001160FFF7EBFB0020BDE8F0816068811EC5
:10114000022907D258F8081C89015CBF0120BDE8BC
:10115000F08111E0012807D158F8081C89035CBF11
:101160000120BDE8F08107E058F8081C890703D486
:101170000120BDE8F08100BFD8F8001021F0030184
:101180000843C8F80000FFF791FB064641F2883794
:10119000D8F80000616800F00C00B0EB810F8DD032
:1011A000FFF784FB801BB842F2D90320BDE8F08131
:1011B00040F2080043F60801C2F20000C4F2020146
:1011C0000068096842F21C52C1F38221C0F6000295
:1011D000515CC8407047000040F2080043F6080127
:1011E000C2F20000C4F202010068096842F21C5217
:1011F000C1F34231C0F60002515CC84070470000A4
:1012000010B543F60404C4F202046068C0F381011F
:1012100042F20040C0F2F400DFE801F04402081896
:1012200041F20020C0F27A0010BD00BF216801F039
:101230003F02216823684902C3F3881116D4A1FB39
:1012400000010023FFF732F817E000BF216801F02A
:101250003F02216823684902C3F3881116D4A1FB19
:1012600000010023FFF722F817E000BF41F2002041
:10127000C0F27A004843B0FBF2F021680222C1F3C9
:10128000014102EB4101B0FBF1F010BD41F2002041
:10129000C0F27A004843B0FBF2F02168C1F302715A
:1012A000B0FBF1F010BD00002DE9F04182B0002844
:1012B00000F096800446007843F60006C007C4F2AA
:1012C00002062BD0B06800F00C00042820D0B068D3
:1012D00000F00C00082802D17068400218D4B068F1
:1012E00000F00C000C2802D17068400210D4606835
:1012F000B0F5803F07D0B0F5A02F40F03B813068BB
:1013000040F480203060306840F4803030603BE151
:101310003068800302D56068002861D0207880079B
:1013200022D5B06810F00C0F11D0B06800F00C009E
:10133000082802D17068400209D5B06800F00C009E
:101340000C2840F09F807068400200F19B8030685C
:10135000800702D5E068012842D13068216920F079
:10136000F80040EAC1003060207800073CD42078C3
:10137000400751D4A5698DB3B06800F00C0008286F
:1013800040F0A880012D2BD07068E16900F4800244
:101390008A4225D1216A00F03F028A4220D147F6D5
:1013A000C071626A0140B1EB821F19D1A26A0023A9
:1013B000CFF6FF7303EBC23200F440316FF30F023C
:1013C00091420DD1E16A00F07062B2EB016F07D17A
:1013D000216B00F0E040B0EB017F01D1002035E14E
:1013E000012002B0BDE8F0816069002840F20000F1
:1013F000C4F247205ED00121C0F8801EFFF756FAE4
:10140000054600BF706F8007B1D4FFF74FFA401B4D
:101410000228F7D9C5E000BF306C10F080580AD11F
:1014200000200190306C40F080503064306C00F04F
:1014300080500190019847F20007C4F20007386815
:10144000C00511D4386840F480703860FFF72EFA78
:10145000054600BF3868C00506D4FFF727FA401BD1
:101460000228F7D99DE000BFA068012805D0052813
:1014700052D1306F40F004003067306F40F001000F
:10148000306753E0E068002860D00020C4F24720B5
:1014900001210160FFF70AFA054600BF30688007A6
:1014A0003FF55BAFFFF702FA401B02284FF0030045
:1014B000F4D9CBE00021C0F8801EFFF7F7F905460C
:1014C000706F80077FF553AFFFF7F0F9401B0228DC
:1014D000F6D966E00027C4F2472700203866FFF7F8
:1014E000E5F9022D05460BD1306880015ED5FFF786
:1014F000DDF9401B02284FF00300F5D9A6E000BF3C
:10150000306880017FF56AAFFFF7D0F9401B0228F1
:101510004FF00300F4D999E0316F002821F0010168
:101520003167316F21F00401316765D0FFF7BEF9F3
:10153000054641F2883700BF306F80076ED4FFF751
:10154000B5F9401BB842F7D92BE000BF0020C4F228
:10155000472000210160FFF7A9F9054630688007A0
:101560007FF502AFFFF7A2F9401B02284FF00300FE
:10157000F4D96BE03168002821F4803131603168A2
:1015800021F48021316053D0FFF790F9054600BF68
:10159000306880033FF5C2AEFFF788F9401B64282E
:1015A000F6D9032002B0BDE8F08100BF04F11C05AC
:1015B0002FCD246B08430021CFF6FF7140EA821043
:1015C00001EBC3316FF30F0140EA0560084340EAC5
:1015D0000470706001203866FFF768F9044600BFA8
:1015E000306880013FF5FAAEFFF760F9001B022872
:1015F0004FF00300F4D929E0FFF758F9054641F20E
:10160000883700BF306F800708D5FFF74FF9401BC0
:10161000B8424FF00300F5D918E000BFB8F1000F51
:101620007FF4A8AE306C20F080503064A2E600BF9A
:10163000FFF73CF90546306880037FF56FAEFFF792
:1016400035F9401B64284FF00300F4D902B0BDE81F
:10165000F0810000411E0020B0EB116F1CBF012083
:1016600070474EF21002CEF2000251604EF6235146
:10167000CEF20001F0230B700721906011607047DB
:10168000002804BF0120704710B5044690F83D00C3
:1016900028B9002084F83C00204600F021F82420DE
:1016A00084F83D002068C16821F40051C1602046E3
:1016B00000F0C2FA2068016921F49041016141699A
:1016C00021F02A014161C16841F40051C16000204C
:1016D0002021206484F83D1084F83E1010BD0000E5
:1016E00080B586B0016844F60000C4F20000814273
:1016F00002D006B080BD00BF002143F63002019148
:10170000C4F20202136900F5E23043F4802313614E
:10171000136903F480230193019B0191136843F043
:1017200008031360126802F008020192019A4FF454
:10173000407201920222CDE9022103210491072186
:10174000059101A9FEF7C6FF06B080BD2DE9F04363
:1017500081B0044690F83D0020280DD10F460029A5
:101760004FF0010000F0DD801646002A00F0D9801D
:1017700094F83C00012803D1022001B0BDE8F083B9
:10178000012084F83C004FF0000921201D46C4F8D8
:10179000409084F83D00FFF789F8A684E684A168AC
:1017A0000646B1F5805F07D1206900281CBF384686
:1017B0004F46B846074601E04FF0000884F83C90D9
:1017C000E18C2068002900F08B8005F101090AE016
:1017D00047B317F8011B4160E18C0139E184E18CCA
:1017E000002900F07D8001680906F1D4B9F1000FED
:1017F0000AD0EDB1FFF75AF8801BA84218D820682C
:1018000001680906F6D5E3E701680906E0D4016836
:1018100009065CBF01685FEA0161D9D40168090665
:10182000F2D5D5E738F8021B00276FF35F21D2E726
:10183000206850E8030F216820F4D07041E80302CB
:10184000BAB3206850E8030F216820F4D07041E853
:10185000030272B3206850E8030F216820F4D070AF
:1018600041E803022AB3206850E8030F216820F4FE
:10187000D07041E80302002ADAD11AE0206850E86B
:10188000050F216820F0010041E80502DAB1206867
:1018900050E8050F216820F0010041E8050292B1EF
:1018A000206850E8050F216820F0010041E805029A
:1018B0004AB1206850E8050F216820F0010041E896
:1018C0000502002ADAD1202084F83D0084F83E0089
:1018D000002084F83C00032001B0BDE8F08300BF85
:1018E0000168490619D4FDB1691C0DD1016849068A
:1018F00013D4016849065CBF01685FEA41610CD4FA
:1019000001684906F2D508E0FEF7D0FF801BA84227
:101910000AD8206800684006F6D5202084F83D00EB
:10192000002001B0BDE8F083206850E8030F216873
:1019300020F4D07041E80302E2B3206850E8030FBE
:10194000216820F4D07041E803029AB3206850E87F
:10195000030F216820F4D07041E8030252B32068DD
:1019600050E8030F216820F4D07041E80302002AF8
:10197000DAD11FE0206850E8050F216820F001004F
:1019800041E80502002A9ED0206850E8050F216832
:1019900020F0010041E80502002A3FF494AF2068DE
:1019A00050E8050F216820F0010041E80502002AF7
:1019B0003FF489AF206850E8050F216820F001004E
:1019C00041E80502002AD5D17DE70000FEE70000CE
:1019D0002DE9F04786B0002743F63000CDE90477C3
:1019E0000097C4F20200016841F6000A41F00401C8
:1019F00001600168C4F2020A01F00401009100993B
:101A000000970168AAF5A05541F0800101600168C6
:101A1000002201F08001009100990097016844F2D2
:101A2000810841F002010160016801F002010091AA
:101A300000990097016841F008010160016801F018
:101A40000801009100990097016841F04001016090
:101A5000016801F04001009100990097016841F090
:101A600001010160006844F2810100F00100009072
:101A700000982846FEF714FF5046402100224FF000
:101A80004009FEF70DFF4FF4005001904FF488100D
:101A900001AECDE90207AAF580503146FEF71AFEE5
:101AA000012428463146CDF80480CDE90247049749
:101AB000FEF710FE50463146CDE90194CDE903779B
:101AC000FEF708FE8020CDE9010750463146039716
:101AD000FEF700FE06B0BDE8F087000080B540F2DA
:101AE0007C5044F60001C2F20000C4F20001002361
:101AF0004FF00C0C4FF4164280E80E00C0E903339F
:101B0000C0E905C3C361FFF7BBFD002808BF80BD66
:101B1000EFF3108072B600BFFEE7000080B540F220
:101B20007000C2F200004FF0A0410622C0E900128E
:101B3000022100220123C0E90312C0E90613C0E913
:101B40000822C0E90B32FEF771FF002808BF80BDF4
:101B5000EFF3108072B600BFFEE70000FEE7000062
:101B6000FEE700007047000070470000FEF7A4BECB
:101B7000B0B594B0002443F64000CDE90B44CDE964
:101B800009440694CDE90444CDE902440194C4F229
:101B900002000168022541F080510160006800F0F8
:101BA00080500190019847F200000194C4F20000B7
:101BB000016841F440410160006800F44040019038
:101BC0000198012007904FF4A02008904FF4800066
:101BD0000E9004200F90A820CDE910050720CDE934
:101BE000120507A80D95FFF75FFB28B1EFF31080F2
:101BF00072B600BFFEE700BF0F20CDE902054FF42B
:101C0000A05005904FF48050069002A8052104943E
:101C1000FFF71EFA20B1EFF3108072B6FEE700BFA7
:101C200014B0B0BD4EF68850CEF20000016841F409
:101C3000700101607047000010B504460068D4E9E7
:101C400002C22369016921F44051114301616269B3
:101C500043EA0C01E3691143C268194349F20C637A
:101C60009A431143C1604169A26921F4407141F274
:101C70000043114340F48062C4F201039A4241617F
:101C800002D1FFF7A9FA01E0FFF792FAE169636870
:101C90001922B1F5004FA0FB02011FD15A00DB0F42
:101CA000FEF704FB48F21F51C5F2EB11A0FB012324
:101CB0005A096FF0630302FB0300322303EBC000F9
:101CC000A0FB01014FF4F87000EA111000EB0210C4
:101CD000C1F3421108442168886010BD9A009B0F2F
:101CE000FEF7E4FA48F21F51C5F2EB11A0FB012305
:101CF0005A096FF0630302FB0300322303EB001069
:101D0000A0FB0101F02000EA511000EB0210C1F32A
:101D1000431108442168886010BD000082B0049916
:101D2000DDF808C0012940F64051C0F203016FD12F
:101D3000826B4FF6BF7322F480328263C268CFF6A3
:101D4000BD731A40C260C2680B9B22F44012012B83
:101D5000C26003D1C26842F48012C26000220092C5
:101D6000009A01320092009A8A4200F2A980026928
:101D7000002A1ED4009A01320092009A8A4200F290
:101D80009F800269002A14D4009A01320092009ABE
:101D90008A4200F295800269002A0AD4009A013230
:101DA0000092009A8A4200F28B800269B2F1FF3FF2
:101DB000D6DC00220092026942F001020261009A20
:101DC00001320092009A8A427AD80269D2071AD068
:101DD000009A01320092009A8A4271D80269D207B1
:101DE00011D0009A01320092009A8A4268D80269A2
:101DF000D20708D0009A01320092009A8A425FD836
:101E00000269D207DBD10021BCF1010F72D169E078
:101E1000C268089B42F04002C26000220192019A0F
:101E200001320192019A8A4250D80269002A1BD4D9
:101E3000019A01320192019A8A4247D80269002A26
:101E400012D4019A01320192019A8A423ED8026963
:101E5000002A09D4019A01320192019A8A4235D8A6
:101E60000269B2F1FF3FDADC00220192026942F01E
:101E700001020261019A01320192019A8A4225D837
:101E80000269D2071AD0019A01320192019A8A425C
:101E90001CD80269D20711D0019A01320192019A2D
:101EA0008A4213D80269D20708D0019A01320192FE
:101EB000019A8A420AD80269D207DBD1002106E0E2
:101EC0000321BCF1010F15D10CE000BF0321826B8F
:101ED000002B14BF22F4803242F480328263BCF1C2
:101EE000010F07D1826842F006028260826842F0E8
:101EF00020028260084602B0704700000146D0F818
:101F0000000E20F00300C1F8000ED1F8040840F0E4
:101F100002020020C1F80428704700002DE9F04FAC
:101F200083B0DDF84CE00E9F0022BEF1000FC0F838
:101F30000421C0F80821C0F80C21C0F81021C0F815
:101F40001421C0F81821C0F81C21C0F82021C0F8C5
:101F50002421C0F82821C0F82C21C0F83021C0F875
:101F60003421C0F83821C0F83C2107D0826B00F53D
:101F7000006A42F40012826314E000BFD0F8042823
:101F800000F5006A42F00202C0F80428826B22F4D5
:101F900000128263026842F040020260066846F066
:101FA000800606600026C0F8006EDAF80060012F97
:101FB000CAF8006006D1DAF80070002B18BF47F0AD
:101FC000010703E0DAF8003043F00307DDF8309052
:101FD000DDF83C8040F64055C0F203050023CAF806
:101FE00000700193019B01330193019BAB4249D8DF
:101FF0000369002B1BD4019B01330193019BAB426E
:1020000040D80369002B12D4019B01330193019B3B
:10201000AB4237D80369002B09D4019B01330193EC
:10202000019BAB422ED80369B3F1FF3FDADC0023FA
:1020300001934FF484630361019B01330193019B7E
:10204000AB421FD803699B061AD5019B013301934C
:10205000019BAB4216D803699B0611D5019B013346
:102060000193019BAB420DD803699B0608D5019BE8
:1020700001330193019BAB4204D803699B06DBD477
:10208000002400E0012400230293029B0133029309
:10209000029BAB4248D80369002B1BD4029B01333F
:1020A0000293029BAB423FD80369002B12D4029BE0
:1020B00001330293029BAB4236D80369002B09D44B
:1020C000029B01330293029BAB422DD80369B3F10B
:1020D000FF3FDADC0023029310230361029B0133EC
:1020E0000293029BAB421FD80369DB061DD5029BFE
:1020F00001330293029BAB4216D80369DB0614D569
:10210000029B01330293029BAB420DD80369DB06AD
:102110000BD5029B01330293029BAB4204D80369A7
:10212000DB06DBD401E000BF01244FF0000B0029E7
:10213000CAF810B0CAF814B0CAF81CB000F0FE809B
:1021400000F510673B684FF0006505EA13134FF682
:102150007F324E1E3B60C7F810B0BA6073D08B1E42
:10216000032B06F00302009404D22024002A42D15B
:1021700062E000BF26F003034FF0000E4FF09048DE
:102180004FF67F3C4FF0000900EB0904D4F82059CA
:10219000043B08EAE575C4F82059C4F830E9C4F8EE
:1021A00028C9D4F8405909F1800908EAE575C4F84E
:1021B0004059C4F850E9C4F848C9D4F8605908EA4D
:1021C000E575C4F86059C4F870E9C4F868C9D4F872
:1021D000805908EAE575C4F88059C4F890E9C4F854
:1021E00088C9D1D109F12004DDF84CE0DDF83C804C
:1021F000DDF8309002B33D594FF0904C0CEAE57594
:102200003B193D5100244FF67F37012A1C619F6026
:1022100012D01D6A022A0CEAE5751D621C639F62DA
:102220000AD01F6C4FF0904505EAE7771F6400273E
:102230001F654FF67F379F64009C00294FF67F3261
:102240004FF000657AD0D0F8003B002E05EA13135A
:10225000C0F8003B4FF00003C0F8103BC0F8082B5B
:102260006CD00239032906F0030C05D22023BCF1FF
:10227000000F3ED162E000BF009426F00303002768
:102280004FF090464FF67F34002100BF4518D5F837
:10229000202B043B06EAE272C5F8202BC5F8307B00
:1022A000C5F8284BD5F8402B01F1800106EAE2720F
:1022B000C5F8402BC5F8507BC5F8484BD5F8602BC6
:1022C00006EAE272C5F8602BC5F8707BC5F8684B6A
:1022D000D5F8802B06EAE272C5F8802BC5F8907B12
:1022E000C5F8884BD2D1009C01F12003BCF1000F4E
:1022F00024D000F53062D6584FF0904707EAE676D2
:10230000D118D65000264FF67F33BCF1010F0E6175
:102310008B6013D00A6ABCF1020F07EAE2720A620C
:102320000E638B620AD00A6C4FF0904303EAE272AC
:102330000A6400220A654FF67F328A64DAF81010C8
:10234000B9F1000F21F48071CAF810106FF08041CC
:10235000C0F818B0416103D1816941F01001816179
:10236000816943F60002C8F23C021143B8F1000F44
:10237000816103D0816941F008018161BEF1010FE3
:1023800005D1816941F0804141F00401816120461D
:1023900003B0BDE8F08F00000146806820F0010224
:1023A00000208A6070470000B0B50446C06820F085
:1023B000C040E06091B1012926D1E068002540F0DD
:1023C0000050E0600120FEF771F96069C00705F177
:1023D000010014D1312D0546F4D310E0E06800254A
:1023E00040F08040E06000BF0120FEF75FF96069C7
:1023F000C00705F1010002D0312D0546F4D3323873
:10240000B0FA80F04009B0BD0120B0BDFEE7000089
:10241000B2B040F20044C4F20204FEF75BFAFFF7E8
:10242000A7FBFFF7D5FAFFF759FBFFF777FB224829
:102430000DF1680C199020A0071DD0E905608ECF22
:10244000CDE91E6019A88CE88E0000F043F842F236
:102450002455C0F600056E46304629460022FDF799
:102460009DFF012720468021FEF712FA4FF4FA70F3
:10247000FEF71CF920460121FEF70AFA4FF4FA7024
:10248000FEF714F920460121FEF702FA4FF4FA7024
:10249000FEF70CF920460121FEF7FAF94FF4FA7025
:1024A000FEF704F9304600F015F8304629463A4662
:1024B000FDF774FF0137D5E75072696E74696E6776
:1024C00020746573742C206265666F7265206D617F
:1024D000696E0A0010B50446FDF7E4FF82B240F2CF
:1024E0007C50C2F2000021466423BDE81040FFF793
:1024F0002DB9F1EE100A4FF6FF71C0F2C03120EA9B
:10250000010040F04070E1EE100A7047000000004A
:102510000000000001020304060708090000000093
:10252000010203044C6F6F702025640A0000000054
:1025300050250008000000201000000000020008E4
:102540006025000810000020B80B00001C020008E5
:1025500001000000100000000024F4000000000052
:04000005080001C529
:00000001FF
