:020000040800F2
:10000000200C0020650200080D1F0008391C0008A4
:10001000091F00085D040008B9270008000000005F
:10002000000000000000000000000000151F000894
:100030006104000800000000111F0008191F0008DB
:100040007F0200087F0200087F0200087F0200088C
:100050007F0200087F0200087F0200087F0200087C
:100060007F0200087F0200086D0400087F0200087C
:100070007F0200087F0200087F0200087F0200085C
:100080007F0200087F0200087F0200087F0200084C
:100090007F0200087F0200087F0200087504000844
:1000A0007F0200087F0200087F0200087F0200082C
:1000B0007F0200087F0200087F0200087F0200081C
:1000C0007F0200087F0200087F0200087F0200080C
:1000D0007F0200087F0200087F0200087F020008FC
:1000E000650400087F0200087F0200087F02000804
:1000F0007F0200087F0200087F0200087F020008DC
:100100007F0200087F0200087F0200087F020008CB
:100110007F0200087F0200087F0200087F020008BB
:100120007F0200087F0200087F0200087F020008AB
:100130007F02000800000000000000007F020008AD
:100140007F0200087F0200087F0200087F0200088B
:100150007F0200087F0200087F0200087F0200087B
:100160007F0200087F0200087F0200087F0200086B
:100170007F0200087F0200087F02000800000000E4
:10018000000000007F0200080000000000000000E6
:100190007F02000800000000000000007F0200084D
:1001A0000000000000000000000000007F020008C6
:1001B0007F0200087F0200087F0200087F0200081B
:1001C0007F02000800F002F800F03CF80AA090E876
:1001D000000C82448344AAF10107DA4501D100F002
:1001E00031F8AFF2090EBAE80F0013F0010F18BF93
:1001F000FB1A43F001031847642600008426000020
:10020000103A24BF78C878C1FAD8520724BF30C842
:1002100030C144BF04680C60704700000023002414
:1002200000250026103A28BF78C1FBD8520728BF06
:1002300030C148BF0B6070471FB502F0F6FA1FBD12
:1002400010B510BD00F0D0F81146FFF7F5FF02F031
:10025000B5FA00F0EEF803B4FFF7F2FF03BC00F0CC
:10026000F5F800000948804709480047FEE7FEE727
:10027000FEE7FEE7FEE7FEE7FEE7FEE7FEE7FEE756
:1002800004480549054A064B70470000D11F000885
:10029000C501000820060020200C002020080020B6
:1002A0002008002053EA020C00F069802DE9F04B91
:1002B0004FF00006002B1FBFB3FA83F503FA05F4D5
:1002C00024FA05F65E4012BF1643B2FA82F502FA2E
:1002D00005F4C5F120051EBF22FA05FC44EA0C0412
:1002E000203556EA044C4FEA144418BF641C4FF002
:1002F00000084FF00009904271EB030C39D300293C
:1003000019BFB1FA81F701FA07F6B0FA80F700FADF
:1003100007F6C7F120071EBF20FA07FC46EA0C06C5
:100320002037B6FBF4FCA7EB0507103F07F01F0BC7
:10033000CBF120062CFA06F60CFA0BFB44BFB346B1
:100340000026202FA4BF5E464FF0000B5BEA060C90
:1003500008BF4FF0010B19EB0B0948EB0608ABFB8C
:10036000027C06FB02CC0BFB03CCC01B71EB0C0127
:10037000C1E70B46024641464846BDE8F08B13B53F
:10038000084318BF4FF0FF300146AFF30080BDE8CF
:100390001C4070474FF0000200B513469446964645
:1003A000203922BFA0E80C50A0E80C50B1F1200188
:1003B000BFF4F7AF090728BFA0E80C5048BF0CC036
:1003C0005DF804EB890028BF40F8042B08BF704794
:1003D00048BF20F8022B11F0804F18BF00F8012B06
:1003E0007047704770477047754600F02BF8AE466F
:1003F00005006946534620F00700854618B020B531
:10040000FFF73EFFBDE820404FF000064FF0000729
:100410004FF000084FF0000BAC46ACE8C009ACE868
:10042000C009ACE8C009ACE8C00921F007018D465D
:10043000704710B50446AFF300802046BDE8104079
:10044000FFF709BF0048704710000020014918203D
:10045000ABBEFEE72600020070470000FEE700008A
:10046000704700004FF4005000F096BB102000F0E1
:1004700093BB000080B5202000F08EFB402000F0F0
:100480008BFB8020BDE8804000F086BBEFF310803E
:1004900072B600BFFEE7000070B581B00022009286
:1004A00090F83C20012A03D10221084601B070BD1A
:1004B0000E6801220A2E80F83C2009D3B2B2520005
:1004C000D0F800E012FA86F21E3A0EF10C0305E0B5
:1004D000D0F800E006EB46020EF110034FF0070CD7
:1004E0001D680CFA02F4A5431D608D681C6805FAAE
:1004F00002F222431A604968062905D801EB8101FE
:1005000005390EF1340309E00C2901EB810187BFA5
:1005100041390EF12C0323390EF130031F221C68E0
:100520008A4024EA020242F2043C1A60C4F2010C3E
:10053000B2B21C6802FA01F1ACF541722143964552
:10054000196005D0002180F83C10084601B070BD4C
:100550001221112EC1F2000118BF8E423AD1DCF8EF
:1005600000208E4222F48002CCF80020DCF800202B
:1005700042F40002CCF80020E4D140F20801C2F2BB
:10058000000109684DF68362C4F21B32A1FB02121E
:10059000910C01EB81014900009100990029D1D013
:1005A00000990139009100990029CBD000990139B7
:1005B000009100990029C5D0009901390091009956
:1005C0000029BFD000990139009100990029E7D195
:1005D000B8E700BF122EB5D1DCF8001021F40001FD
:1005E000CCF80010DCF8001041F48001CCF80010C9
:1005F000A8E700000068C06C70470000002804BF36
:100600000120704710B50446006C00283ED0206CD5
:10061000C00645D4206C41F202118843023042F2F8
:1006200004312064C4F20101086820F440300860FD
:100630000A6894E809101A43D4F810E00A60416887
:10064000012321F4807141604168C0F6007341EAE2
:100650000E214160416821F040714160416841EAEA
:100660000C014160816821F400618160E168826869
:1006700011438160A16A8268994222F070628260AF
:10068000826813D122F0405119E000BF204600F0EB
:1006900065F80020606484F83C00206CC006B9D581
:1006A0000120002184F83C1010BD00BF114381607F
:1006B000816821F040518160E16A82681143816064
:1006C000816821F0020181608168227E94F82030E7
:1006D00041EA42018160416883B141F400614160B7
:1006E00041684EF2000221F460414160616ACFF638
:1006F000FF72436802EB4131194301E021F40061CC
:100700004160C16A40F2000C21F47001C162E269EB
:100710006169CFF6F07CC36A0CEB02521A43C262E5
:10072000826822F40072826094F83020836843EA81
:1007300042228260826822F480628260826842EA99
:100740008121816000206064216C012262F301013B
:100750002164002184F83C1010BD000080B586B0F3
:1007600042F200210068C4F2010100228842059291
:10077000049201D006B080BD43F630000092C4F26E
:100780000200436943F480634361436903F4806377
:100790000093009B0092036843F02003036000680D
:1007A00000F0200000900098202001900320CDE967
:1007B000020201F5724001A900F0FAF906B080BD0D
:1007C00070B5044600680D468268520544BF8068D3
:1007D0005FEAC05038D400F0CFFA21680A68920767
:1007E00049D40646681C3CD0DDB90868800721D58D
:1007F000086880073FD4086880071BD50868800711
:1008000039D40868800715D50868800733D408688C
:1008100080070FD508688007E7D52CE008688007B7
:1008200029D400F0A9FA801B2168A842F6D90868EB
:100830008007F3D4206C40F004002064002084F88A
:100840003C00032070BD00BF206C40F020002064FD
:10085000002084F83C00012070BD00BF08688007BC
:1008600009D40868800706D4086880075CBF086858
:100870005FEA8070F2D56FF012000860206C40F4DF
:1008800000702064886810F0405F01D1207E08B1BC
:10089000002070BDC86A10F4700F02D0886840054F
:1008A000F6D4206C20F480702064206CC004EFD457
:1008B000206C40F001002064002070BD10B581B0B4
:1008C0000021009190F83C10012903D1022001B0D1
:1008D00010BD00BF0468012180F83C10214651F88A
:1008E000083FDB0729D10B684DF6836243F0010313
:1008F0000B6040F20803C2F200031B68C4F21B3213
:10090000A3FB02239A0C02EB42020092009AA2B1CE
:10091000009A013A0092009A7AB1009A013A009244
:10092000009A52B1009A013A0092009A2AB1009AB4
:10093000013A0092009A002AEAD10A68036CD207B1
:100940000AD143F01001016400F1440101200A685A
:100950001043086056E000BF40F2017223EA020231
:1009600002F5807202646268520504D5026C0123AC
:1009700063F30D320264026C4FF0000E0023D204C8
:1009800044BF426C22F0060342F2043C436480F808
:100990003CE06FF02200C4F2010C2060DCF80000A3
:1009A000C0060DD0ACF5417084422BD14FF60450F7
:1009B000CFF6FF705CF8000010F0405F22D125E018
:1009C00042F20000C4F20100844217D042F200203B
:1009D000C4F2010084420DD042F20010C4F20100C2
:1009E00084420FD1DCF80000C00607D0ACF582705D
:1009F000844207D1DCF80000C00603D4086810F078
:100A0000405F03D0002001B010BD00BF4FF0804018
:100A10009DE7000010B54379012B4FF002031DD074
:100A20000371036802F0100ED3F800C0D1E9004151
:100A300040F6FE7202FA0EF221432CEA020201FA9B
:100A40000EF111431960C0211A6801FA0EF122EA71
:100A5000010119600121002301714371184610BD85
:100A6000002804BF0120704710B50446007920B962
:100A700000206071204600F007F80220207100205D
:100A800001212061217110BD80B586B047F200417F
:100A90000068C4F20001002288420592049201D04D
:100AA00006B080BD43F630000092C4F20200036934
:100AB00043F000530361036903F000530093009B6C
:100AC0000092036843F001030360006800F0010036
:100AD00000900098102001900320CDE9020201F55A
:100AE000C63001A900F064F806B080BD81B04FF0B7
:100AF000000CCDF800C00068002900900098104458
:100B000014BF143008300090009900200B6001B031
:100B10007047000010B54279012A4FF0020223D03D
:100B20000271026801F0100E4FF0010C14680CFA0B
:100B30000EF323431360D2F800C049B13C230CF4F8
:100B4000701103FA0EF399420AD1022105E000BFA9
:100B50000CF03C013C2903D1012153681943516039
:100B60000121002201714271104610BDB0B504464A
:100B700000F002F9054640F20000C2F200000078E1
:100B8000611C18BF044400BF00F0F6F8401BA042EF
:100B9000FAD3B0BD7047000043F61441C4F201011E
:100BA0000A68024214BF08607047FFF7F3BF0000F5
:100BB0002DE9F04F82B000F13E4241F6000502F10E
:100BC000FF77C4F2020507224FEAB726A84208BF02
:100BD0000622062E38BF4FEAB7224FF0010A002442
:100BE00000274FF00008009208E000BF023708F12C
:100BF0000108202F04F1040400F0B4800E680AFA02
:100C000008F916EA090FF1D0D1F804A00AF0030B95
:100C1000ABF10106012E17D80322866802FA07FEFF
:100C2000CA6826EA0E06BA40324382604268CAF3B6
:100C3000001522EA090205FA08F54FEA480C6FEAA6
:100C40000E062A4342600BE00322BA40D643BBF1B2
:100C5000030FBC4604D1BC464FF0030B22E000BF9B
:100C6000C2688D68324005FA0CF52A43BBF1020FC9
:100C7000C26017D16FF0030202EA5802024404F086
:100C80001C030F25D2F820E005FA03FA0D692EEABD
:100C90000A0E05FA03F343EA0E031362D1F804A027
:100CA0000AF0030B02680BFA0CF332401A431AF4F1
:100CB000403F4FF0010A026098D0002243F64403FF
:100CC0000192C4F202031A6843F6004E42F48042D5
:100CD0001A601A68C4F2010E02F480420192019A6D
:100CE00028F003024FF6084C7244CFF6FF7C52F80E
:100CF0000C3004F00C060F25B540AB43009D05FAFF
:100D000006F6334342F80C30DEF808204B6842EA1E
:100D1000090643F60C4CDD0258BF22EA0906CEF85C
:100D20000860C4F2010CDCF800209D0242EA0906CA
:100D300058BF22EA0906CCF80060DEF804209D03C3
:100D400042EA090658BF22EA0906CEF80460DEF836
:100D50000020DB0342EA090658BF22EA0906CEF862
:100D6000006043E702B0BDE8F08F0000002A08BF32
:100D7000090481617047000040F21C60C2F200006B
:100D80000068704740F2000040F21C61C2F20000AF
:100D9000C2F2000100780A68104408607047000041
:100DA00080B543F60040C4F20200016841F40071CE
:100DB0000160016841F480610160016841F4807163
:100DC0000160032000F084F8002000F005F800F036
:100DD00027F8002080BD000070B540F20006C2F286
:100DE000000640F208013278C2F200014FF47A7333
:100DF0000968B3FBF2F20446B1FBF2F1084600F0D9
:100E00009FFE0F2C4FF0010508D838B94FF0FF3086
:100E100021460022002500F02FF87460284670BD9E
:100E200082B0002043F640010190C4F202014A68FA
:100E300042F480424A604A6802F480420192019A78
:100E40000090086840F080500860086800F080500A
:100E50000090009802B07047002848BF704700F02B
:100E60001F01012202FA01F14EF200124009CEF2F6
:100E7000000242F82010704710B54EF60C5CCEF21E
:100E8000000CDCF80030C3F3022E8EF00704042CB3
:100E900028BF0424BEF103034FF0FF3E0EFA04F412
:100EA00038BF0023A14399400EFA03F39A4311433C
:100EB00000F00F02043A624409010C3200F1604371
:100EC000B0F1FF3FC8BF03F56442117010BD0000D0
:100ED0004EF60C51CEF200010A684FF6FF031A409D
:100EE00060F30A2242F0806040F0FD7008607047B5
:100EF00001220168C0F80025002280F8F4248869E6
:100F000040F000608861486D40F0805040F003027E
:100F100000204A65704700002DE9F04F8BB0002893
:100F200000F086800446056890F8BD0428B90020CA
:100F300084F8BC04204600F093F8032084F8BD0434
:100F4000E86BC0055CBF00202061206801F0FAFB5F
:100F5000206804F11C0A0A90D4E90C5004F1040E34
:100F60009AE8C0079EE80E58CDE9085003A880E82B
:100F7000C0030A988DE80058CDF81CA001F0A4F831
:100F8000002852D120680021002501F0E3FB6168B0
:100F900061B301200023002203EBC30304EB8307AA
:100FA00087F83C20D3B20132A7F84430D3B299423B
:100FB00087F83D0087F84050C7E912557D65EBD8AA
:100FC00000200023002200BF03EBC30304EB8307D0
:100FD00087F87C220132D3B2994287F87D0287F8E4
:100FE0008002C7E9A200C7F89402EDD8A068226881
:100FF0000A90D4E90C5004F1140E04F1240AD4E947
:1010000003379EE840589AE80007CDE9085002A847
:1010100080E8005810460A9ACDE90076CDE90589A6
:10102000CDF81CA001F050F930B1022084F8BD04C5
:1010300001200BB0BDE8F08F002084F838000120BB
:1010400084F8BD04606A012802D12046FFF750FFF2
:10105000206801F029F900200BB0BDE8F08F0000F6
:10106000F0B59DB0044601A804305821FFF792F96D
:101070002068B0F1A04F01D01DB0F0BD4FF48070DA
:10108000019001A800F03EF8002818BFFFF7FEF914
:10109000002743F630061897C4F202063068002491
:1010A00040F0010030603068C4F2020400F001003A
:1010B000189018984FF4E85018900220CDE91907BD
:1010C00003201B900A2018AD1C9020462946FFF7EC
:1010D0006FFD4FF40070CDE91807204629461A9796
:1010E000FFF766FD706840F08000706000977069DF
:1010F00040F480407061706900F480400090009876
:101100001DB0F0BD2DE9F04381B00446006843F600
:101110008C06C107C4F2020604D14FF00009810712
:101120000CD415E03168A26B21F0C061114331602D
:10113000B2FA82F14FEA5119810709D53168E26BA1
:1011400021F0C05111433160002A08BF4FF001095E
:10115000410705D44FF00008010712D420E000BF7A
:101160003168226B21F4401111433160B2FA82F1EF
:101170004FEA5118B2F5801F08BF4FF0010901076F
:101180000ED53168626B21F440011143B2F5800F36
:10119000316008BF4FF00109002A08BF4FF0010875
:1011A00081065AD50020009056F84C0C47F20007F3
:1011B00040F0805046F84C0C56F84C0CC4F2000736
:1011C00000F0805000900098386840F480703860DB
:1011D000FFF7D2FD054600BF3868C00506D4FFF70B
:1011E000CBFD401B0228F7D93CE100BF56F81C0C90
:1011F00010F4407017D0216C01F44071884212D075
:1012000056F81C0C40F64061C4F24721012220F43C
:1012100040700A6000220A6046F81C0C56F81C0C4C
:10122000C00740F075812068216C56F8842C4FF679
:10123000FF4701F4407322F4F812C0F6FF770F4025
:10124000B3F5407F08BF3A4346F8842C56F81C2C6F
:101250006FF31F31114346F81C1CC1060AD4010666
:1012600013D4410619D4C1051FD481052AD44105E0
:1012700030D438E094F8580040F64061C4F2472179
:10128000C1F8A00320680106EBD5B168E26C21F437
:1012900040011143B1604106E5D5B168A26C21F06F
:1012A00080611143B160C105DFD5B168626D21F085
:1012B00000611143B160B2F1006F08BF4FF0010847
:1012C0008105D4D5B168626C21F080511143B160C1
:1012D000410508D5B168226D21F000511143B2F1EA
:1012E000005FB1601ED0B9F1000F1BD1B0F5006FE7
:1012F00018D0B8F1000F4FF0000000F01B816827F4
:10130000C4F24727B860FFF737FD054656F88C0C46
:10131000800040F1AB80FFF72FFD401B0228F5D97C
:10132000A0E000BF40F26809C4F247290020C9F8D4
:101330000000FFF721FD054656F88C0C000105D58D
:10134000FFF71AFD401B0228F6D98BE02068C10781
:1013500001D0A16B19B1810714D5E16B91B956F891
:10136000081C56F8082CD4E9013501F4403102F08C
:10137000706219436769114341EA851141EA0771B7
:1013800046F8081C410703D5216BB1F5801F05D035
:1013900001071FD5616BB1F5800F1BD156F8081CF2
:1013A00056F8082CD4E9013701F4403102F0E0424C
:1013B00019432569114341EA871141EA0561D4F8CF
:1013C00028C046F8081C3168ACF1010221F01F0169
:1013D00011433160410520D5216DB1F1005F1CD171
:1013E00056F808CC56F8082CE5680021CFF6FF71B6
:1013F000D4E9013701EBC5314FF0C06502F0E0429E
:1014000005EA4C2505F100751A432A436FF30F01D5
:1014100042EA8712114346F8081C000511D5271D22
:101420008FCF40EA81100021CFF6FF7101EBC2316E
:101430006FF30F0140EA0360084340EA077046F883
:10144000080C0120C9F80000FFF796FC054600BF14
:1014500056F88C0C00013FF54CAFFFF78DFC401B9C
:101460000228F5D9032001B0BDE8F08320684107C8
:1014700001D5216B19B101071AD5616BC1B956F8B5
:10148000041CD4E9062301F44031656A114341EAA2
:10149000831141EA0561D4F82CC046F8041C316878
:1014A0006FF0FF0221F4F85102EB0C22114331607E
:1014B000C00517D5606DB0F1006F13D156F8040C5C
:1014C00004F118030ECB002500F07060CFF6FF7515
:1014D00005EBC33308436FF30F0340EA8210184350
:1014E00046F8040C0120B860FFF746FC044600BF34
:1014F00056F88C0C800007D4FFF73EFC001B032835
:10150000F6D3032016E000BF002001B0BDE8F08351
:10151000FFF732FC054641F2883700BF56F81C0C35
:1015200080073FF580AEFFF727FC401BB8424FF025
:101530000300F3D901B0BDE8F08300002DE9F041CC
:10154000002800F08B8043F60808C4F20208044625
:10155000D8F8F8030D4600F00F00884207D288F84B
:10156000F853D8F8F80300F00F00A84276D12068AD
:10157000810717D5410705D5D8F8001041F4E0518F
:10158000C8F80010010705D5D8F8001041F46041F3
:10159000C8F80010D8F80010A26821F0F00111433B
:1015A000C8F80010C0073FD1D8F8F80300F00F00CA
:1015B000A84207D988F8F853D8F8F80300F00F00CC
:1015C000A8424BD12068410707D5D8F80010E2683F
:1015D00021F4E0511143C8F80010000708D5D8F8ED
:1015E0000000216920F4604040EAC100C8F8000012
:1015F00000F07CF8D8F8001042F64402C1F3031161
:10160000C0F60002515C40F2080220FA01F140F2FB
:101610000400C2F200000068C2F200021160FFF78D
:10162000DBFB0020BDE8F0816068811E022907D243
:1016300058F8081C89015CBF0120BDE8F08111E069
:10164000012807D158F8081C89035CBF0120BDE8B8
:10165000F08107E058F8081C890703D40120BDE891
:10166000F08100BFD8F8001021F003010843C8F84A
:101670000000FFF781FB064641F28837D8F80000EA
:10168000616800F00C00B0EB810F8DD0FFF774FBA8
:10169000801BB842F2D90320BDE8F08140F2080077
:1016A00043F60801C2F20000C4F2020100680968B2
:1016B00042F65402C1F38221C0F60002515CC840D8
:1016C0007047000040F2080043F60801C2F2000033
:1016D000C4F202010068096842F65402C1F34231C3
:1016E000C0F60002515CC8407047000010B543F6D8
:1016F0000404C4F202046068C0F3810142F20040B5
:10170000C0F2F400DFE801F04402081841F20020C2
:10171000C0F27A0010BD00BF216801F03F022168CD
:1017200023684902C3F3881116D4A1FB00010023EA
:10173000FEF7B8FD17E000BF216801F03F02216805
:1017400023684902C3F3881116D4A1FB00010023CA
:10175000FEF7A8FD17E000BF41F20020C0F27A00BA
:101760004843B0FBF2F021680222C1F3014102EBD1
:101770004101B0FBF1F010BD41F20020C0F27A004F
:101780004843B0FBF2F02168C1F30271B0FBF1F005
:1017900010BD00002DE9F04182B0002800F09680D5
:1017A0000446007843F60006C007C4F202062BD0B8
:1017B000B06800F00C00042820D0B06800F00C00E5
:1017C000082802D17068400218D4B06800F00C00FC
:1017D0000C2802D17068400210D46068B0F5803FD8
:1017E00007D0B0F5A02F40F03B81306840F4802056
:1017F0003060306840F4803030603BE13068800316
:1018000002D56068002861D02078800722D5B068B2
:1018100010F00C0F11D0B06800F00C00082802D1B5
:101820007068400209D5B06800F00C000C2840F048
:101830009F807068400200F19B803068800702D56D
:10184000E068012842D13068216920F0F80040EAC0
:10185000C1003060207800073CD42078400751D484
:10186000A5698DB3B06800F00C00082840F0A8808E
:10187000012D2BD07068E16900F480028A4225D1E5
:10188000216A00F03F028A4220D147F6C071626AA5
:101890000140B1EB821F19D1A26A0023CFF6FF737A
:1018A00003EBC23200F440316FF30F0291420DD1CD
:1018B000E16A00F07062B2EB016F07D1216B00F0BA
:1018C000E040B0EB017F01D1002035E1012002B002
:1018D000BDE8F0816069002840F20000C4F24720B2
:1018E0005ED00121C0F8801EFFF746FA054600BF12
:1018F000706F8007B1D4FFF73FFA401B0228F7D979
:10190000C5E000BF306C10F080580AD10020019073
:10191000306C40F080503064306C00F080500190AA
:10192000019847F20007C4F200073868C00511D4D7
:10193000386840F480703860FFF71EFA054600BF33
:101940003868C00506D4FFF717FA401B0228F7D9FC
:101950009DE000BFA068012805D0052852D1306F56
:1019600040F004003067306F40F00100306753E012
:10197000E068002860D00020C4F247200121016007
:10198000FFF7FAF9054600BF306880073FF55BAF07
:10199000FFF7F2F9401B02284FF00300F4D9CBE027
:1019A0000021C0F8801EFFF7E7F90546706F800739
:1019B0007FF553AFFFF7E0F9401B0228F6D966E048
:1019C0000027C4F2472700203866FFF7D5F9022D1B
:1019D00005460BD1306880015ED5FFF7CDF9401B7D
:1019E00002284FF00300F5D9A6E000BF306880015F
:1019F0007FF56AAFFFF7C0F9401B02284FF00300E4
:101A0000F4D999E0316F002821F001013167316F7D
:101A100021F00401316765D0FFF7AEF9054641F2C8
:101A2000883700BF306F80076ED4FFF7A5F9401BE1
:101A3000B842F7D92BE000BF0020C4F247200021B4
:101A40000160FFF799F90546306880077FF502AF1E
:101A5000FFF792F9401B02284FF00300F4D96BE026
:101A60003168002821F480313160316821F480210F
:101A7000316053D0FFF780F9054600BF306880031E
:101A80003FF5C2AEFFF778F9401B6428F6D9032072
:101A900002B0BDE8F08100BF04F11C052FCD246B1E
:101AA00008430021CFF6FF7140EA821001EBC331F9
:101AB0006FF30F0140EA0560084340EA047070606C
:101AC00001203866FFF758F9044600BF30688001EE
:101AD0003FF5FAAEFFF750F9001B02284FF0030064
:101AE000F4D929E0FFF748F9054641F2883700BFED
:101AF000306F800708D5FFF73FF9401BB8424FF021
:101B00000300F5D918E000BFB8F1000F7FF4A8AECC
:101B1000306C20F080503064A2E600BFFFF72CF953
:101B20000546306880037FF56FAEFFF725F9401B4F
:101B300064284FF00300F4D902B0BDE8F081000042
:101B4000411E0020B0EB116F1CBF012070474EF208
:101B50001002CEF2000251604EF62351CEF2000187
:101B6000F0230B700721906011607047002804BFBC
:101B70000120704710B5044690F83D0028B90020B8
:101B800084F83C00204600F021F8242084F83D0031
:101B90002068C16821F40051C160204600F022FA9B
:101BA0002068016921F490410161416921F02A0115
:101BB0004161C16841F40051C160002020212064CE
:101BC00084F83D1084F83E1010BD000080B586B04A
:101BD000016844F60000C4F20000814202D006B061
:101BE00080BD00BF002143F630020191C4F2020221
:101BF000136900F5E23043F480231361136903F4A1
:101C000080230193019B0191136843F00803136043
:101C1000126802F008020192019A4FF44072019298
:101C20000222CDE90221032104910721059101A996
:101C3000FEF7BEFF06B080BDFEE70000B0B584B081
:101C400040F2700042F2002101230024C2F20000A1
:101C5000C4F20101C0F60073012503944FF48032F1
:101C6000047680F82040C0E90A34C56180F830402D
:101C700080E81600C0E903444561FEF7BFFC28B1C7
:101C8000EFF3108072B600BFFEE700BF0F20CDE972
:101C9000000540F27000C2F2000069460294FEF7AF
:101CA000FBFB28B1EFF3108072B600BFFEE700BF68
:101CB00004B0B0BD80B582B00020CDE9000040F294
:101CC000B80047F20041C2F20000C4F20001016016
:101CD000FEF7C6FE20B1EFF3108072B6FEE700BF3C
:101CE00040F2B800C2F2000069460022FEF792FE00
:101CF00020B1EFF3108072B6FEE700BF02B080BDE6
:101D00002DE9F04F87B0002443F63000CDE90544BB
:101D10000194C4F20200016840F6000841F0040199
:101D200001600168C4F2020801F004010191019907
:101D300001940168A8F5806741F020010160016805
:101D4000002201F02001019101990194016844F2FF
:101D5000810A41F080010160016801F08001019178
:101D600001990194016841F001010160016801F0ED
:101D70000101019101990194016841F002010160A2
:101D8000016801F00201019101990194016841F09B
:101D900008010160016801F00801019101990194B5
:101DA000016841F040010160006844F2810100F0E7
:101DB0004000019001983846FEF7D8FF08F580559D
:101DC0002846402100224FF0400BFEF7CFFF40464F
:101DD0004FF470610022FEF7C9FF4FF4005002AECD
:101DE00002904FF4881940463146CDE90394FEF73E
:101DF000DFFECDF808A04FF0010A38463146CDE9A4
:101E000003A40594FEF7D4FE28463146CDE902BA74
:101E1000CDE90444FEF7CCFE8020CDE9020428463B
:101E200031460494FEF7C4FE4FF47060CDE9020A17
:101E300040463146CDE90444FEF7BAFEF020CDE934
:101E400002090220049008F580603146FEF7B0FEDA
:101E50000A2000210022FFF70FF80A20FEF7FCFFFE
:101E6000172000210022FFF707F81720FEF7F4FFE4
:101E7000282000210022FEF7FFFF2820FEF7ECFFBC
:101E800007B0BDE8F08F000080B540F2D85044F6AE
:101E90000001C2F20000C4F2000100234FF00C0C5C
:101EA0004FF4164280E80E00C0E90333C0E905C3D1
:101EB000C361FFF75BFE002808BF80BDEFF3108011
:101EC00072B600BFFEE7000080B540F2CC00C2F25F
:101ED00000004FF0A0410622C0E9001202210022BA
:101EE0000123C0E90312C0E90613C0E90822C0E9D2
:101EF0000B32FFF711F8002808BF80BDEFF3108008
:101F000072B600BFFEE70000FEE70000FEE700003B
:101F10007047000070470000FEF734BFB0B594B0C2
:101F2000002443F64000CDE90B44CDE90944069472
:101F3000CDE90444CDE902440194C4F202000168F1
:101F4000022541F080510160006800F0805001904E
:101F5000019847F200000194C4F20000016841F4C6
:101F600040410160006800F4404001900198012068
:101F700007904FF4A02008904FF480000E900420AA
:101F80000F90A820CDE910050720CDE9120507A87C
:101F90000D95FFF7FFFB28B1EFF3108072B600BF7D
:101FA000FEE700BF0F20CDE902054FF4A0500590D9
:101FB0004FF48050069002A805210494FFF7BEFA62
:101FC00020B1EFF3108072B6FEE700BF14B0B0BDD1
:101FD0004EF68850CEF20000016841F470010160B5
:101FE0007047000010B504460068D4E902C22369B6
:101FF000016921F4405111430161626943EA0C0116
:10200000E3691143C268194349F20C639A431143CF
:10201000C1604169A26921F4407141F2004311435A
:1020200040F48062C4F201039A42416102D1FFF799
:1020300049FB01E0FFF732FBE16963681922B1F562
:10204000004FA0FB02011FD15A00DB0FFEF72AF957
:1020500048F21F51C5F2EB11A0FB01235A096FF0A2
:10206000630302FB0300322303EBC000A0FB01016A
:102070004FF4F87000EA111000EB0210C1F34211A6
:1020800008442168886010BD9A009B0FFEF70AF98A
:1020900048F21F51C5F2EB11A0FB01235A096FF062
:1020A000630302FB0300322303EB0010A0FB0101DA
:1020B000F02000EA511000EB0210C1F34311084474
:1020C0002168886010BD000082B00499DDF808C066
:1020D000012940F64051C0F203016FD1826B4FF6E7
:1020E000BF7322F480328263C268CFF6BD731A4098
:1020F000C260C2680B9B22F44012012BC26003D164
:10210000C26842F48012C26000220092009A01323A
:102110000092009A8A4200F2A9800269002A1ED425
:10212000009A01320092009A8A4200F29F8002696E
:10213000002A14D4009A01320092009A8A4200F2D6
:1021400095800269002A0AD4009A01320092009A0E
:102150008A4200F28B800269B2F1FF3FD6DC002296
:102160000092026942F001020261009A013200927B
:10217000009A8A427AD80269D2071AD0009A0132AC
:102180000092009A8A4271D80269D20711D0009A4F
:1021900001320092009A8A4268D80269D20708D0B8
:1021A000009A01320092009A8A425FD80269D207EF
:1021B000DBD10021BCF1010F72D169E0C268089B3C
:1021C00042F04002C26000220192019A0132019263
:1021D000019A8A4250D80269002A1BD4019A01321E
:1021E0000192019A8A4247D80269002A12D4019AC0
:1021F00001320192019A8A423ED80269002A09D42A
:10220000019A01320192019A8A4235D80269B2F1EB
:10221000FF3FDADC00220192026942F00102026112
:10222000019A01320192019A8A4225D80269D207A5
:102230001AD0019A01320192019A8A421CD802698D
:10224000D20711D0019A01320192019A8A4213D821
:102250000269D20708D0019A01320192019A8A429A
:102260000AD80269D207DBD1002106E00321BCF1C4
:10227000010F15D10CE000BF0321826B002B14BFAE
:1022800022F4803242F480328263BCF1010F07D124
:10229000826842F006028260826842F02002826018
:1022A000084602B0704700000146D0F8000E20F04A
:1022B0000300C1F8000ED1F8040840F0020200202B
:1022C000C1F80428704700002DE9F04F83B0DDF815
:1022D0004CE00E9F0022BEF1000FC0F80421C0F8B0
:1022E0000821C0F80C21C0F81021C0F81421C0F852
:1022F0001821C0F81C21C0F82021C0F82421C0F802
:102300002821C0F82C21C0F83021C0F83421C0F8B1
:102310003821C0F83C2107D0826B00F5006A42F4F6
:102320000012826314E000BFD0F8042800F5006AB0
:1023300042F00202C0F80428826B22F40012826389
:10234000026842F040020260066846F080060660BD
:102350000026C0F8006EDAF80060012FCAF80060AD
:1023600006D1DAF80070002B18BF47F0010703E030
:10237000DAF8003043F00307DDF83090DDF83C80F8
:1023800040F64055C0F203050023CAF800700193DF
:10239000019B01330193019BAB4249D80369002B98
:1023A0001BD4019B01330193019BAB4240D80369CD
:1023B000002B12D4019B01330193019BAB4237D810
:1023C0000369002B09D4019B01330193019BAB42AC
:1023D0002ED80369B3F1FF3FDADC002301934FF4F9
:1023E00084630361019B01330193019BAB421FD8BE
:1023F00003699B061AD5019B01330193019BAB42F4
:1024000016D803699B0611D5019B01330193019BEB
:10241000AB420DD803699B0608D5019B013301939C
:10242000019BAB4204D803699B06DBD4002400E087
:10243000012400230293029B01330293029BAB42CF
:1024400048D80369002B1BD4029B01330293029BE3
:10245000AB423FD80369002B12D4029B0133029395
:10246000029BAB4236D80369002B09D4029B01338F
:102470000293029BAB422DD80369B3F1FF3FDADC34
:102480000023029310230361029B01330293029BFA
:10249000AB421FD80369DB061DD5029B01330293B3
:1024A000029BAB4216D80369DB0614D5029B0133AD
:1024B0000293029BAB420DD80369DB060BD5029B4E
:1024C00001330293029BAB4204D80369DB06DBD4E1
:1024D00001E000BF01244FF0000B0029CAF810B042
:1024E000CAF814B0CAF81CB000F0FE8000F51067FE
:1024F0003B684FF0006505EA13134FF67F324E1E1E
:102500003B60C7F810B0BA6073D08B1E032B06F087
:102510000302009404D22024002A42D162E000BFCA
:1025200026F003034FF0000E4FF090484FF67F3C2B
:102530004FF0000900EB0904D4F82059043B08EAE5
:10254000E575C4F82059C4F830E9C4F828C9D4F8AE
:10255000405909F1800908EAE575C4F84059C4F802
:1025600050E9C4F848C9D4F8605908EAE575C4F8D8
:102570006059C4F870E9C4F868C9D4F8805908EA09
:10258000E575C4F88059C4F890E9C4F888C9D1D178
:1025900009F12004DDF84CE0DDF83C80DDF83090F6
:1025A00002B33D594FF0904C0CEAE5753B193D5193
:1025B00000244FF67F37012A1C619F6012D01D6AEC
:1025C000022A0CEAE5751D621C639F620AD01F6C2B
:1025D0004FF0904505EAE7771F6400271F654FF627
:1025E0007F379F64009C00294FF67F324FF00065D3
:1025F0007AD0D0F8003B002E05EA1313C0F8003B58
:102600004FF00003C0F8103BC0F8082B6CD0023923
:10261000032906F0030C05D22023BCF1000F3ED1A4
:1026200062E000BF009426F0030300274FF09046BD
:102630004FF67F34002100BF4518D5F8202B043B0E
:1026400006EAE272C5F8202BC5F8307BC5F8284BA6
:10265000D5F8402B01F1800106EAE272C5F8402B63
:10266000C5F8507BC5F8484BD5F8602B06EAE272F6
:10267000C5F8602BC5F8707BC5F8684BD5F8802B82
:1026800006EAE272C5F8802BC5F8907BC5F8884B46
:10269000D2D1009C01F12003BCF1000F24D000F541
:1026A0003062D6584FF0904707EAE676D118D650F8
:1026B00000264FF67F33BCF1010F0E618B6013D003
:1026C0000A6ABCF1020F07EAE2720A620E638B62C9
:1026D0000AD00A6C4FF0904303EAE2720A640022C7
:1026E0000A654FF67F328A64DAF81010B9F1000FEC
:1026F00021F48071CAF810106FF08041C0F818B052
:10270000416103D1816941F010018161816943F622
:102710000002C8F23C021143B8F1000F816103D0FE
:10272000816941F008018161BEF1010F05D1816924
:1027300041F0804141F004018161204603B0BDE8D1
:10274000F08F00000146806820F0010200208A60BE
:1027500070470000B0B50446C06820F0C040E0609B
:1027600091B1012926D1E068002540F00050E060D9
:102770000120FEF7FBF96069C00705F1010014D1E3
:10278000312D0546F4D310E0E068002540F080408C
:10279000E06000BF0120FEF7E9F96069C00705F1BC
:1027A000010002D0312D0546F4D33238B0FA80F062
:1027B0004009B0BD0120B0BDFEE70000FEF7F0FA11
:1027C000FFF7ACFBFFF79CFAFFF738FAFFF75CFB6B
:1027D000FFF77AFBFFF76EFA40F27004C2F20004D2
:1027E0002046FEF76BF840F2B805C2F20005284615
:1027F000FEF736F928460021FEF78CF92046FEF751
:102800005DF820466421FDF7DBFF2046FDF7F2FE70
:10281000064628460021FEF77DF906F47063284637
:1028200000210022FEF762F9E8E7F1EE100A4FF608
:10283000FF71C0F2C03120EA010040F04070E1EECB
:10284000100A7047000000000000000001020304AD
:1028500006070809000000000102030480280008A0
:10286000000000201000000000020008902800086E
:1028700010000020100C00001C02000800000000E6
:1028800001000000100000000024F400000000001F
:04000005080001C529
:00000001FF
