:020000040800F2
:100000006865012075020008454E00086147000838
:10001000414E0008DD080008A15B00080000000058
:100020000000000000000000000000004D4E00082D
:10003000A909000800000000494E0008514E0008C0
:100040008F0200088F0200088F0200088F0200084C
:100050008F0200088F0200088F0200088F0200083C
:100060008F0200088F0200088F0200088F0200082C
:100070008F0200088F020008850900088F0200081F
:100080008F0200088F0200088F0200088F0200080C
:100090008F0200088F0200088F0200088F020008FC
:1000A0008F0200088F0200088F0200088F020008EC
:1000B0008F0200088F0200088F0200088F020008DC
:1000C0008F0200088F0200088F0200088F020008CC
:1000D0008F0200088F0200088F0200089554000864
:1000E000AD0900088F0200088F0200088F02000887
:1000F0008F0200088F0200088F0200088F0200089C
:100100008F0200088F0200088F0200088F0200088B
:100110008F0200088F0200081D4F00088F020008A0
:100120008F020008910900088F0200088F02000862
:100130008F02000800000000000000008F0200088D
:100140008F0200088F0200088F0200088F0200084B
:100150008F0200088F0200088F0200088F0200083B
:100160008F0200088F0200088F0200088F0200082B
:100170008F0200088F0200087909000800000000C3
:10018000000000008F0200080000000000000000D6
:100190008F02000800000000000000008F0200082D
:1001A0000000000000000000000000008F020008B6
:1001B0008F0200088F0200088F0200088F020008DB
:1001C0008F02000800F002F800F044F80AA090E85E
:1001D000000C82448344AAF10107DA4501D100F002
:1001E00039F8AFF2090EBAE80F0013F0010F18BF8B
:1001F000FB1A43F001031847805E0000A05E000078
:10020000103A24BF78C878C1FAD8520724BF30C842
:1002100030C144BF04680C60704700000023002414
:1002200000250026103A28BF78C1FBD8520728BF06
:1002300030C148BF0B607047782900F045817329B1
:1002400000F09F82002070471FB505F04EFE1FBDD5
:1002500010B510BD00F0F0FA1146FFF7F5FF05F0FC
:10026000B5FC00F00EFB03B4FFF7F2FF03BC00F097
:10027000F1F900000948804709480047FEE7FEE71A
:10028000FEE7FEE7FEE7FEE7FEE7FEE7FEE7FEE746
:1002900004480549054A064B70470000094F00080D
:1002A000C5010008685E01206865012068600120C2
:1002B0006860012053EA020C00F069802DE9F04BE0
:1002C0004FF00006002B1FBFB3FA83F503FA05F4C5
:1002D00024FA05F65E4012BF1643B2FA82F502FA1E
:1002E00005F4C5F120051EBF22FA05FC44EA0C0402
:1002F000203556EA044C4FEA144418BF641C4FF0F2
:1003000000084FF00009904271EB030C39D300292B
:1003100019BFB1FA81F701FA07F6B0FA80F700FACF
:1003200007F6C7F120071EBF20FA07FC46EA0C06B5
:100330002037B6FBF4FCA7EB0507103F07F01F0BB7
:10034000CBF120062CFA06F60CFA0BFB44BFB346A1
:100350000026202FA4BF5E464FF0000B5BEA060C80
:1003600008BF4FF0010B19EB0B0948EB0608ABFB7C
:10037000027C06FB02CC0BFB03CCC01B71EB0C0117
:10038000C1E70B46024641464846BDE8F08B13B52F
:10039000084318BF4FF0FF300146AFF30080BDE8BF
:1003A0001C4070470FB41CB5074B06AA7B44694636
:1003B0000090059800F0B3F90020694600F0C2F9FA
:1003C0001CBC5DF814FB0000950300000FB41CB5C5
:1003D0000C0007AA009007D04142A14202D320445A
:1003E000401E01E04FF0FF30074B7B44694601900F
:1003F000069800F094F90020002C01D000990870B4
:100400001CBC5DF814FB0000610300002DE9F04105
:100410000E460446002020622046E168884730B33B
:10042000252805D0D4E901219047206A401CF2E735
:10043000E168204600278847050018D0A5F1410053
:10044000192802D820354FF4006732462946204645
:100450002760FFF7F1FE40B1012804D0F61D26F019
:1004600007060836D8E7361DD6E72846DAE7206AB9
:10047000BDE8F08170B50C460546012A05D0287804
:10048000800600D5EA69002302E0012305E05B1C39
:10049000934202D2E05C0028F9D1A869E618C01A9C
:1004A000A861286A184428622846AFF3008004E057
:1004B000D5E9012114F8010B9047B442F8D328463E
:1004C000AFF3008070BD000070B504460D462146B4
:1004D0001068AFF300802188090502D50F4A7A44DD
:1004E00002E00E4A7A440E32002104F1240305E0B2
:1004F00000F00F060009965D5E54491C0028F7D1F4
:1005000020780023000704D5702D02D009B1022302
:1005100011322046BDE8704000F0A2B8225A000017
:1005200010B5002000F031F9FFF792FEBDE8104051
:10053000012000F08FB810B5431C02E010F8011B39
:1005400071B18107FAD14FF0013202C88C1A8C4385
:1005500014EAC211F9D0C01A0A0603D0C01E10BD99
:10056000C01A10BD0A0401D0801E10BD0902FCD0C3
:10057000401E10BD032A40F2308010F0030C00F042
:10058000158011F8013BBCF1020F624498BF11F8CD
:1005900001CB00F8013B38BF11F8013BA2F1040286
:1005A00098BF00F801CB38BF00F8013B11F00303FE
:1005B00000F0F280083AC0F0088051F8043B083A95
:1005C00051F804CBA0E80810F5E7121D5CBF51F804
:1005D000043B40F8043BAFF30080D20724BF11F87E
:1005E000013B11F801CB48BF11F8012B24BF00F8E3
:1005F000013B00F801CB48BF00F8012B70474FF0DA
:10060000000200B5134694469646203922BFA0E862
:100610000C50A0E80C50B1F12001BFF4F7AF09076E
:1006200028BFA0E80C5048BF0CC05DF804EB89005F
:1006300028BF40F8042B08BF704748BF20F8022BA2
:1006400011F0804F18BF00F8012B704770477047BA
:100650007047000001491820ABBEFEE726000200EB
:100660002DE9F0470D4699469246044600F12408CC
:100670000168880604D5E06921F01001216000E0DE
:100680000120A84201DD471B00E00027A1697A197B
:1006900002EB0900081AA0612078C00602D42046A7
:1006A000AFF30080002608E0D4E901211AF8060023
:1006B0009047206A401C761C20624E45F4DB20786F
:1006C000C0060AD52046AFF3008006E0D4E9012138
:1006D00030209047206A401C2062381EA7F1010795
:1006E000F4DC07E0D4E9012118F805009047206AFE
:1006F000401C2062281EA5F10105F3DC2046AFF363
:1007000000802078000602D50220BDE8F087012095
:10071000FBE7000001694A1C02610878704700B5D8
:100720008FB0CDE901310021059105497944CDE92A
:10073000031011466846FFF769FE0FB000BD0000C8
:10074000E5FFFFFF0A6802F8010B0A607047D1E974
:1007500000239A4202D2531C0B601070704710B5F0
:10076000436913B1AFF3008001E0FFF783FE01207E
:1007700010BD127800F124010A7000224A70012293
:10078000EDE711684FF0FF32E9E710B500F03CF8F3
:10079000BDE8104000F033B810B5203AC0F00B802F
:1007A000B1E81850A0E81850B1E81850A0E8185067
:1007B000203ABFF4F5AF5FEA027C24BFB1E81850DD
:1007C000A0E8185044BF18C918C0BDE810405FEA3F
:1007D000827C24BF51F8043B40F8043B08BF7047BB
:1007E000D20728BF31F8023B48BF11F8012B28BFC0
:1007F00020F8023B48BF00F8012B704770470028E3
:1008000001D0FFF727BF704710B5002102A000F00C
:1008100041F8012010BD0000534947414252543A6B
:100820002041626E6F726D616C207465726D696ECD
:100830006174696F6E000000754600F04BF8AE46BB
:1008400005006946534620F00700854618B020B5DC
:10085000FFF71EFDBDE820404FF000064FF00007F7
:100860004FF000084FF0000BAC46ACE8C009ACE814
:10087000C009ACE8C009ACE8C00921F007018D4609
:10088000704710B50446AFF300802046BDE8104025
:10089000FFF7E9BC70B505460C460A2000E06D1C68
:1008A00000F011F835B128780028F8D102E0641C76
:1008B00000F009F814B120780028F8D1BDE87040A4
:1008C0000A20AFF3008008B569468DF800000320C8
:1008D000ABBE08BD0048704710000020FEE70000D6
:1008E000806B816C496D02291CBF012180F8351095
:1008F00000F066B810B5846BA26BA06C002A01688A
:100900000B6803F4002209D0A36BDB0712D18AB174
:10091000C968E26B01EBC201002213E0C2B90868AA
:10092000000317D4E06BD4E9103202EB80000861B9
:10093000A3630FE00A6812030CD40969E26B01EBB0
:10094000C201012200F0A2FAA06B0138A06301E00D
:10095000606CC860A06B216C884218BF10BD206815
:10096000C16841F00101C1600068800744BF0120F7
:1009700084F8350010BD000046F25820C2F2000095
:1009800000F022B846F20830C2F2000000F04EBD7E
:1009900040F2700146F2A820C2F200010122C2F228
:1009A00000000A7000F042BD704700004FF4005094
:1009B00000F034BFEFF3108072B600BFFEE7000016
:1009C000704700007047000070B50446006840F6AC
:1009D000E1060569C0F6000669071FD4A8072BD4F5
:1009E000E80639D4280705D520680821416120464A
:1009F00000F04AFAE80708BF70BD21680868800760
:100A000003D5C86820F01E00C860C86820F0010245
:100A10002046CA60BDE87040FFF7D4BF04214161A1
:100A2000E06C40F00200E06484F83510A06C0665CC
:100A300000F0EAFCA807D3D521680222A06C4A6125
:100A4000E16C41F00101E164042184F83510066590
:100A500000F0DAFCE806C5D5206810214161204687
:100A600000F052F82807C5D5BEE70000002804BFF3
:100A7000012070472DE9F04F81B0044690F8350011
:100A800040B9002084F83400204600F03FF82046AA
:100A900000F03CF8022084F8350094E801514FF250
:100AA00007030268CFF6E0731A400260D4E904320B
:100AB000A56942EA0E021A43D4E9086742EA0C0229
:100AC00004F1280A2A439AE8020632433A431143C2
:100AD000D0F800B041EA090141EA0A0141EA0B01FC
:100AE00041EA08010160B8F1100F04BFE1698161BA
:100AF000C16841F01E01C16000200121E06484F85A
:100B0000351001B0BDE8F08F704700002DE9F043CB
:100B100085B0044600680021C5F20501884203D073
:100B200005B0BDE8F08300BF002743F63000009712
:100B3000C4F202004168002541F0010141604168B2
:100B4000C4F2020501F001010091009900970168CB
:100B50006E4641F01001016001684FF0020801F09B
:100B6000100100910099009701684FF00D0941F0C4
:100B700001010160016801F00101009100990097F5
:100B8000016841F004010160016801F00401009175
:100B900000990097016841F008010160016801F0C7
:100BA0000801009100990097016841F0400101603F
:100BB0000068314600F040000090009870200090DE
:100BC00005F58050CDE901870397CDF8109000F02E
:100BD00031FE5020CDE9000828463146CDE90277A4
:100BE000CDF8109000F026FE4FF47070CDE90008AB
:100BF00005F500603146CDE90277CDF8109000F0A0
:100C000019FE0820CDE9000805F540603146CDE920
:100C10000277CDF8109000F00DFE4FF40070CDE992
:100C2000000805F5C0503146CDE90277CDF81090A7
:100C300000F000FE46F2A82546F22840C2F2000568
:100C4000C4F202004FF000714FF4805385E8830036
:100C500005F114004FF480624FF480464FF4807C1D
:100C600080E848104FF4003005F12003C5E9037215
:100C70000421032287C328462F6300F0B7FC002815
:100C800018BFFFF797FE4E2000210022A564AC6339
:100C900001F04AFE4E2001F033FE05B0BDE8F083BE
:100CA00090F83410012904BF0220704790F83510E5
:100CB000052907D1022180F8351001680A6842F041
:100CC00001020A60002180F83410084670470000D5
:100CD00070B582B0044690F8340001284FF002004D
:100CE00078D04FF0010E84F834E084F83500D4F861
:100CF00000C0A06CDCF80050002645F48045CCF81C
:100D00000050DCF80050B6EB134F25F00205CCF88C
:100D10000050DCF8005041EA0501CCF8001040F624
:100D2000F50140F6E105C0F60001C0F60005C1631B
:100D3000C0E91356A663266404D10CF1280100F023
:100D400007FD3FE04164C4F838E0E3636264E16BAF
:100D5000B1F5803F28D30021E36B5B08E363A36B0D
:100D60005B00A363E36BB3F5803F1DD3E36B5B08CC
:100D7000E363A36B5B00A363E36BB3F5803F13D323
:100D8000E36B5B08E363A36B5B00A363E36BB3F507
:100D9000803F09D3E36B5B08E363A36B5B00A36352
:100DA000E36BB1EB134FD7D1A16B0239A163A16BF8
:100DB0002164E16BE66B02EB81030CF128010096E4
:100DC00000F06EF82068016841F001010160002028
:100DD00084F8340002B070BD81B040F20801C2F264
:100DE0000001096842F293424908C9F24922A1FB75
:100DF00002129108009190F83410012904D10221C7
:100E0000084601B0704700BF90F835104FF0000C55
:100E100002294FF0000124D1052180F83510016826
:100E20000B6823F001030B60009B5A1E0092EBB18C
:100E30000A68D20714D0009A531E0093B2B10A6810
:100E4000D2070DD0009A531E00937AB10A68D207D8
:100E500006D0009A531E009342B10A68D207E3D12C
:100E6000002180F834C0084601B07047C16C41F0E1
:100E70002001C164012180F83510032180F834C0BD
:100E8000084601B07047000070470000D0F800C06D
:100E900010230020002A08BF0C234CF803107047D1
:100EA00070B58568802D05D14FF4807141650120B2
:100EB00070BD00BFC46B002C50D0446C002C4DD0D2
:100EC000C46C002C4AD090F83440012C4DD0012441
:100ED00080F8344090F83540012C43D1022480F84A
:100EE000354000244465D0F800C0049CDCF8006064
:100EF00046F20C4E46F48026C4F2020ECCF8006096
:100F0000CCF810300B46CCF80440402D04BF1346FB
:100F10000A460EF14C018C45CCF80830CCF80C2078
:100F200026D946F28841C4F202018C4564D046F2CB
:100F30007041C4F202018C4572D12021CEF800101C
:100F40001021CEF800100821CEF800100421CEF8B0
:100F500000100121CEF80010F0E100BF40214165F2
:100F6000012070BD002180F83410022070BD00BF48
:100F700046F20801C4F2020101F1B002944519D908
:100F800046F21043C4F2020346F228429C45C4F2E2
:100F9000020200F08980944500F0828046F24046CB
:100FA000C4F20206B4450CBF4FF400144FF00064C5
:100FB0007BE000BF01F1500246F2100E46F27003D2
:100FC0009445C4F2020EC4F2020353D99C4500F0CA
:100FD000C98046F28804C4F20204A44500F0C68029
:100FE00046F2A004C4F20204A4450CBF4FF400145E
:100FF0004FF000644C60C2E04FF40061CEF8001086
:101000004FF48061CEF800104FF40071CEF800105C
:101010004FF48071CEF800104021CEF800108DE121
:101020000EF194014FF000628C4508BF4FF400129E
:10103000CEF800204FF0806208BF4FF48012CEF847
:1010400000204FF000728C4508BF4FF40022CEF80C
:1010500000204FF0807208BF4FF48022CEF80020AD
:101060004FF480028C4508BF4FF48032CEF8002048
:1010700064E100BFF44500F07D8046F22804C4F22C
:101080000204A44500F0788046F24004C4F2020451
:10109000A4450CBF4FF400144FF000646EE000BF95
:1010A0004FF4006401E000BF20249C45C1F80044D7
:1010B00010D094450AD046F24046C4F20206B44528
:1010C0000CBF4FF480144FF0806404E04FF4806450
:1010D00001E000BF10249C45C1F8004410D09445A5
:1010E0000AD046F24046C4F20206B4450CBF4FF4A3
:1010F00000244FF0007404E04FF4007401E000BFDE
:1011000008249C45C1F8004410D094450AD046F20A
:101110004046C4F20206B4450CBF4FF480244FF0A1
:10112000807404E04FF4807401E000BF04249C4507
:10113000C1F8004412D094450CD046F24042C4F2AB
:10114000020294450CBF4FF480324FF48002C1F884
:101150000024F3E04022C1F80024EFE00122C1F8AE
:101160000024EBE020244C6009E000BF4FF4006451
:101170004C6004E0202401E04FF400640C609445CE
:1011800014D99C4526D046F28804C4F20204A44532
:1011900024D046F2A004C4F20204A4450CBF4FF4CC
:1011A00080144FF080644C6021E000BFF44519D0FA
:1011B00046F22804C4F20204A44515D046F24004C5
:1011C000C4F20204A4450CBF4FF480144FF08064B5
:1011D0000CE000BF10244C6009E000BF4FF48064B5
:1011E0004C6004E0102401E04FF480640C609445EE
:1011F00014D99C4526D046F28804C4F20204A445C2
:1012000024D046F2A004C4F20204A4450CBF4FF45B
:1012100000244FF000744C6021E000BFF44519D069
:1012200046F22804C4F20204A44515D046F2400454
:10123000C4F20204A4450CBF4FF400244FF0007424
:101240000CE000BF08244C6009E000BF4FF40074BC
:101250004C6004E0082401E04FF400740C609445F5
:1012600014D99C4526D046F28804C4F20204A44551
:1012700024D046F2A004C4F20204A4450CBF4FF4EB
:1012800080244FF080744C6021E000BFF44519D0F9
:1012900046F22804C4F20204A44515D046F24004E4
:1012A000C4F20204A4450CBF4FF480244FF08074B4
:1012B0000CE000BF04244C6009E000BF4FF48074D0
:1012C0004C6004E0042401E04FF480740C60944509
:1012D00014D99C4526D046F28802C4F202029445F5
:1012E00024D046F2A002C4F2020294450CBF4FF48F
:1012F00080324FF480024A6020E000BFF44519D0EC
:1013000046F22802C4F20202944515D046F2400289
:10131000C4F2020294450CBF4FF480324FF48002B5
:101320000BE000BF01224A6008E000BF40224A6093
:1013300004E000BF012200E040220A60DCF8001057
:1013400041F01601CCF80010DCF8141041F08001D7
:10135000CCF81410016C09B9806C28B1DCF80000DD
:1013600040F00800CCF80000DCF8000040F001007C
:10137000CCF80000002070BD70B5866D044600F00A
:1013800033FB94F83510022928D105462068216CDA
:10139000026822F016020260426922F08002426175
:1013A00009B9A16C19B1016821F008010160016857
:1013B00021F00101016000BF20680068C00715D05E
:1013C00000F012FB401B0628F6D3202060650320A6
:1013D00084F83500002184F8341070BD80206065E9
:1013E0000120002184F8341070BD00BFE06D3F2162
:1013F00001FA00F0B060012084F8350000200021DF
:1014000084F8341070BD000090F83510022909D11D
:10141000052180F835100068016821F001010160A4
:10142000002070478021416501207047F0B581B0F0
:1014300004460020009040F20800C2F2000002685A
:10144000D4E9166048F2B51337680821C1F64E3367
:1014500081403942A2FB03250CD0226813685B0748
:1014600008D5136823F004031360B160616D41F087
:101470000101616501218140394208D02268526929
:10148000120604D5B160616D41F00201616504216D
:101490008140394208D022681268920704D5B160B1
:1014A000616D41F00401616510218140394217D01E
:1014B00020680268120713D5B16002680168520300
:1014C00008D4C90508D4016821F008010160216C25
:1014D00021B905E008033FD4216C09B120468847B3
:1014E000E16D202000FA01F23A4241D02068036801
:1014F000DB063DD5B26094F835300268052B1BD170
:1015000022F016020260426922F080024261226CDF
:101510000AB9A26C1AB1026822F0080202603F20E8
:101520008840B060012084F83500216D002000293A
:1015300084F8340052D157E00168520310D4C90531
:1015400012D4016821F010010160012084F83500F7
:10155000002084F8340007E0A16C0029BED1BFE769
:10156000080301D4616C00E0E16B09B120468847B3
:10157000606DC8B3606DC0072ED0052084F83500BB
:101580002068A90A026822F001020260009A013272
:101590008A4200921AD80268D20717D0009A013204
:1015A0008A42009212D80268D2070FD0009A013204
:1015B0008A4200920AD80268D20707D0009A013204
:1015C0008A42009202D80268D207DFD1012084F853
:1015D0003500002084F83400E16C29B1204601B0C8
:1015E000BDE8F040084700BF01B0F0BD2DE9F04173
:1015F000044600F0F9F9ECB10546022084F8350004
:101600000020216884F83400086820F00100086098
:1016100021680868C00711D000F0E6F9401B0528D2
:10162000F6D9032520230320636584F83550BDE8EF
:10163000F08100BF0120BDE8F08100BF086848F2DA
:101640003F02CFF21002D4E9013500EA020C04F1A6
:101650000C0898E8C10143EA0C032B431843D4E972
:10166000072E304338431043626A40EA0E00042AD2
:1016700040EA08031CD1206BD4E90A2E40EA0E0090
:10168000184308604869BEF1000F20F0030040EAEB
:10169000020040F0040C11D0B8F5005F36D0B8F16C
:1016A000000F45D1022A46D0012A3BD032B942E090
:1016B0000B60486920F0070040EA020C01F0F800D6
:1016C0004AF6AB221038CAF6AA22A0FB02231A0956
:1016D00046F23803C0F600039A5C40F2FF335F28FD
:1016E0004FF03F00C1F814C021EA030100FA02F0F4
:1016F00088BF0431C4E91612886000230125002048
:10170000636584F83550BDE8F08100BF032AD5D861
:10171000012540230120DFE802F0030E030500BF8E
:1017200082E700BFAEF1C070B0FA80F0400904E07B
:10173000032A04D3C2D1CEF300600028BED0012515
:1017400040230120636584F83550BDE8F081000036
:1017500070B590F834C0BCF1010F46D04FF0010CC9
:1017600080F834C0D0F858E090F835C0BCF1010FD3
:1017700038D14FF0020C80F835C04FF0000CC0F8A3
:1017800054C0D0F800C08468056CC06DDCF80060FF
:10179000402C26F48026CCF80060CCF804300B46B0
:1017A00004BF13460A463F2101FA00F0CCF8083086
:1017B000CCF80C20CEF80800DCF8000040F0160051
:1017C000CCF800002DB1DCF8000040F00800CCF8A7
:1017D0000000DCF8000040F00100CCF80000002020
:1017E00070BD00BF002180F83410022070BD0000E1
:1017F000B0B5044600F0F8F8054640F20000C2F229
:1018000000000078611C18BF044400BF00F0ECF831
:10181000401BA042FAD3B0BD7047000043F614410C
:10182000C4F201010A68024214BF08607047FFF762
:10183000F3BF00002DE9F04F82B000F13E4241F6C7
:10184000000502F1FF77C4F20205072243F6004EBD
:101850004FEAB726A84208BF0622C4F2010E062EA0
:1018600038BF4FEAB7220125002600274FF00008B5
:10187000009208E008F101080437B8F1100F06F1F2
:10188000020600F0A7800C6805FA08F914EA090FAF
:10189000F0D0D1F804B003220BF0030CACF101043A
:1018A000B240012C6FEA020A10D88268CC6802EAC2
:1018B0000A02B440224382604268CBF3001422EA59
:1018C000090204FA08F42243426005E0BCF1030F68
:1018D00002D14FF0030C20E0C2688C6802EA0A02D1
:1018E000B4402243BCF1020FC26016D16FF0030274
:1018F00002EA58020244D2F820C007F01C050F2368
:101900000C69AB402CEA030304FA05F52B43136280
:10191000D1F804B001250BF0030C02680CFA06F3B1
:1019200002EA0A021A431BF4403F0260A2D00022DE
:1019300043F644030192C4F202031A684FF6084CBE
:1019400042F480421A601A68CFF6FF7C02F48042AB
:101950000192019A28F00302724452F80C3007F009
:101960000C050F24AC40A343009C04FA05F52B435F
:1019700042F80C30DEF808204B6842EA090543F6CD
:101980000C4CDC0258BF22EA0905CEF80850C4F21C
:10199000010CDCF800209C0242EA090558BF22EA4B
:1019A0000905CCF80050DEF804209C0342EA090542
:1019B00058BF22EA0905CEF80450DEF80020DB0308
:1019C00042EA090558BF22EA0905CEF80050012570
:1019D00050E700BF02B0BDE8F08F0000002A08BF4A
:1019E000090481617047000045F66060C2F20100A1
:1019F0000068704770B5B8B3044690F83D0028B948
:101A0000002084F83C00204600F0DCFE242084F80E
:101A10003D002068016821F001010160016841F486
:101A200000410160016821F40041016001F08AFB7E
:101A300048F28041C0F21E0140F60013D4F804E0E1
:101A400088424FF00001C0F23D0348F2A16C4FF014
:101A5000000238BF01219842C0F2010C38BF0122B8
:101A6000E64538BF0A460AB1012070BD4DF68361D4
:101A7000C4F21B31A0FB01122168950C4B684FF496
:101A8000967623F03F0343EA9243754344F6D356D8
:101A90004B60C1F262060B6AA5FB0656B50923F03E
:101AA0003F03E64538BF950C6A1C1A430A62CA69AF
:101AB00048F2A0664CF6FF73C0F20106B64522EA72
:101AC00003020BD801384FEA4E03B0FBF3F00130AC
:101AD0006FF31F30042898BF04201EE0A36801386C
:101AE00063B119230EFB03F3B0FBF3F001306FF386
:101AF0001F3078B100F5804008E000BF0EEB4E03C8
:101B0000B0FBF3F001306FF31F3028B100F5004057
:101B100003E000BF012000E001201043C861086815
:101B2000D4E9072320F0C0001043184308608868F8
:101B300048F2FF3204F10C0690434CCE1843104398
:101B4000A5698860C86820F0FF0030432843C8605A
:101B5000086840F00100086000202021206484F81B
:101B60003D10206384F83E0070BD00002DE9F04177
:101B700082B01F46164688460446FFF735FF94F8A4
:101B80003D1020291CD1054620688169890713D59D
:101B9000FFF72AFF401B1928F6D9002020212063D7
:101BA00084F83D1084F83E00216C41F0200121644E
:101BB00084F83C0004E000BF94F83C10012903D1F4
:101BC000022002B0BDE8F081012184F83C100168D8
:101BD000C90703D1016841F001010160016821F4E6
:101BE00000610160222184F83D10102184F83E102C
:101BF0000021216466626785618D21850021CFF611
:101C0000FF71E162E16A026811F5803F42F480628F
:101C1000026018BF012919D1016841F48071016087
:101C20004169089EC90724D1711C18D0002E00F00C
:101C3000CB8000BFFFF7D8FE401BB04200F2C68049
:101C400020684169C907F5D013E000BF0829E3D037
:101C5000216B1129E0D0E3E74169C90709D1416946
:101C6000C90706D14169C90704BF41695FEAC1716B
:101C7000F2D02169B1F5804F08D148F00101C9B215
:101C800001614169890740F1CC8003E1062101EA45
:101C9000D81707F1F00101614169090738D441699A
:101CA000721C01F4806113D0002940F0EA80002EFC
:101CB00000F01082FFF798FE401BB04200F20C8249
:101CC00020684169090723D441694905F2D5D8E064
:101CD000002940F0D6804169090719D441694905B6
:101CE00000F1CF804169090712D44169490500F12B
:101CF000C880416909070BD44169490500F1C180D9
:101D00004169090704D441694905E4D5B9E000BF38
:101D10005FFA88F101614169890739D44169721C10
:101D200001F4806114D0002940F0AB80002E00F057
:101D3000D181FFF759FE401BB04200F2CD812068EF
:101D40004169890724D441694905F2D599E000BF6A
:101D5000002940F096804169890719D441694905F5
:101D600000F18F804169890712D44169490500F16A
:101D70008880416989070BD44169490500F1818058
:101D80004169890704D441694905E4D579E000BF78
:101D900000210191416901918169019101990168D5
:101DA00041F4807101604169C90734D1711C28D0A8
:101DB00056B1FFF719FE401BB04207D820684169B1
:101DC000C907F6D027E000BFFFF70EFE0020202154
:101DD000206384F83D1084F83E00216C41F020011E
:101DE0002164216884F83C000868C00544BF4FF4B2
:101DF00000702064012002B0BDE8F0814169C9078C
:101E000009D14169C90706D14169C90704BF4169C0
:101E10005FEAC171F2D047F0F101016141698907C0
:101E200038D44169721C01F4806111D049BB002E85
:101E300000F05081FFF7D8FD401BB04200F24C810A
:101E400020684169890725D441694905F2D518E020
:101E5000B9B9416989071DD44169490511D441695E
:101E6000890717D4416949050BD44169890711D401
:101E70004169490505D4416989070BD44169490580
:101E8000E7D5016841F4007101606FF48061416140
:101E9000042022E1218D99B1022927D001292DD1D9
:101EA000026822F48062026000220192426901927B
:101EB00082690192019A026842F40072026028E08D
:101EC00000210191416901918169019101990168A4
:101ED00041F400710160202084F83D00002084F866
:101EE0003E0084F83C0002B0BDE8F081026822F4B4
:101EF00080620260026842F4006202E0026842F41A
:101F00008062026000220192426901928069019020
:101F1000019888B2032817D802283FD0012851D150
:101F2000002E00F099802068014651F8142F5206C7
:101F300000F196800868C00600F1F280FFF754FDBA
:101F4000401BB042EFD9E0E086B100BF20680146F7
:101F500051F8142F52060ED40868C00600F1E08034
:101F6000FFF742FD401BB042F0D9CEE02068416946
:101F7000490640F1C3800069616A0870606A218D7A
:101F800001300139606221852268638D013B6385E0
:101F900053695B0770D51169017064E0206841697D
:101FA000490745D4711C6BD0002E00F0CD80FFF79F
:101FB0001BFD401BB04200F2C980206841694907FF
:101FC000F5D535E02068416949070ED4711C65D00C
:101FD000002E00F0B980FFF707FD401BB04200F271
:101FE000B580206841694907F5D5016821F4806111
:101FF00001600069616A0870606A218D01300139F1
:10200000606221852068618D0139618541694907D8
:102010000ED4711C50D0002E00F09680FFF7E4FC27
:10202000401BB04200F29280206841694907F5D513
:10203000016841F4007101600069616A0870606ABA
:102040002268411C6162218D01392185618D013930
:1020500061851169417006E02068416949064DD5E6
:102060000069616A0870606A218D0130013960621F
:102070002185608D0138608508047FF44AAF2AE726
:1020800041694907D4D4416949075CBF41695FEAA6
:102090004171CDD441694907F2D5C9E74169490782
:1020A000A3D4416949075CBF41695FEA41719CD48F
:1020B00041694907F2D598E741694907B8D44169B0
:1020C00049075CBF41695FEA4171B1D44169490781
:1020D000F2D5ADE7FFF788FC202000212022216304
:1020E00084F83D2084F83E10226C1043206484F86C
:1020F0003C10012002B0BDE8F08100BF50F8141F71
:10210000C90601460CD4FFF76FFC00202021206394
:1021100084F83D1084F83E00206C40F020000AE076
:102120006FF01000086000202021206384F83D102B
:1021300084F83E00206C2064002084F83C000120DC
:1021400002B0BDE8F08100BFFFF74EFC0020202167
:10215000206384F83D1084F83E00216C41F020019A
:10216000216484F83C00012002B0BDE8F081000049
:102170002DE9F04381B01F46164688460446FFF716
:1021800033FC94F83D10202920D105462068816950
:10219000890717D5FFF728FC401B1928F6D900201E
:1021A0002021206384F83D1084F83E00216C022633
:1021B00041F02001216484F83C00304601B0BDE8C4
:1021C000F08300BF94F83C10012905D10226304667
:1021D00001B0BDE8F08300BF012184F83C10016824
:1021E000C90703D1016841F001010160016821F4D0
:1021F00000610160212184F83D10102184F83E1017
:102200000021216466626785618D21850021CFF6FA
:10221000FF71E162E16A11F5803F18BF012919D110
:10222000016841F4807101604169DDF82090C907BF
:1022300023D119F1010116D0B9F1000F46D000BF2A
:10224000FFF7D2FB401B484542D820684169C907C7
:10225000F6D012E00829E3D0216B1229E0D0E3E7A1
:102260004169C90709D14169C90706D14169C9074F
:1022700004BF41695FEAC171F2D02169B1F5804FB5
:1022800002D1FE2161E000BF062101EAD811F03140
:1022900001614169090757D4416919F1010201F44B
:1022A00080612FD0002946D1B9F1000F00F04281A2
:1022B000FFF79AFB401B484500F23E8120684169C8
:1022C000090741D441694905F2D534E0FFF78CFB99
:1022D00000202021206384F83D1084F83E00216C0A
:1022E000012641F020012164216884F83C0008683F
:1022F000C00544BF4FF400702064304601B0BDE813
:10230000F08300BFB9B9416909071DD44169490586
:1023100011D44169090717D4416949050BD44169B2
:10232000090711D44169490505D4416909070BD44E
:1023300041694905E7D5016841F4007101606FF416
:10234000806141610420F8E0FF2101EA0801016198
:10235000416989073AD4416919F1010201F48061A8
:1023600012D051BBB9F1000F00F0E080FFF73CFB49
:10237000401B484500F2DC8020684169890725D46C
:1023800041694905F2D518E0B9B9416989071DD4F9
:102390004169490511D44169890717D44169490543
:1023A0000BD44169890711D44169490505D44169B4
:1023B00089070BD441694905E7D5016841F40071EB
:1023C00001606FF4806141610420B6E00026009650
:1023D00041690091816900910099218D002900F0E7
:1023E000958009F10108014651F8142F120635D4E1
:1023F000B8F1000F16D0B9F1000F00F0AF8000BFA8
:102400000868400500F1B280FFF7EEFA401B48452E
:1024100000F2A9802068014651F8142F1206EFD56A
:102420001CE000BF0A68520500F1A0800A6812068D
:1024300014D40A68520500F199800A6812060DD476
:102440000A68520500F192800A68120606D40A68EA
:10245000520500F18B800A681206E3D5636A1946BB
:1024600011F8012B02616162618D01396185278D4F
:102470000146A7F1010CA4F828C051F8142F520707
:102480000DD55FEA0C420AD05A78A7F1020C02611E
:102490009A1C6262628D013A6285A4F828C00A68BB
:1024A00052072FD4B8F1000F14D0B9F1000F7BD030
:1024B0000868400500F18080FFF796FA401B484508
:1024C00077D82068014651F8142F5207F0D5B4F898
:1024D00028C017E00A6852056ED40A68520711D462
:1024E0000A68520568D40A6852070BD40A68520574
:1024F00062D40A68520705D40A6852055CD40A6897
:102500005207E7D55FEA0C417FF46DAF016841F4F3
:1025100000710160202084F83D0084F83E6084F85A
:102520003C60304601B0BDE8F08300BFFFF75CFAC5
:10253000202002E0FFF758FA20200021202221630A
:1025400084F83D2084F83E10226C0126104320645C
:1025500084F83C10304601B0BDE8F08308684005BF
:1025600004D4FFF741FA202004E000BF6FF480603C
:102570000860042000212022216384F83D2084F893
:102580003E10226C1043206484F83C10206C042818
:1025900025D120680126016841F4007101603046B0
:1025A00001B0BDE8F08300BF0868400504D4FFF720
:1025B0001BFA202004E000BF6FF480600860042054
:1025C00000212022216384F83D2084F83E10226CF3
:1025D0001043206484F83C10206C0428D9D00126D4
:1025E000304601B0BDE8F0832DE9F04383B0994651
:1025F00016460F460446FFF7F7F994F83D102029D8
:102600001CD1054620688169890713D5FFF7ECF9CD
:10261000401B1928F6D900202021206384F83D10A2
:1026200084F83E00216C41F02001216484F83C00D4
:1026300004E000BF94F83C10012903D1022003B04C
:10264000BDE8F083012284F83C200368DDE90B1823
:102650000A9ADB0703D1036843F0010303600368B0
:1026600023F400630360212084F83D00402084F8B7
:102670003E000020206462626185608D39462085BD
:102680000020CFF6FF70E062204632464B46CDF880
:102690000080019502F066F820B1012003B0BDE88A
:1026A000F08300BF208D002850D0206808F101067B
:1026B000014651F8142F12062CD49EB1B8F1000F28
:1026C0005AD000BF086840055ED4FFF78DF9401B63
:1026D000404556D82068014651F8142F1206F1D50E
:1026E00018E000BF0A6852054ED40A68120611D4D9
:1026F0000A68520548D40A6812060BD40A685205C3
:1027000042D40A68120605D40A6852053CD40A6805
:102710001206E7D5626A114611F8013B0361238D69
:102720006162591E2185678D013F678547697F0773
:102730000AD50F0408D051780161911C6162991E7D
:102740002185628D013A62850904B1D12046414656
:102750002A4602F041F938BB2068016841F4007153
:102760000160202084F83D00002084F83E0084F8B9
:102770003C0003B0BDE8F0830868400504D4FFF7CF
:1027800033F9202004E000BF6FF48060086004206B
:1027900000212022216384F83D2084F83E10226C21
:1027A0001043206484F83C10206C04287FF475AF3B
:1027B0002068016841F400710160012003B0BDE8A8
:1027C000F0830000B0B586B0016845F60000C4F2A1
:1027D0000000814202D006B0B0BD00BF002443F625
:1027E00030050194C4F202052968122241F020014B
:1027F0002960296800F5DE3001F02001019101997E
:102800000321019104910421059101A9CDE902243C
:10281000FFF710F80094286940F4800028612869C7
:1028200000F480000090009806B0B0BD40F20000B7
:1028300045F66061C2F20000C2F2010100780A6848
:10284000104408607047000080B543F60040C4F2B1
:102850000200016841F400710160016841F4806187
:102860000160016841F480710160032000F088F884
:10287000002000F005F800F027F8002080BD0000DF
:1028800070B540F20006C2F2000640F2080132784C
:10289000C2F200014FF47A730968B3FBF2F2044606
:1028A000B1FBF2F1084600F09DFE0F2C4FF0010540
:1028B00008D838B94FF0FF3021460022002500F03B
:1028C00033F87460284670BD82B0002043F64001A2
:1028D0000190C4F202014A6842F480424A604A68A8
:1028E00002F480420192019A0090086840F0805002
:1028F0000860086800F080500090009802B07047AF
:10290000002848BF7047C1B200F01F00012202FA40
:1029100000F04EF20012CEF2000242EAD10121F0A4
:10292000030108607047000010B54EF60C5CCEF253
:10293000000CDCF80030C3F3022E8EF00704042CE8
:1029400028BF0424BEF103034FF0FF3E0EFA04F447
:1029500038BF0023A14399400EFA03F39A43114371
:1029600000F00F0200F160430901043A03F56443EB
:102970006244002848BF02F10C03197010BD00002A
:102980004EF60C51CEF200010A684FF6FF031A40D2
:1029900060F30A2242F0806040F0FD7008607047EA
:1029A00001220168C0F80025002280F8F42488691B
:1029B00040F000608861486D40F0805040F00302B4
:1029C00000204A65704700002DE9F04F8BB00028C9
:1029D00000F086800446056890F8BD0428B9002000
:1029E00084F8BC04204600F093F8032084F8BD046A
:1029F000E86BC0055CBF00202061206803F096F8FA
:102A0000206804F11C0A0A90D4E90C5004F1040E69
:102A10009AE8C0079EE80E58CDE9085003A880E860
:102A2000C0030A988DE80058CDF81CA002F038FDCC
:102A3000002852D120680021002503F07FF861684A
:102A400061B301200023002203EBC30304EB8307DF
:102A500087F83C20D3B20132A7F84430D3B2994270
:102A600087F83D0087F84050C7E912557D65EBD8DF
:102A700000200023002200BF03EBC30304EB830705
:102A800087F87C220132D3B2994287F87D0287F819
:102A90008002C7E9A200C7F89402EDD8A0682268B6
:102AA0000A90D4E90C5004F1140E04F1240AD4E97C
:102AB00003379EE840589AE80007CDE9085002A87D
:102AC00080E8005810460A9ACDE90076CDE90589DC
:102AD000CDF81CA002F0E4FD30B1022084F8BD0462
:102AE00001200BB0BDE8F08F002084F838000120F1
:102AF00084F8BD04606A012802D12046FFF750FF28
:102B0000206802F0BDFD00200BB0BDE8F08F000092
:102B1000F0B59DB0044601A804305821FDF76FFDC3
:102B20002068B0F1A04F01D01DB0F0BD4FF480700F
:102B3000019001A800F03EF8002818BFFDF73AFF09
:102B4000002743F630061897C4F2020630680024C6
:102B500040F0010030603068C4F2020400F001006F
:102B6000189018984FF4E85018900220CDE91907F2
:102B700003201B900A2018AD1C9020462946FEF722
:102B800059FE4FF40070CDE91807204629461A97E0
:102B9000FEF750FE706840F080007060009770692A
:102BA00040F480407061706900F4804000900098AB
:102BB0001DB0F0BD2DE9F04381B00446006843F636
:102BC0008C06C107C4F2020604D14FF00009810748
:102BD0000CD415E03168A26B21F0C0611143316063
:102BE000B2FA82F14FEA5119810709D53168E26BD7
:102BF00021F0C05111433160002A08BF4FF0010994
:102C0000410705D44FF00008010712D420E000BFAF
:102C10003168226B21F4401111433160B2FA82F124
:102C20004FEA5118B2F5801F08BF4FF001090107A4
:102C30000ED53168626B21F440011143B2F5800F6B
:102C4000316008BF4FF00109002A08BF4FF00108AA
:102C500081065AD50020009056F84C0C47F2000728
:102C600040F0805046F84C0C56F84C0CC4F200076B
:102C700000F0805000900098386840F48070386010
:102C8000FEF7B2FE054600BF3868C00506D4FEF761
:102C9000ABFE401B0228F7D93AE100BF56F81C0CE6
:102CA00010F4407017D0216C01F44071884212D0AA
:102CB00056F81C0C40F64061C4F24721012220F472
:102CC00040700A6000220A6046F81C0C56F81C0C82
:102CD000C00740F071812068216C56F8842C4FF6B3
:102CE000FF4701F4407322F4F812C0F6FF770F405B
:102CF000B3F5407F08BF3A4346F8842C56F81C2CA5
:102D00006FF31F31114346F81C1CC1060AD401069B
:102D100013D4410619D4C1051FD481052AD4410515
:102D200030D438E094F8580040F64061C4F24721AE
:102D3000C1F8A00320680106EBD5B168E26C21F46C
:102D400040011143B1604106E5D5B168A26C21F0A4
:102D500080611143B160C105DFD5B168626D21F0BA
:102D600000611143B160B2F1006F08BF4FF001087C
:102D70008105D4D5B168626C21F080511143B160F6
:102D8000410508D5B168226D21F000511143B2F11F
:102D9000005FB1601ED0B9F1000F1BD1B0F5006F1C
:102DA00018D0B8F1000F4FF0000000F0178168272D
:102DB000C4F24727B860FEF717FE054656F88C0C9C
:102DC000800040F1A980FEF70FFE401B0228F5D9D4
:102DD0009EE000BF40F26809C4F247290020C9F80C
:102DE0000000FEF701FE054656F88C0C000105D5E3
:102DF000FEF7FAFD401B0228F6D989E02068C107DA
:102E000001D0A16B19B1810714D5E16B91B956F8C6
:102E1000081C56F8082CD4E9013501F4403102F0C1
:102E2000706219436769114341EA851141EA0771EC
:102E300046F8081C410703D5216BB1F5801F05D06A
:102E400001071FD5616BB1F5800F1BD156F8081C27
:102E500056F8082CD4E9013701F4403102F0E04281
:102E600019432569114341EA871141EA0561D4F804
:102E700028C046F8081C3168ACF1010221F01F019E
:102E80001143316041051FD5216DB1F1005F1BD1A8
:102E9000271D56F808CC56F8082CA8CFFF034FF68C
:102EA000FF7127EA01014FF0C06702F0E04207EA34
:102EB0004C2707F100771A433A43A1F5803142EAE3
:102EC0008512114346F8081C000510D5271D8FCF29
:102ED00040EA8110D1034FF6FF729143A1F5803192
:102EE00040EA0360084340EA077046F8080C0120F6
:102EF000C9F80000FEF778FD054600BF56F88C0CB7
:102F000000013FF54EAFFEF76FFD401B0228F5D9DB
:102F1000032001B0BDE8F0832068410701D5216B93
:102F200019B101071AD5616BC1B956F8041CD4E96F
:102F3000062301F44031656A114341EA831141EAF5
:102F40000561D4F82CC046F8041C31686FF0FF020C
:102F500021F4F85102EB0C2211433160C00516D563
:102F6000606DB0F1006F12D156F8040C226AD4E9FA
:102F7000061300F07060D2034FF6FF75AA430843B2
:102F8000A2F5803240EA8310104346F8040C012079
:102F9000B860FEF729FD044656F88C0C800007D473
:102FA000FEF722FD001B0328F6D3032016E000BF26
:102FB000002001B0BDE8F083FEF716FD054641F2A2
:102FC000883700BF56F81C0C80073FF584AEFEF72B
:102FD0000BFD401BB8424FF00300F3D901B0BDE830
:102FE000F08300002DE9F041002800F08B8043F6CB
:102FF0000808C4F202080446D8F8F8030D4600F0A9
:103000000F00884207D288F8F853D8F8F80300F088
:103010000F00A84276D12068810717D5410705D552
:10302000D8F8001041F4E051C8F80010010705D5A8
:10303000D8F8001041F46041C8F80010D8F800102A
:10304000A26821F0F0011143C8F80010C0073FD179
:10305000D8F8F80300F00F00A84207D988F8F85311
:10306000D8F8F80300F00F00A8424BD120684107C0
:1030700007D5D8F80010E26821F4E0511143C8F8F0
:103080000010000708D5D8F80000216920F460403E
:1030900040EAC100C8F8000000F07CF8D8F8001041
:1030A00045F62C72C1F30311C0F60002515C40F2E8
:1030B000080220FA01F140F20400C2F200000068A8
:1030C000C2F200021160FFF7DBFB0020BDE8F081D7
:1030D0006068811E022907D258F8081C89015CBF6C
:1030E0000120BDE8F08111E0012807D158F8081C43
:1030F00089035CBF0120BDE8F08107E058F8081C97
:10310000890703D40120BDE8F08100BFD8F8001082
:1031100021F003010843C8F80000FEF765FC0646ED
:1031200041F28837D8F80000616800F00C00B0EB7D
:10313000810F8DD0FEF758FC801BB842F2D90320D6
:10314000BDE8F08140F2080043F60801C2F2000039
:10315000C4F202010068096845F63C72C1F382219D
:10316000C0F60002515CC8407047000040F2080001
:1031700043F60801C2F20000C4F2020100680968C7
:1031800045F63C72C1F34231C0F60002515CC840C2
:103190007047000010B543F60404C4F202046068EE
:1031A000C0F3810142F20040C0F2F400DFE801F018
:1031B0004402081841F20020C0F27A0010BD00BF9E
:1031C000216801F03F02216823684902C3F3881196
:1031D00016D4A1FB00010023FDF76CF817E000BF37
:1031E000216801F03F02216823684902C3F3881176
:1031F00016D4A1FB00010023FDF75CF817E000BF27
:1032000041F20020C0F27A004843B0FBF2F021689E
:103210000222C1F3014102EB4101B0FBF1F010BD0C
:1032200041F20020C0F27A004843B0FBF2F021687E
:10323000C1F30271B0FBF1F010BD00002DE9F041C7
:1032400082B0002800F096800446007843F600061D
:10325000C007C4F202062BD0B06800F00C000428AE
:1032600020D0B06800F00C00082802D1706840023D
:1032700018D4B06800F00C000C2802D1706840022D
:1032800010D46068B0F5803F07D0B0F5A02F40F0B3
:103290003B81306840F480203060306840F48030FA
:1032A00030603BE13068800302D56068002861D05F
:1032B0002078800722D5B06810F00C0F11D0B068CC
:1032C00000F00C00082802D17068400209D5B068EF
:1032D00000F00C000C2840F09F807068400200F164
:1032E0009B803068800702D5E068012842D13068B1
:1032F000216920F0F80040EAC10030602078000722
:103300003CD42078400751D4A56985B3B06800F05B
:103310000C00082840F0A880012D2BD07068E169CE
:1033200000F480028A4225D1216A00F03F028A42DD
:1033300020D147F6C071626A0140B1EB821F19D1FA
:10334000A16A4FF6FF73C903994300F44032A1F517
:1033500080318A420ED1E16A00F07062B2EB016FF7
:1033600008D1216B00F0E040B0EB017F02D10020DA
:1033700034E100BF012002B0BDE8F081606900289F
:1033800040F20000C4F247205ED00121C0F8801E48
:10339000FEF72AFB054600BF706F8007B1D4FEF729
:1033A00023FB401B0228F7D9C5E000BF306C10F0AA
:1033B00080580AD100200190306C40F08050306479
:1033C000306C00F080500190019847F20007C4F281
:1033D00000073868C00511D4386840F48070386040
:1033E000FEF702FB054600BF3868C00506D4FEF7AD
:1033F000FBFA401B0228F7D99DE000BFA068012816
:1034000005D0052852D1306F40F004003067306F8E
:1034100040F00100306753E0E068002860D00020F1
:10342000C4F2472001210160FEF7DEFA054600BF25
:10343000306880073FF55BAFFEF7D6FA401B0228E5
:103440004FF00300F4D9C9E00021C0F8801EFEF758
:10345000CBFA0546706F80077FF553AFFEF7C4FACD
:10346000401B0228F6D966E00027C4F24727002057
:103470003866FEF7B9FA022D05460BD13068800197
:103480005ED5FEF7B1FA401B02284FF00300F5D9D4
:10349000A4E000BF306880017FF569AFFEF7A4FAB1
:1034A000401B02284FF00300F4D997E0316F002849
:1034B00021F001013167316F21F00401316763D0E0
:1034C000FEF792FA054641F2883700BF306F800759
:1034D0006CD4FEF789FA401BB842F7D92BE000BF45
:1034E0000020C4F2472000210160FEF77DFA054666
:1034F000306880077FF502AFFEF776FA401B02289E
:103500004FF00300F4D969E03168002821F48031DC
:103510003160316821F48021316051D0FEF764FAC6
:10352000054600BF306880033FF5C2AEFEF75CFA87
:10353000401B6428F6D9032002B0BDE8F08100BF2B
:1035400004F11C052FCD246B084340EA8210D903F7
:103550004FF6FF729143A1F5803140EA05600843C0
:1035600040EA0470706001203866FEF73DFA0446B8
:10357000306880013FF5FBAEFEF736FA001B0228EB
:103580004FF00300F4D929E0FEF72EFA054641F288
:10359000883700BF306F800708D5FEF725FA401B3B
:1035A000B8424FF00300F5D918E000BFB8F1000FA2
:1035B0007FF4AAAE306C20F080503064A4E600BFE7
:1035C000FEF712FA0546306880037FF571AEFEF70C
:1035D0000BFA401B64284FF00300F4D902B0BDE899
:1035E000F0810000411E0020B0EB116F1CBF0120D4
:1035F00070474EF21002CEF2000251604EF6235197
:10360000CEF20001F0230B7007219060116070472B
:103610007047000070470000B0B590F83C20012AC8
:1036200004BF0220B0BD01F108053CCDD1E900CEB8
:1036300023F47C5322F470521A432EF4F0431A43BD
:103640002CF4E0431A4324F4C0431A432A43C969C3
:1036500022F48042036811435964002180F83C1031
:103660000846B0BD10B590F83C20012A4FF0020288
:1036700051D080F83D200268D2F804E0D2F808C0AA
:103680000C682EF07003234341F2FF74C4F200046F
:10369000A24253600EDC40F2FF73C4F200039A4270
:1036A00016DCB2F1804F2BD040F20043C4F200038D
:1036B00024E000BF40F2FF33C4F201039A4213DC5E
:1036C00041F60003C4F200039A4219D0002313E02C
:1036D00040F60003C4F200039A4211D040F60043C2
:1036E000C4F200030AE000BF44F20003C4F2010385
:1036F0009A4205D040F20043C4F201039A4204D139
:1037000049682CF08003194391600121002280F860
:103710003D1080F83C20104610BD0000002804BF7A
:103720000120704710B5044690F83D0028B90020EC
:1037300084F83C00204600F01FF8022084F83D0089
:103740002068211D01F0F0FB012084F8460084F878
:103750003E0084F83F0084F8400084F8410084F87B
:10376000420084F8430084F8440084F8450084F85B
:103770003D00002010BD000080B582B0006841F21D
:103780000001C4F2000188421CBF02B080BD0020CD
:10379000019043F64000C4F202000168002241F0AB
:1037A000100101600068002100F0100001900198F4
:1037B0003620FFF7B9F8362002B0BDE88040FFF7A9
:1037C0009FB800007047000010B501680446086902
:1037D000800744BFC8685FEA807039D40869400731
:1037E00044BFC8685FEA40703ED40869000744BF20
:1037F000C8685FEA007045D40869C00644BFC8685D
:103800005FEAC0604AD40869C0071CBFC8685FEAA5
:10381000C07051D10869000644BFC8685FEA006003
:1038200052D40869400644BFC8685FEA406053D478
:103830000869800646BFC8685FEA806010BD6FF007
:10384000200220460A61BDE81040FFF7E3BE00BF3A
:103850006FF002000861012020778869800743D05B
:103860002046FFF7AFFF45E06FF00400086102203B
:103870002077886910F4407F40D02046FFF7A2FFF0
:1038800042E000BF6FF00800086104202077C8699B
:1038900080073DD02046FFF795FF3FE06FF0100016
:1038A000086108202077C86910F4407F3AD020468C
:1038B000FFF788FF3CE000BF6FF001000861204681
:1038C00000F04EFA2168A5E76FF0800008612046FD
:1038D000FFF79EFE2168A4E76FF0400008612046D4
:1038E00000F040FA2168A3E7204600F04FF8204698
:1038F00000F0AAF92168002020776FE7204600F049
:1039000045F8204600F0A0F92168002020776CE7F8
:10391000204600F03BF8204600F096F92168002090
:10392000207769E7204600F031F8204600F08CF956
:1039300021680020207766E780B586B00168002006
:10394000C4F20100814201D006B080BD002143F6DF
:1039500030020191C4F20202136800F5883043F08E
:1039600010031360126802F010020192019A4FF4E2
:10397000007201920222CDE90221049101210591F8
:1039800001A9FDF757FF06B080BD00007047000099
:103990002DE9F04390F83C30012B04BF0220BDE834
:1039A000F0834FEAB202032A00F2FC80DFE802F063
:1039B000023E7EBE036840F200471A6A43F4806507
:1039C00022F001021A621C6A1A46D3F804E052F887
:1039D00018CF8E6824F00204C4F20107BD4244EA05
:1039E000060405D1CE6824F00C0426F00406344306
:1039F0000E68BD4207D1D1E905572EF4407E45EA55
:103A00000E0545EA070E2CF073073743C3F804E0B0
:103A10009F614F6809695F631C629F6947F00807EF
:103A20009F619F6927F004079F61B1E0036840F23E
:103A300000481A6A43F4806522F010021A621C6A78
:103A40001A46D3F804C052F818EF8F6824F0200407
:103A5000C4F20108454544EA071407D1CF686FF066
:103A6000400624F0C00406EA07163443D1F800905B
:103A7000454506D1D1E905562CF440672E4347EA67
:103A8000860C2EF4E64747EA0927C3F804C09F6175
:103A90004F6809699F631C629F6947F400679F61D3
:103AA0009F6927F480679F6171E000BF036840F25F
:103AB00000481A6A43F4806522F480721A621C6A14
:103AC0001A46D3F804C052F81CEF8F6824F400742F
:103AD000C4F20108454544EA072408D1CF6840F202
:103AE000FF463F0224F4406427EA06063443D1F837
:103AF0000090454506D1D1E905562CF440572E4398
:103B000047EA061C2EF0730747EA0907C3F804C00A
:103B1000DF614F680969DF631C62DF6947F00807EE
:103B2000DF61DF6927F00407DF6131E0036840F2FD
:103B300000451A6A43F4806722F480521A621A46DA
:103B4000D3F820C05C6852F81CEFD1F800808E6872
:103B5000C4F20105AF4204D14D6924F4804444EA23
:103B600085142CF4005747EA06372EF4E64646EA59
:103B700008265C60DE614E6809691E641F62DF69A9
:103B800047F40067DF61DF6927F48067DF610902BE
:103B90001368194311600021002280F83C20084678
:103BA000BDE8F0830121002280F83C200846BDE8F2
:103BB000F0830000002804BF0120704710B50446C0
:103BC00090F83D0028B9002084F83C00204600F021
:103BD0001FF8022084F83D002068211D01F0A4F99F
:103BE000012084F8460084F83E0084F83F0084F801
:103BF000400084F8410084F8420084F8430084F8CF
:103C0000440084F8450084F83D00002010BD000009
:103C100081B000680021C4F20101884202D001B0E5
:103C2000704700BF0020009043F64400C4F2020039
:103C3000016841F001010160006800F0010000909E
:103C4000009801B0704700007047000041B108299A
:103C500010D0042914BF00F1410200F13F020BE033
:103C600090F83E20012A1CBF01207047022280F8F4
:103C70003E2013E000F140021278012A1CBF01200F
:103C800070470222082907D0042914BF80F8412078
:103C900080F83F2002E000BF80F84020006801F07B
:103CA0001F010122036A02FA01F123EA0102026202
:103CB000026A114341F2FF72C4F2000290420162B3
:103CC0000CDC40F2FF71C4F20001884214DCB0F158
:103CD000804F37D040F2004116E000BF40F2FF3184
:103CE000C4F20101884215DC41F60001C4F2000172
:103CF000884227D0002115E040F60001C4F20001FF
:103D000088421FD040F60041C4F20001884219D019
:103D10001FE000BF44F20001C4F20101884211D04B
:103D200040F20041C4F20101884212D1416C40F2DC
:103D3000004340F48062C4F2010341F400419A421E
:103D4000416406D1816801F00701062904BF002003
:103D50007047016841F001010160002070470000D8
:103D60007047000070470000704700007047000077
:103D700090F83D1090F83E000843C0B27047000034
:103D8000B0B582B0044600680168C368426901F0BA
:103D90002F05202D03F0200506D12DB1204602B0BD
:103DA000BDE8B04001F07EBA5FEA017C1EBF02F0C0
:103DB000010E03F4907212EB0E0253D1226B012A12
:103DC00005D111F0100218BF13F0100236D10A0607
:103DD00022D513F080021FD094F83D1021293FD145
:103DE000A168B1F5805F03D12169002900F07282DA
:103DF000216A4A1C226209784160E18C01390A0477
:103E0000E1842DD1C16821F08001C160C16841F019
:103E10004001C16002B0B0BD490621D513F0400198
:103E20001ED0C16821F04001C1602021204684F8E5
:103E30003D1002B0BDE8B04000F08EBC0021019101
:103E4000016801914168019101994069400613D4CC
:103E5000A08DE18DE28D002A18BF884240F0BE811E
:103E600002B0B0BDCA0718BF13F4807240F0BA8028
:103E70004A0700F1BD80C2E0A16B0868426893B2B6
:103E8000002BEDD0A08D8342EAD2E285C969B1F55D
:103E9000807F00F09D80206850E8030F216820F4A7
:103EA000807041E80302DAB1206850E8030F21680E
:103EB00020F4807041E8030292B1206850E8030FBB
:103EC000216820F4807041E803024AB1206850E87C
:103ED000030F216820F4807041E80302002ADAD140
:103EE000206850E8050F216820F0010041E8050234
:103EF000DAB1206850E8050F216820F0010041E8A0
:103F0000050292B1206850E8050F216820F00100F9
:103F100041E805024AB1206850E8050F216820F009
:103F2000010041E80502002ADAD1206850E8050FB7
:103F3000216820F0400041E80502DAB1206850E82D
:103F4000050F216820F0400041E8050292B1206889
:103F500050E8050F216820F0400041E805024AB111
:103F6000206850E8050F216820F0400041E8050274
:103F7000002ADAD1202084F83E0000202063206847
:103F800050E8030F216820F0100041E80302DAB185
:103F9000206850E8030F216820F0100041E8030278
:103FA00092B1206850E8030F216820F0100041E82A
:103FB00003024AB1206850E8030F216820F0100086
:103FC00041E80302002ADAD1A06BFDF7D5F9A08DF4
:103FD000E18D401A81B2204602B0BDE8B040FFF743
:103FE000C3BE00BF226C42F0010222644A0706D51C
:103FF000BEF1000F03D0226C42F0020222648A0755
:1040000006D5BEF1000F03D0226C42F004022264F8
:10401000BCF1000F09D545EA0E02B2FA82F252094C
:1040200003D1226C42F008022264226C002A3FF481
:1040300017AF11F0200118BF002D03D0204601F06A
:1040400031F920684069216C00F0400001F008015E
:10405000401800F0B58000BF206850E8030F2168C9
:1040600020F4907041E80302BAB3206850E8030FCF
:10407000216820F4907041E8030272B3206850E890
:10408000030F216820F4907041E803022AB32068EE
:1040900050E8030F216820F4907041E80302002AE1
:1040A000DAD11AE0206850E8050F216820F00100FD
:1040B00041E80502DAB1206850E8050F216820F0D8
:1040C000010041E8050292B1206850E8050F21681F
:1040D00020F0010041E805024AB1206850E8050FD0
:1040E000216820F0010041E80502002ADAD1206BA6
:1040F000012824D1206850E8030F216820F0100027
:1041000041E80302DAB1206850E8030F216820F08B
:10411000100041E8030292B1206850E8030F2168C3
:1041200020F0100041E803024AB1206850E8030F74
:10413000216820F0100041E80302002ADAD1202093
:1041400084F83E00002020632068406940063FD587
:10415000206850E8050F216820F0400041E8050282
:10416000DAB1206850E8050F216820F0400041E8EE
:10417000050292B1206850E8050F216820F0400048
:1041800041E805024AB1206850E8050F216820F097
:10419000400041E80502002ADAD1A06BC0B145F227
:1041A0006501C0F600010165FDF72EF900283FF416
:1041B00057AEA06B016D02B0BDE8B040084700BF2C
:1041C0002046FFF7D3FD0020206402B0B0BD00BF41
:1041D000204602B0BDE8B040FFF7C8BD401A2168D4
:1041E00051E8031F226821F4907142E80313DBB108
:1041F000216851E8031F226821F4907142E80313FB
:1042000093B1216851E8031F226821F4907142E8BC
:1042100003134BB1216851E8031F226821F4907108
:1042200042E80313002BDAD1216851E8051F226808
:1042300021F0010142E80513DBB1216851E8051FB7
:10424000226821F0010142E8051393B1216851E889
:10425000051F226821F0010142E805134BB12168D6
:1042600051E8051F226821F0010142E80513002BE7
:10427000DAD1202184F83E1000212163216851E821
:10428000031F226821F0100142E80313002B3FF4C2
:10429000A1AE216851E8031F226821F0100142E815
:1042A0000313002B3FF496AE216851E8031F2268E8
:1042B00021F0100142E80313002B3FF48BAE21687C
:1042C00051E8031F226821F0100142E80313002B7C
:1042D000D4D17FE6216A31F8022B6FF35F2242606E
:1042E00021628AE5002804BF0120704710B504460A
:1042F00090F83D0028B9002084F83C00204600F0EA
:1043000021F8242084F83D002068C16821F4005180
:10431000C160204601F046F82068016921F490410F
:104320000161416921F02A014161C16841F40051F4
:10433000C16000202021206484F83D1084F83E10E4
:1043400010BD0000F0B585B00446016844F60000D9
:10435000C4F20000814201D005B0F0BD002643F652
:1043600030010096C4F202010A69032742F4802258
:104370000A610A6900F5E23002F480220092009A94
:1043800000960A6842F008020A60096801F0080114
:10439000009100994FF4407100910221CDE901167E
:1043A0000721049169460397FDF744FA46F2083560
:1043B00046F25800C2F20005C4F202004FF000615C
:1043C000402285E8470004204FF48063C5E9086077
:1043D0002846C5E90436C5E90666C5E90A762E63AE
:1043E000FDF704F9002818BFFCF7E4FA27200021A4
:1043F00000226563AC63FEF797FA2720FEF780FA88
:1044000005B0F0BD704700002DE9F04381B00446CF
:1044100090F83D0020280DD10F4600294FF00100F3
:1044200000F0DD801646002A00F0D98094F83C00A8
:10443000012803D1022001B0BDE8F083012084F8F7
:104440003C000020206421201D4684F83D00FDF73B
:10445000CBFAA684E684A1680646B1F5805F03D155
:104460002069002800F01081B8460027002084F859
:104470003C00E18C2068002900F0908005F10109E2
:104480000DE000BFB8F1000F28D018F8011B416003
:10449000E18C0139E184E18C002900F07F80016822
:1044A0000906EFD4B9F1000F0AD0FDB1FDF79CFA6F
:1044B000801BA8421AD8206801680906F6D5E1E7F2
:1044C00001680906DED4016809065CBF01685FEA7D
:1044D0000161D7D401680906F2D5D3E737F8021B8A
:1044E0004FF000086FF35F21D1E700BF206850E86C
:1044F000030F216820F4D07041E80302BAB32068AA
:1045000050E8030F216820F4D07041E8030272B331
:10451000206850E8030F216820F4D07041E80302BE
:104520002AB3206850E8030F216820F4D07041E8D6
:104530000302002ADAD11AE0206850E8050F21684A
:1045400020F0010041E80502DAB1206850E8050FCB
:10455000216820F0010041E8050292B1206850E88E
:10456000050F216820F0010041E805024AB12068EA
:1045700050E8050F216820F0010041E80502002AFB
:10458000DAD1202084F83D0084F83E00002084F831
:104590003C00032001B0BDE8F08300BF016849067C
:1045A00019D4FDB1691C0DD10168490613D4016805
:1045B00049065CBF01685FEA41610CD401684906A5
:1045C000F2D508E0FDF710FA801BA8420AD820684F
:1045D00000684006F6D5202084F83D00002001B098
:1045E000BDE8F083206850E8030F216820F4D07004
:1045F00041E80302E2B3206850E8030F216820F489
:10460000D07041E803029AB3206850E8030F216894
:1046100020F4D07041E8030252B3206850E8030F41
:10462000216820F4D07041E80302002ADAD11FE0AB
:10463000206850E8050F216820F0010041E80502DC
:10464000002A9ED0206850E8050F216820F0010064
:1046500041E80502002A3FF494AF206850E8050FB6
:10466000216820F0010041E80502002A3FF489AFEB
:10467000206850E8050F216820F0010041E805029C
:10468000002AD5D17DE700BF4FF00008EEE600001C
:1046900070B5044690F83D0020280BD100294FF05A
:1046A000010055D0002A134608BF70BD94F83C00A5
:1046B000012801D1022070BD012084F83C000026B1
:1046C00021202162A384E384266484F83D002268CB
:1046D000606B45F2ED1C45F29D2E45F27105C0F66A
:1046E000000CC0F6000EC0F600050432C0E90FCE83
:1046F000C0E91356FDF72CF820686FF04001016007
:1047000084F83C60206850E8050F216840F0800084
:1047100041E80502F2B1206850E8050F216840F039
:10472000800041E80502AAB1206850E8050F216821
:1047300040F0800041E8050262B1206850E8050FB2
:10474000216840F0800041E80502002ADAD100200B
:1047500070BD00BF002070BD7047000070470000B2
:10476000FEE700002DE9F04381B004460068904662
:104770000268099D42F4807202604269089E99466F
:10478000D2070F461DD1711C11D0002E00F0D2802F
:10479000FDF72AF9401BB04200F2CE802068416943
:1047A000C907F5D00DE000BF4169C90709D14169CA
:1047B000C90706D14169C90704BF41695FEAC171F0
:1047C000F2D007F0FE0101614169890738D44169DF
:1047D000721C01F4806111D049BB002E00F0E8800A
:1047E000FDF702F9401BB04200F2E4802068416905
:1047F000890725D441694905F2D518E0B9B941695D
:1048000089071DD44169490511D44169890717D425
:10481000416949050BD44169890711D441694905AA
:1048200005D4416989070BD441694905E7D5016879
:1048300041F4007101606FF4806141610420BAE0CD
:1048400000210091014651F8142F00924A6800920D
:10485000009A0A6812061ED4002E00F08580721C91
:104860004DD10A68520500F187800A68120612D4F9
:104870000A68520500F180800A6812060BD40A68A3
:10488000520579D40A68120605D40A68520573D411
:104890000A681206E5D5B9F1010F43D04FEA182195
:1048A0000161014651F8142F12063BD4002E5BD053
:1048B000721C29D10A6852055ED40A68120631D4E6
:1048C0000A68520558D40A6812062BD40A685205A1
:1048D00052D40A68120625D40A6852054CD40A68D4
:1048E0001206E7D51EE000BFFDF77EF8401BB04280
:1048F0003FD82068014651F8142F1206CBD408681F
:104900004005F1D538E000BF0868400534D4FDF714
:104910006BF8401BB0422CD82068014651F8142F88
:104920001206F1D55FFA88F10161002001B0BDE8FF
:10493000F08300BFFDF758F800202021206384F8A1
:104940003D1084F83E00216C41F020012164216873
:1049500084F83C000868C00544BF4FF40070206430
:10496000032001B0BDE8F0830868400504D4FDF7DA
:104970003BF8202004E000BF6FF480600860042052
:1049800000212022216384F83D2084F83E10226C0F
:104990001043206484F83C10206C042817D1206850
:1049A000016841F400710160012001B0BDE8F083AD
:1049B000FDF71AF8202000212022216384F83D20F1
:1049C00084F83E10226C1043206484F83C100120CF
:1049D00001B0BDE8F083000070B50368044653F8E9
:1049E000140F400737D40E46F1B1701C24D100BF1C
:1049F0001868400532D4186840072CD41868400560
:104A00002CD41868400726D41868400526D41868A6
:104A1000400720D41868400520D4186840074FF09C
:104A2000000048BF70BDE3E71868400516D4FCF7E6
:104A3000DBFF202016E000BF154600BF18684005C8
:104A40000CD4FCF7D1FF401BB042F2D8236853F8D6
:104A5000140F4007F2D5002070BD00BF6FF48060D6
:104A60001860042000212022216384F83D2084F86E
:104A70003E10226C10432064012084F83C1070BD6D
:104A800080B546F258200021C2F20000C5F20501AF
:104A9000002220234FF0800C80E80E10C0E9042291
:104AA0008261C0E90822C0E90A220263FBF7DEFF47
:104AB000002808BF80BDEFF3108072B6FEE700004B
:104AC00080B582B0002043F630010190C4F20201AB
:104AD0000A6842F480020A600A6802F480020192C5
:104AE000019A00900868002240F4001008600868ED
:104AF000002100F40010009000980E20FDF714FF34
:104B00000E20FDF7FDFE392000210022FDF70CFFED
:104B1000392002B0BDE88040FDF7F2BE2DE9F04734
:104B200086B0002743F63000CDE904770097C4F241
:104B30000200016841F6000A41F0100101600168BD
:104B4000C4F2020A01F01001009100990097016877
:104B5000AAF5A05541F0040101600168002201F0AE
:104B60000401009100990097016844F2810841F026
:104B700020010160016801F0200100910099009777
:104B8000016841F080010160016801F0800100913D
:104B900000990097016841F001010160016801F08E
:104BA0000101009100990097016841F00201016044
:104BB000016801F00201009100990097016841F03D
:104BC00008010160016801F0080100910099009757
:104BD000016841F040010160006844F2810100F089
:104BE0004000009000982846FCF7F8FE504640210F
:104BF00000224FF04009FCF7F1FE4FF40050019005
:104C00004FF4881001AECDE90207AAF58050314675
:104C1000FCF710FE012428463146CDF80480CDE98A
:104C200002470497FCF706FE50463146CDE9019451
:104C3000CDE90377FCF7FEFD8020CDE90107504662
:104C400031460397FCF7F6FD282000210022FDF7EE
:104C50006BFE2820FDF754FE06B0BDE8F08700008B
:104C600080B546F2683045F60001C2F20000C4F299
:104C7000000148F2A06200234FF4804CC0F2010210
:104C800080E80E00C0E9033CC0E90533C0E9073302
:104C9000FCF7B0FE002808BF80BDEFF3108072B6AD
:104CA000FEE7000010B592B046F6C80000220021D1
:104CB000C2F20000C4F2010214238024CDE91011D5
:104CC0000791C0E90021C0E90213C0E90411846121
:104CD000FEF770FF20B1EFF3108072B6FEE700BF61
:104CE00046F6C800C2F2000010A9FEF7BBFC28B1CE
:104CF000EFF3108072B600BFFEE700BF602009909E
:104D00000A200A9046F6C8000024C2F2000009A951
:104D10000022CDE90B44CDE90D440F94FEF738FE97
:104D200020B1EFF3108072B6FEE700BF4FF40050E1
:104D3000069046F6C800C2F2000001A90594CDE92C
:104D40000344CDE901440894FEF766FC20B1EFF37B
:104D5000108072B6FEE700BF46F6C800C2F200003F
:104D6000FEF7EAFD12B010BD80B582B046F6101015
:104D700041F200020021C2F20000C4F200024FF62C
:104D8000FF73CDE90011C0E90021C0E90213816180
:104D9000FEF7C4FC20B1EFF3108072B6FEE700BF4F
:104DA00046F61010C2F200006946FEF75BFC28B11F
:104DB000EFF3108072B600BFFEE700BF02B080BD07
:104DC00080B546F6581044F60001C2F20000C4F265
:104DD000000100234FF00C0C4FF4E13280E80E008C
:104DE000C0E90333C0E905C3C361FFF77BFA0028BC
:104DF00008BF80BDEFF3108072B600BFFEE7000071
:104E000080B546F2BC30C2F200004FF0A04106224D
:104E1000C0E90012022100220123C0E90312C0E907
:104E20000613C0E90822C0E90B32FDF7CDFD0028CA
:104E300008BF80BDEFF3108072B600BFFEE7000030
:104E4000FEE70000FEE7000070470000704700002A
:104E5000FDF7ECBCB0B594B0002443F64000CDE9BA
:104E60000B44CDE909440694CDE90444CDE902445C
:104E70000194C4F202000168022541F080510160F2
:104E8000006800F080500190019847F20000019402
:104E9000C4F20000016841F440410160006800F480
:104EA000404001900198012007904FF4A020089005
:104EB0004FF480000E9004200F90A820CDE910053B
:104EC0000720CDE9120507A80D95FEF7B7F928B11F
:104ED000EFF3108072B600BFFEE700BF0F20CDE9F0
:104EE00002054FF4A05005904FF48050069002A8A0
:104EF00005210494FEF776F820B1EFF3108072B626
:104F0000FEE700BF14B0B0BD4EF68850CEF20000F0
:104F1000016841F4700101607047000046F610100E
:104F2000C2F20000FEF750BC10B540F6FF3E036829
:104F3000C4F2000E40F2004C7045C4F2010C27DCB4
:104F4000B0F1804F31D040F20042C4F200029042F2
:104F50002BD040F60002C4F20002904225D041F668
:104F6000FF72C4F20002904229DC70453CDCB0F1D3
:104F7000804F5FD040F20042C4F20002904259D00C
:104F800040F60002C4F20002904253D056E000BF47
:104F900040F60042C4F20002904206D0604504D0C0
:104FA0000022C4F201029042D9D14A6823F0700372
:104FB000134341F6FF72C4F200029042D5DD43F67E
:104FC000FF72C4F20102904222DC42F20002C4F2FB
:104FD000000290422ED00022C4F20102904229D059
:104FE000604527D02AE000BF40F60042C4F200022C
:104FF00090421FD041F60002C4F20002904219D044
:1050000041F60042C4F20002904213D016E000BF05
:1050100044F20002C4F2010290420BD044F60002B6
:10502000C4F20102904205D044F20042C4F20102EF
:10503000904203D1CA6823F44073134323F08002E3
:105040004B69D1F800E08C681A430260C46240F4F6
:105050008062C0F828E0624504BF0969016301214C
:10506000416110BD806B0021C185C184FEF77EBE09
:10507000806B01684A6990F83D30212B2DD112F0E8
:1050800080022AD00021C184016851E8031F026810
:1050900021F0C00142E80313DBB1016851E8031FAE
:1050A000026821F0C00142E8031393B1016851E89E
:1050B000031F026821F0C00142E803134BB10168ED
:1050C00051E8031F026821F0C00142E80313002BDE
:1050D000DAD1202180F83D100168496990F83E201E
:1050E000222A40F07D8011F0400179D00021C18555
:1050F000016851E8031F026821F4907142E803132C
:10510000BBB3016851E8031F026821F4907142E8C3
:10511000031373B3016851E8031F026821F490710F
:1051200042E803132BB3016851E8031F026821F41E
:10513000907142E80313002BDAD11AE0016851E8BC
:10514000051F026821F0010142E80513DBB1016887
:1051500051E8051F026821F0010142E8051393B1EF
:10516000016851E8051F026821F0010142E80513BA
:105170004BB1016851E8051F026821F0010142E8C6
:105180000513002BDAD1016B012924D1016851E804
:10519000031F026821F0100142E80313DBB101682C
:1051A00051E8031F026821F0100142E8031393B194
:1051B000016851E8031F026821F0100142E803135F
:1051C0004BB1016851E8031F026821F0100142E869
:1051D0000313002BDAD1202180F83E100021016357
:1051E000016C41F010010164FEF7C0BD0168806BE5
:1051F0000968C90548BFFFF7AFBA0021C18400BFE5
:10520000016851E8051F026821F0800142E805139A
:1052100083B3016851E8051F026821F0800142E86C
:1052200005133BB3016851E8051F026821F08001B6
:1052300042E80513F3B1016851E8051F026821F047
:10524000800142E80513002BDAD113E0016851E830
:10525000031F026841F0400142E80313002B08BF1E
:105260007047016851E8031F026841F0400142E8BD
:10527000031393B1016851E8031F026841F0400134
:1052800042E803134BB1016851E8031F026841F083
:10529000400142E80313002BD8D17047806BFFF721
:1052A0005DBA000081B090F83E10222921D18368B8
:1052B0000246B3F5805F09D152F8281F52F8183C16
:1052C000002B63D003685B680AE000BF52F8281F18
:1052D00013B90369002BF5D003685B6803F07F0303
:1052E0000B70116801311160C18D01390A04C1854B
:1052F00002D001B0704700BF0168CA6822F02002E6
:10530000CA60CA6822F48072CA604A6922F0010247
:105310004A61202180F83E10016B01293ED1002115
:10532000016300BF016851E8031F026821F010010A
:1053300042E80313DBB1016851E8031F026821F062
:10534000100142E8031393B1016851E8031F02689A
:1053500021F0100142E803134BB1016851E8031F2B
:10536000026821F0100142E80313002BDAD1016832
:105370000A68D20606D5002200920A68009249689F
:1053800000910099818D01B0FEF7EEBC0268526871
:105390006FF35F2221F8022B8162A5E701B0FFF7CE
:1053A00031B8000010B504460068D4E902C2236990
:1053B000016921F4405111430161626943EA0C0122
:1053C000E3691143C268194349F20C639A431143DC
:1053D000C1604169A26921F4407141F20043114367
:1053E00040F48062C4F201039A42416102D1FDF7A8
:1053F000BDFE01E0FDF7A6FEE16963681922B1F583
:10540000004FA0FB020123D15A00DB0FFAF752FF35
:1054100048F21F51C5F2EB11A0FB01235A094FF6C8
:105420009C73C0F6FF7303F1805302FB0300322329
:1054300003EBC000A0FB01014FF4F87000EA11106B
:1054400000EB0210C1F3421108442168886010BDCE
:105450009A009B0FFAF72EFF48F21F51C5F2EB118D
:10546000A0FB01235A094FF69C73C0F6FF7302FBA1
:105470000300322303EB0010A0FB0101F02000EA3F
:10548000511000EB0210C1F34311084421688860F9
:1054900010BD000046F65810C2F20000FEF770BCC6
:1054A00082B00499DDF808C0012940F64051C0F2ED
:1054B00003016FD1826B4FF6BF7322F48032826397
:1054C000C268CFF6BD731A40C260C2680B9B22F45B
:1054D0004012012BC26003D1C26842F48012C26044
:1054E00000220092009A01320092009A8A4200F251
:1054F000A9800269002A1ED4009A01320092009A03
:105500008A4200F29F800269002A14D4009A013274
:105510000092009A8A4200F295800269002A0AD419
:10552000009A01320092009A8A4200F28B8002694E
:10553000B2F1FF3FD6DC00220092026942F0010284
:105540000261009A01320092009A8A427AD8026976
:10555000D2071AD0009A01320092009A8A4271D87A
:105560000269D20711D0009A01320092009A8A4251
:1055700068D80269D20708D0009A01320092009AD6
:105580008A425FD80269D207DBD10021BCF1010F4A
:1055900072D169E0C268089B42F04002C2600022FA
:1055A0000192019A01320192019A8A4250D802690D
:1055B000002A1BD4019A01320192019A8A4247D8EB
:1055C0000269002A12D4019A01320192019A8A4298
:1055D0003ED80269002A09D4019A01320192019A47
:1055E0008A4235D80269B2F1FF3FDADC002201922B
:1055F000026942F001020261019A01320192019AAC
:105600008A4225D80269D2071AD0019A0132019242
:10561000019A8A421CD80269D20711D0019A01323C
:105620000192019A8A4213D80269D20708D0019ADE
:1056300001320192019A8A420AD80269D207DBD16B
:10564000002106E00321BCF1010F15D10CE000BFE1
:105650000321826B002B14BF22F4803242F480328B
:105660008263BCF1010F07D1826842F006028260BA
:10567000826842F020028260084602B07047000053
:105680000146D0F8000E20F00300C1F8000ED1F85A
:10569000040840F002020020C1F80428704700000E
:1056A0002DE9F04F83B0DDF84C800E9F0022B8F159
:1056B000000FC0F80421C0F80821C0F80C21C0F880
:1056C0001021C0F81421C0F81821C0F81C21C0F81E
:1056D0002021C0F82421C0F82821C0F82C21C0F8CE
:1056E0003021C0F83421C0F83821C0F83C2107D05F
:1056F000826B00F5006B42F40012826314E000BF7D
:10570000D0F8042800F5006B42F00202C0F804282B
:10571000826B22F400128263026842F0400202604F
:10572000066846F0800606600026C0F8006ED0F8D5
:105730000068012FC0F8006806D1DBF80070002B6C
:1057400018BF47F0010703E0DBF8003043F0030720
:10575000DDF83CE0DDF8309040F64055C0F203053E
:105760000023C0F800780193019B01330193019B52
:10577000AB4249D80369002B1BD4019B0133019331
:10578000019BAB4240D80369002B12D4019B01332B
:105790000193019BAB4237D80369002B09D4019BCD
:1057A00001330193019BAB422ED80369B3F1FF3F54
:1057B000DADC002301934FF484630361019B01331E
:1057C0000193019BAB421FD803699B061AD5019B2D
:1057D00001330193019BAB4216D803699B0611D597
:1057E000019B01330193019BAB420DD803699B06DA
:1057F00008D5019B01330193019BAB4204D8036997
:105800009B06DBD4002400E0012400230293029BCA
:1058100001330293029BAB4248D80369002B1BD48F
:10582000029B01330293029BAB423FD80369002BDA
:1058300012D4029B01330293029BAB4236D8036918
:10584000002B09D4029B01330293029BAB422DD85B
:105850000369B3F1FF3FDADC0023029310230361F5
:10586000029B01330293029BAB421FD80369DB0604
:105870001DD5029B01330293029BAB4216D80369EC
:10588000DB0614D5029B01330293029BAB420DD879
:105890000369DB060BD5029B01330293029BAB42EB
:1058A00004D80369DB06DBD401E000BF01244FF01C
:1058B000000A0029CBF810A0CBF814A0CBF81CA04C
:1058C00000F00681D0F800394FF0006707EA1313A3
:1058D0004FF67F324E1EC0F80039C0F810A9C0F84C
:1058E00008297BD08B1E032B06F003097246009417
:1058F00004D22024B9F1000F3FD165E026F0030463
:1059000000234FF0904E4FF67F384FF0000C00BF51
:1059100000EB0C05D5F82079043C0EEAE777C5F8D2
:105920002079C5F83039C5F82889D5F840790CF1C7
:10593000800C0EEAE777C5F84079C5F85039C5F80C
:105940004889D5F860790EEAE777C5F86079C5F837
:105950007039C5F86889D5F880790EEAE777C5F817
:105960008079C5F89039C5F88889D1D1DDF84C80A7
:105970000CF12004B9F1000F26D000F510673D5955
:105980004FF0904C0CEAE5753B193D5100244FF661
:105990007F3EB9F1010F1C61C3F808E014D01D6A05
:1059A000B9F1020F0CEAE5771F621C63C3F828E027
:1059B0000AD01F6C4FF0904505EAE7771F64002777
:1059C0001F654FF67F379F64DDF83090009C0029FB
:1059D00096464FF67F324FF0006779D0D0F8003B03
:1059E000002E07EA1313C0F8003B4FF00003C0F885
:1059F000103BC0F8082B6BD00239032906F0030CCA
:105A000004D22023BCF1000F3DD161E0009426F0C8
:105A1000030400234FF090474FF67F36002100BF6C
:105A20004518D5F8202B043C07EAE272C5F8202B74
:105A3000C5F8303BC5F8286BD5F8402B01F1800143
:105A400007EAE272C5F8402BC5F8503BC5F8486B31
:105A5000D5F8602B07EAE272C5F8602BC5F8703BF9
:105A6000C5F8686BD5F8802B07EAE272C5F8802B81
:105A7000C5F8903BC5F8886BD2D1009C01F120039A
:105A8000BCF1000F24D000F53062D6584FF090479B
:105A900007EAE676D118D65000264FF67F33BCF1E0
:105AA000010F0E618B6013D00A6ABCF1020F07EA86
:105AB000E2720A620E638B620AD00A6C4FF0904366
:105AC00003EAE2720A6400220A654FF67F328A64B2
:105AD000DBF81010B9F1000F21F48071CBF8101031
