:020000040800F2
:10000000680C002011030008A9480008D53E00082C
:100010008948000825160008115300080000000058
:100020000000000000000000000000003949000846
:100030002916000800000000354900089149000811
:100040002B0300082B0300082B0300082B030008D8
:100050002B0300082B0300082B0300082B030008C8
:100060002B0300082B0300082B0300082B030008B8
:100070002B0300082B0300082B0300082B030008A8
:100080002B0300082B0300082B0300082B03000898
:100090002B0300082B0300082B0300082B03000888
:1000A0002B0300082B0300082B0300082B03000878
:1000B0002B0300082B0300082B0300082B03000868
:1000C0002B0300082B0300082B0300082B03000858
:1000D0002B0300082B0300082B0300082B03000848
:1000E0002D1600082B0300082B0300082B03000823
:1000F0002B0300082B0300082B0300082B03000828
:100100002B0300082B0300082B0300082B03000817
:100110002B0300082B0300082B0300082B03000807
:100120002B0300082B0300082B0300082B030008F7
:100130002B03000800000000000000002B03000853
:100140002B0300082B0300082B0300082B030008D7
:100150002B0300082B0300082B0300082B030008C7
:100160002B0300082B0300082B0300082B030008B7
:100170002B0300082B0300082B03000800000000DD
:10018000000000002B030008000000000000000039
:100190002B03000800000000000000002B030008F3
:1001A0000000000000000000000000002B03000819
:1001B0002B0300082B0300082B0300082B03000867
:1001C0002B03000800F002F800F092F80AA090E873
:1001D000000C82448344AAF10107DA4501D100F002
:1001E00087F8AFF2090EBAE80F0013F0010F18BF3D
:1001F000FB1A43F001031847B8600000D860000004
:10020000103A24BF78C878C1FAD8520724BF30C842
:1002100030C144BF04680C60704700000023002414
:1002200000250026103A28BF78C1FBD8520728BF06
:1002300030C148BF0B6070476E2900F02B827029D7
:1002400000F06D83662905F07C87652905F07987C4
:10025000672905F07687612905F0758703681B0A11
:1002600028BF41F08001692900F0D881642900F09D
:10027000D581752900F0D2816F2900F0FB827829A1
:1002800000F03983E92900F09582E42900F0928298
:10029000F52900F08F82EF2900F0F882F82900F0AC
:1002A00038830368DB0928BF41F08001632901F02E
:1002B0003980732901F03E80E32901F04980F32958
:1002C00001F04E80002070471FB505F02DFF01F0B2
:1002D0009DF804000020002105F010FF401C606024
:1002E0000020002105F0F4FEE0601FBD10B510BD38
:1002F00001F05EF81146FFF7E7FF05F0D7F801F0CF
:100300003BF903B4FFF7F2FF03BC01F083F90000EF
:100310000948804709480047FEE7FEE7FEE7FEE799
:10032000FEE7FEE7FEE7FEE7FEE7FEE704480549D5
:10033000054A064B70470000594A0008C5010008ED
:1003400068060020680C002068080020680800206B
:1003500053EA020C00F069802DE9F04B4FF00006E3
:10036000002B1FBFB3FA83F503FA05F424FA05F650
:100370005E4012BF1643B2FA82F502FA05F4C5F1E7
:1003800020051EBF22FA05FC44EA0C04203556EA7B
:10039000044C4FEA144418BF641C4FF000084FF09F
:1003A0000009904271EB030C39D3002919BFB1FA4F
:1003B00081F701FA07F6B0FA80F700FA07F6C7F1FD
:1003C00020071EBF20FA07FC46EA0C062037B6FBC2
:1003D000F4FCA7EB0507103F07F01F0BCBF120063D
:1003E0002CFA06F60CFA0BFB44BFB3460026202F6E
:1003F000A4BF5E464FF0000B5BEA060C08BF4FF04F
:10040000010B19EB0B0948EB0608ABFB027C06FB62
:1004100002CC0BFB03CCC01B71EB0C01C1E70B46FC
:10042000024641464846BDE8F08B13B5084318BF65
:100430004FF0FF300146AFF30080BDE81C4070472D
:100440000FB41CB5084B06AA7B446946009005987A
:1004500000F039F904460020694600F047F92046CB
:100460001CBC5DF814FB0000A102000040EA01037F
:1004700010B59B070FD1042A0DD310C808C9121F4D
:100480009C42F8D020BA19BA884201D9012010BD87
:100490004FF0FF3010BD1AB1D30703D0521C07E054
:1004A000002010BD10F8013B11F8014B1B1B07D1B8
:1004B00010F8013B11F8014B1B1B01D1921EF1D129
:1004C000184610BD10B5431C02E010F8011B71B1B5
:1004D0008107FAD14FF0013202C88C1A8C4314EA1A
:1004E000C211F9D0C01A0A0603D0C01E10BDC01A2E
:1004F00010BD0A0401D0801E10BD0902FCD0401EB0
:1005000010BD4FF0000200B51346944696462039C0
:1005100022BFA0E80C50A0E80C50B1F12001BFF4BC
:10052000F7AF090728BFA0E80C5048BF0CC05DF822
:1005300004EB890028BF40F8042B08BF704748BF70
:1005400020F8022B11F0804F18BF00F8012B7047E4
:1005500070477047704770B5044685690068C106EA
:1005600001D5302600E02026C00707D070BDD4E9B1
:10057000012130469047206A401C20626D1EF6D54E
:1005800070BD70B5044685690078C00707D170BD9D
:10059000D4E9012120209047206A401C20626D1E72
:1005A000F6D570BD09684A0501D540B27047C90546
:1005B000FCD500B2704709684A0501D5C0B2704742
:1005C000C905FCD580B2704770B50C460546012AB6
:1005D00005D02878800600D5EA69002302E00123CF
:1005E00005E05B1C934202D2E05C0028F9D1A869C7
:1005F000E618C01AA861286A184428622846FFF73E
:10060000AAFF04E0D5E9012114F8010B9047B44298
:10061000F8D32846FFF7B5FF70BD00002DE9F04183
:100620000646002410687529314616A510D0FFF73C
:10063000B9FF002802DA404213A507E031688A07B3
:1006400001D512A502E0490704D511A5012401E056
:10065000FFF7B1FF00210A2206F1240709E0B0FBF1
:10066000F2FCB0FBF2F302FB1C0030307854184669
:10067000491C0028F3D123462A463046BDE8F04104
:1006800000F061BA000000002D0000002B00000007
:100690002000000011680268006A530501D5087047
:1006A0000AE0D30501D5088006E0130603D5C2177A
:1006B000C1E9000200E008600120704701694A1C9E
:1006C00002610878704700B58FB0CDE90131002193
:1006D000059105497944CDE903101146684600F0BB
:1006E00029F90FB000BD0000E5FFFFFF0A6802F81E
:1006F000010B0A60704700002DE9FF5F15468A462E
:100700000446DFF8AC80F8440027D8E900103E46E4
:10071000CDE9001010E03AF816106A4602A800F081
:1007200023FE411C07D02178890603D5E2693918D8
:1007300091420DD80744761C2078800602D5E069E6
:10074000B84205DDAE42E6DB3AF816000028E2D1F9
:10075000A069C01BA0612046FFF7FDFED8E900108C
:10076000CDE90010002017E03AF818106A4602A8F8
:1007700000F0FAFDB0F1FF3F81460BD000250DF1EE
:10078000080B05E0D4E901211BF8050090476D1C1A
:100790004D45F7D308F10100B0428046E4DB206A02
:1007A000384420622046FFF7ECFEBDE8FF9F0000C2
:1007B000425A00002DE9F0418046D21D22F0070286
:1007C0000025D2E90002F52915A614D0011E72F108
:1007D000000106DA0023D0EB030063EB020211A64E
:1007E00008E0D8F800108B0701D50FA602E04907F2
:1007F00001D50EA601251146002408F1240704E0C6
:1008000000F05CF930323A55641C50EA0102F7D12D
:100810002B46324621464046BDE8F04100F093B9F0
:10082000000000002D0000002B0000002000000050
:1008300030B4002100F1240408E002F00705D208DA
:10084000303542EA4372DB086554491C52EA03051D
:10085000F3D10468002310A2250708D504F0200472
:100860000C4304D0C46901230CA2641EC46130BCD3
:1008700000F069B910B5044621461068FFF79BFEE9
:1008800002462046BDE810400023D1E7D21D22F0E9
:100890000701D1E90023CBE7000000003000000091
:1008A000F0B40D460188090502D5214C7C4402E0D4
:1008B0001F4C7C440E34002100F1240608E002F0B5
:1008C0000F071209E75D42EA03721B097754491CBE
:1008D00052EA0307F3D102780023120704D5702DE2
:1008E00006D009B1022311342246F0BC00F02BB926
:1008F00001231034F8E770B504460D462146106810
:10090000FFF759FE024629462046BDE87040002305
:10091000C6E7D21D22F00703D3E90023C0E703682E
:10092000126843F0200303600823C3610023B7E784
:10093000A45800002DE9F05F894604464FF0000AF4
:10094000DFF874B1FB44C0F820A02046E168884776
:10095000002874D0252806D0D4E901219047206AC8
:10096000401C2062F1E700265F462046E168884788
:100970002028054607DB312D05D2781910F8200C08
:1009800008B10643F1E7B00701D526F00406C4F824
:100990001CA00027C4F818A02A2D09D0284605F06D
:1009A0008FFB38B304EB8708303DC8F8185019E0C6
:1009B00059F8041B204604EB87029161E1688847DF
:1009C000012F054618D1E069002820DA26F020061C
:1009D0001DE0D8F8180000EB800005EB400030382F
:1009E000C8F818002046E1688847054605F068FB0E
:1009F0000028EED1012F0AD02E2D08D12046E16823
:100A000088477F1C0546022F46F02006C4DBA069FC
:100A1000002803DA404246F00106A061F00701D049
:100A200026F010066C2D0BD0682D09D04C2D39D036
:100A30006A2D35D0742D35D07A2D33D016E038E0BC
:100A4000E1682F4620468847B842054609D16C2FF9
:100A500026D04FF48060E16806432046884705466B
:100A600004E06C2F1AD04FF4807006430DB3A5F14B
:100A70004100192802D8203546F400664A46294626
:100A8000204626604E46FFF7D7FB80B101280BD0E9
:100A9000F61D26F0070000F1080956E74020E4E7BC
:100AA0008020D8E70020D6E706F104094DE7284664
:100AB00052E7206ABDE8F09F3458000030B5B0F12D
:100AC0000A0271F100034FEA900E4EEA817EB0EB0C
:100AD0000E0061EB91014FEA101E4EEA017E10EB11
:100AE0000E0041EB11114FEA102E4EEA016E10EB91
:100AF0000E0041EB11214FEA104E4EEA014E10EB71
:100B00000E0041EB1141401841F100014FEAD000C5
:100B100040EA41704FEAD1014FEA810444EA9074FF
:100B200010EB800544EB01046D1944EB0404521BE7
:100B3000A3414FF0000348BF0A3200D530BD401C2E
:100B400041F1000130BD2DE9F0470D46994692462E
:100B5000044600F124080168880604D5E06921F004
:100B60001001216000E00120A84201DD471B00E0E8
:100B70000027A1697A1902EB0900081AA061207800
:100B8000C00602D42046FFF7E6FC002608E0D4E9C0
:100B900001211AF806009047206A401C761C20624A
:100BA0004E45F4DB2078C0060AD52046FFF7D3FC7B
:100BB00006E0D4E9012130209047206A401C2062E1
:100BC000381EA7F10107F4DC07E0D4E9012118F889
:100BD00005009047206A401C2062281EA5F10105EF
:100BE000F3DC2046FFF7CDFC2078000602D502207A
:100BF000BDE8F0870120FBE72DE9FF4F0C461E46BC
:100C00004FF0FF378BB0D2E90001DDF860800A9029
:100C10008A46C1F30A5505B93D46002108464FF002
:100C20000000BAF1000F00F4400005DA00EB80008C
:100C30004FF4400101EA50004FEA9059B9F1010F19
:100C400000DDB9460A9850EA4A000ED044F610502A
:100C5000A5F2FF3545432F14B8F1000F1ED07542A1
:100C6000291E1EDDC9F100021CE0B8F1010F4FF092
:100C7000000001D0302103E0F24305E02154401C84
:100C8000B042FBDB30460022002121540B99C1F811
:100C90000880C1E900200FB0BDE8F08FBD1B6D1CBE
:100CA000DEE74A4600DA694206A800F0F3FB06AB2D
:100CB00093E8070003AB83E8070050460A9904F065
:100CC0001FFE8DE80700A0F500501F380090039824
:100CD000002D0ADD42F21F014A460844002303A901
:100CE0000390684605F088F809E0A0F500504A46F0
:100CF0001F38002303A90390684605F092F88DE899
:100D000007000004000C03D04FF0FF30410800E062
:100D10001046B8F1000F03D00022009215461EE0E5
:100D2000751E05D4FFF7CAFE303262556D1EF9D527
:100D3000B3460122084302D000227F1C04E0207841
:100D4000302801D100227F1E002A099784D01DE09F
:100D5000112D07DAFFF7B2FE303262556D1C50EAF2
:100D60000102F5D1084302D00098C8B10EE000217D
:100D7000681E05E0235C625C63542254401E491CDB
:100D80008142F7DBAB46A81B401E0990002004F807
:100D90000B000B98099AC0F80880C0E9002B7AE78D
:100DA00011264FF0000857E72DE9F04F884604461A
:100DB000D21D22F0070191B0D1E90001CDE90A016D
:100DC00005F066F902460B98C00F01D02D2007E010
:100DD0002068810701D52B2002E0202101EAC00014
:100DE000032A099001D0072A05DB03464146204625
:100DF00000F010FB0BE12078800601D5E06900E0EF
:100E00000620B8F1650F814606D0B8F1660F18D0FC
:100E1000B8F1670F70D131E00020B9F1110F0090E7
:100E200001DB112301E009F101030AAA01A90CA8C1
:100E3000FFF7E2FEDDE90C70002609F101058346AB
:100E400047E001204B4600904FF000470AAA01A955
:100E50000CA8FFF7D1FEDDE90DB00C995D46002628
:100E600010B909F101000D18B9EB050003D4C0F168
:100E7000FF3609F10105A5EB09002BE0B9F1010FDF
:100E800001DA4FF001090020B9F1110F0090484636
:100E900001DD112300E003460AAA01A90CA8FFF70F
:100EA000ABFEDDE90C704D46002683462078000736
:100EB0000AD4AB4500DA5D4601A8012D04DD4119D5
:100EC00011F8011C302907D04F4502DA17F1040F41
:100ED00004DA012082460FE06D1EEEE7002F02DCEF
:100EE000ED1B3E4403E0781CA84200DD7D1CB81BCE
:100EF00000F1010A4FF000472078000703D4AA450B
:100F000001DB4FF0FF3A0021B7F1004F0DF143082C
:100F10008DF8431024D002202B23002F01DA7F42CA
:100F20002D230A21021EA0F1010000DC5FB197FB16
:100F3000F1FC97FBF1F201FB1C7C17460CF1300C25
:100F400008F801CDEEE7A8F101000370218809053A
:100F500001D5452100E06521A0F1010800F8011C40
:100F600009980FA9A1EB0807FF1D00B10120411945
:100F700001EBEA70A1693844081A401EA06120788C
:100F8000C00602D42046FFF7E6FA099828B1D4E952
:100F900001219047206A401C20622078C00622D59B
:100FA0002046FFF7D8FA1EE0002E04DBB34502DD31
:100FB00001A8805D00E03020D4E901219047206A3B
:100FC000401C2062761CAAF101005FEA000A0AD1E7
:100FD00000F01CFAC0680168405CD4E90121904728
:100FE000206A401C2062281EA5F10105DCDC07E018
:100FF000D4E9012118F8010B9047206A401C2062B7
:10100000381EA7F10107F3DC2046FFF7BAFA0320E8
:1010100011B041E62DE9F04F04460D46D21D22F0F5
:10102000070089B0D0E900974846394605F030F806
:101030000246F80F01D02D2307E02068810701D573
:101040002B2302E0202101EAC0038DF820300BB1F0
:10105000012000E00020032A824601D0072A04DB99
:101060002946204600F0D6F93FE12078800601D4D9
:101070000D2500E0E569C7F30A560D2D49DA002178
:101080004FEA175B08464FF00000002F00F44000C5
:1010900007DA00EB80004FF4400100EBD07001EA6A
:1010A00060008115012901DD4FF0FF3100224FEA78
:1010B000850CBCF1180F06D31346ACF118004FF0A5
:1010C0008052C24003E04FF4801323FA0CF30CF17A
:1010D0000C0CBCF1200F04D3ACF1200C09FA0CF07D
:1010E00001E007FA0CF000294FF0004801DD18B9C3
:1010F0000FE00ED140450CD319EB02095F4121B935
:10110000404502D19F4329EA0209BBEB175F00D09B
:10111000761C2088000502D57B48784402E07A4896
:101120007844193808AA302302F80A30037C0AF1FF
:101130000101002E0AF1020A53546A4602DC4FF004
:10114000300101E04FF031014FF001088DF800103F
:1011500002D0A6F2FF3603E059EA470100D06B4EF9
:10116000002D02DC2178090704D54FF002082E215A
:101170008DF80110C44600210BE0C7F303433F0183
:10118000C35C491C6D1E02F80830052908F10108EE
:1011900001DA002DF1DC00210CE000EB1973491C91
:1011A0001B786D1E082902F808304FEA091908F16A
:1011B000010801DA002DF0DC21688B0602D516E06B
:1011C000A8F10108E04505DD02EB080313F8013C36
:1011D000302BF5D0B8F1000F09DD02EB080313F84E
:1011E000013C2E2B03D1090701D4A8F10108002DE1
:1011F00005DD3E2102F808106D1E08F10108407C53
:10120000002E02F8080008F1010804DA2D207642C9
:1012100002F8080002E02B2002F808000A214FF42F
:101220007A70864208F101080BDB96FBF0F330334D
:1012300002F8083096FBF0F308F1010800FB136692
:1012400001E0642E0CDB642096FBF0F3303302F8EF
:10125000083096FBF0F308F1010800FB136601E08B
:101260000A2E06DB96FBF1F0303002F8080008F198
:10127000010896FBF1F001FB1060303002F8080025
:10128000A16908F1010808EB050202EB0A00081A3F
:10129000A0612078C00602D42046FFF75CF9216ADD
:1012A00008AE01EB0A00206204E0D4E9012116F83F
:1012B000010B9047BAF1010AF7D22078C00602D597
:1012C0002046FFF748F96E4609E016F8010B3E2864
:1012D0000FD0D4E901219047206A401C2062B8F168
:1012E0000108F2D22046FFF74CF909B00320BDE80F
:1012F000F08F206A2844206203E0D4E901213020E5
:1013000090476D1EEBD3F8E78250000002FCFFFF10
:1013100010B5436913B1AFF3008001E0FFF754F952
:10132000012010BD127800F124010A7000224A70D9
:101330000122EDE711684FF0FF32E9E710B543698C
:1013400013B1AFF3008001E0FFF7D6F9012010BD23
:10135000128800F1240182840022C2840122EDE778
:1013600011684FF0FF32E9E72DE9F04116460C46CF
:10137000054600F043F8036893F80101012807D0FF
:10138000FF2C12D8185D80B101202C70BDE8F081CF
:10139000D3F807013246214603F20713C71828463F
:1013A000BC46BDE8F041002360474FF0FF30EDE759
:1013B000754600F0EBF8AE4605006946534620F04E
:1013C0000700854618B020B5FEF7B0FFBDE8204005
:1013D0004FF000064FF000074FF000084FF0000BF1
:1013E000AC46ACE8C009ACE8C009ACE8C009ACE860
:1013F000C00921F007018D467047000010B500F0CC
:1014000005F8001D10BD00BFF54C000000487047F6
:10141000300000202DE9F0411F46044603260168F4
:10142000072A01F4006004DB08B116A505E016A543
:1014300003E008B115A500E015A521F0100020601B
:10144000A069C01EA0610FB1401EA0612046FFF739
:1014500082F84FB1D4E9012138469047206A401CF8
:101460002062C01C206206E0206AFAE7D4E901216C
:1014700015F8010B9047761EF8D22046FFF781F849
:10148000BDE8F0814E414E006E616E00494E46004F
:10149000696E66002DE9F047814616468AB03548E8
:1014A00078440DC88DE80D0032487844801C03ACA8
:1014B0000DC884E80D0041F69B300844372190FBAD
:1014C000F1F290FBF1F5A5F1800501FB12041B3C44
:1014D00002D56442012000E00020DFF898A0804699
:1014E0000027FA44AAF1BE0A0EE0E0070AD032460D
:1014F000684607EB470101230AEB810104F091FCE8
:101500008DE8070064107F1C002CEED1194F7F443A
:10151000AE3F19E0E80715D007EB04100DF1180AEB
:1015200090E80E008AE80E00C068F04201D19819D8
:1015300008903246012306A903A804F072FC03AB0D
:1015400083E807006D10641C002DE3D14FF0010308
:1015500032466946B8F1000F03A802D004F04CFCF3
:1015600001E004F05EFCC9E90001C9F808200AB0F6
:10157000BDE8F0878C4D000010B50446AFF3008045
:101580002046BDE81040FEF7BCBE00000048704792
:10159000100000200000000030B44FF0013C50F873
:1015A000042B51F8043BCCFA52F4D51A20D1FCB9E3
:1015B00050F8042B51F8043BCCFA52F4D51A17D149
:1015C000B4B950F8042B51F8043BCCFA52F4D51AB4
:1015D0000ED16CB950F8042B51F8043BCCFA52F4FC
:1015E000D51A05D1002CDAD030BC4FF0000070477E
:1015F00029BAB1FA81F111F01801D1F1200084402B
:10160000F2D1CA40CB4012F0FF0213F0FF0330BC0E
:10161000D01A704701491820ABBEFEE72600020031
:1016200070470000704700007047000080B586B02A
:1016300043F61440C4F2010000688004002824D559
:10164000FFE70121009107221723104604F0CAF892
:101650000A2000220192114604F0FEF80099019838
:10166000ADF8141040F20171C0F6172104910A215F
:10167000C0F20071039140F20711C1F207710291AB
:1016800002A90E2203F0F0FEFFE74FF4005000F035
:1016900033F806B080BD000081B0EFF3108072B661
:1016A000009001B07047000080B584B0039000F056
:1016B00039FA0290039801900198013048B1FFE790
:1016C00040F20400C2F20000017801980844019041
:1016D000FFE7FFE700F026FA0299401A01998842D5
:1016E00001D2FFE7F6E704B080BD000081B0ADF89D
:1016F000020001B07047000080B582B0ADF806006E
:1017000043F61440C4F201000068BDF80610084218
:101710000CD0FFE7BDF8060043F61441C4F2010106
:101720000860BDF80600FFF7E1FFFFE702B080BDEB
:101730008DB00C900B9100200990089007900A90B2
:10174000FFE70A980F2800F2BE81FFE70A990120FF
:10175000884009900B9800680999084008900898FB
:101760000999884240F0AA81FFE70B98406800F091
:101770000300012807D0FFE70B98406800F0030042
:1017800002282FD1FFE70C98806807900A98410043
:10179000032000FA01F10798884307900B98C0686E
:1017A0000A99490000FA01F1079808430790079841
:1017B0000C9988600C98406807900A99012000FAFB
:1017C00001F10798884307900B984068C0F3001018
:1017D0000A9900FA01F107980843079007980C99B5
:1017E0004860FFE70B98406800F00300032818D01A
:1017F000FFE70C98C06807900A984100032000FAA0
:1018000001F10798884307900B9880680A9949006E
:1018100000FA01F107980843079007980C99C860EF
:10182000FFE70B98406800F00300022826D1FFE78D
:101830000C980A996FF0030202EA51010844006A09
:1018400007900A9800F0070081000F2000FA01F1CC
:101850000798884307900B9800690A9901F00701DF
:10186000890000FA01F107980843079007980C993E
:101870000A9B02EA530211440862FFE70C980068D1
:1018800007900A984100032000FA01F10798884365
:1018900007900B98406800F003000A99490000FA8D
:1018A00001F107980843079007980C9908600B9876
:1018B00080798007002800F00081FFE7FFE7002023
:1018C000069043F64400C4F20200016841F48041EE
:1018D0000160006800F4804006900698FFE70A98CF
:1018E00020F0030043F60801C4F2010140580790BC
:1018F0000A9800F0030081000F2000FA01F1079818
:10190000884307900C980021C4F20201884203D159
:10191000FFE70020059050E00C9840F20041C4F22F
:101920000201884203D1FFE70120049042E00C98B5
:1019300040F60001C4F20201884203D1FFE7022011
:10194000039034E00C9840F60041C4F20201884252
:1019500003D1FFE70320029026E00C9841F200013A
:10196000C4F20201884203D1FFE70420019018E08D
:101970000C9841F20041C4F20201884203D1FFE712
:10198000052000900AE00C9941F60002C4F2020220
:101990000720914208BF06200090FFE700980190C1
:1019A000FFE701980290FFE702980390FFE7039892
:1019B0000490FFE704980590FFE70598C0B20A99E4
:1019C00001F00301890000FA01F10798084307902C
:1019D00007980A9921F0030143F60802C4F20102B4
:1019E000885043F60840C4F2010000680790089947
:1019F0000798884307900B988079C006002805D582
:101A0000FFE70899079808430790FFE7079843F610
:101A10000841C4F20101086043F60C40C4F2010021
:101A20000068079008990798884307900B98807979
:101A30008006002805D5FFE7089907980843079016
:101A4000FFE7079843F60C41C4F20101086043F632
:101A50000440C4F201000068079008990798884381
:101A600007900B9880798007002805D5FFE7089933
:101A7000079808430790FFE7079843F60441C4F22C
:101A80000101086043F60040C4F2010000680790BD
:101A900008990798884307900B988079C00728B168
:101AA000FFE70899079808430790FFE7079843F670
:101AB0000041C4F201010860FFE7FFE7FFE70A9871
:101AC00001300A903DE60DB07047000083B00290EF
:101AD000ADF80610029840690090009ABDF8060023
:101AE00002EA0001904340EA01400299886103B094
:101AF0007047000082B00190ADF802108DF801200F
:101B00009DF8010028B1FFE7BDF802000199886146
:101B100005E0BDF80200000401998861FFE702B00A
:101B20007047000040F26460C2F200000068704735
:101B300080B58EB00C900C9820B9FFE701208DF88D
:101B4000370043E10C9890F83D0040B9FFE70C994D
:101B5000002081F83C000C9800F05AFCFFE70C993B
:101B6000242081F83D000C980168086820F00100ED
:101B700008600C980168086840F4004008600C9800
:101B80000168086820F40040086001F0EBFB0A904F
:101B90000C98406848F2A061C0F2010188420BD85D
:101BA000FFE70A9948F28042C0F21E0200209142EB
:101BB00038BF012009900AE00A9940F60012C0F2ED
:101BC0003D020020914238BF01200990FFE70998AB
:101BD000012804D1FFE701208DF83700F6E00A98CC
:101BE0004DF68361C4F21B31A0FB0110800C0B90F9
:101BF0000C980068406820F03F000B9908430C994E
:101C0000096848600C980068006A20F03F0008905E
:101C10000C98406848F2A061C0F20101884204D8E3
:101C2000FFE70B98013007900EE00B984FF4967188
:101C3000484344F6D351C1F26201A0FB01010120E7
:101C400000EB91100790FFE70898079908430C995B
:101C5000096808620C980068C0694CF6FF718843F7
:101C600006900C98406848F2A061C0F201018842D9
:101C70001FD8FFE70A9801380C9949684900B0FB62
:101C8000F1F001306FF31F30032803D8FFE7042081
:101C900005900BE00A9801380C9949684900B0FB9F
:101CA000F1F001306FF31F300590FFE705980490C5
:101CB0004CE00C98806868B9FFE70A9801380C99E5
:101CC000496801EB4101B0FBF1F001306FF31F30C7
:101CD00003900DE00A9801380C9949681922514384
:101CE000B0FBF1F00130042161F31F300390FFE7F6
:101CF0000398000518B9FFE70120029023E00C9833
:101D0000806868B9FFE70A9801380C99496801EBC7
:101D10004101B0FBF1F001306FF31F3001900DE095
:101D20000A9801380C99496819225143B0FBF1F027
:101D30000130042161F31F300190FFE7019840F466
:101D400000400290FFE702980490FFE7069804998C
:101D500008430C990968C8610C980068006820F075
:101D6000C0000C9B1968DA691B6A1A4310430860AB
:101D70000C980068806848F2FF3188430C9A11681B
:101D8000D36812691A43104388600C980068C068D1
:101D900020F0FF000C9B19685A699B691A43104395
:101DA000C8600C980168086840F0010008600C9950
:101DB000002008640C9A202182F83D100C990863D9
:101DC0000C9981F83E008DF83700FFE79DF8370049
:101DD0000EB080BD10B58CB0844610980F98DDF819
:101DE00038E0CDF828C0ADF82610ADF82420ADF8C5
:101DF0002230ADF82000FFF795FE07900A9890F882
:101E00003D00202840F0F481FFE70A9807996A46D0
:101E100011600221C0F210010122192302F078FAA8
:101E200020B1FFE702208DF82F00E5E1FFE70A98D7
:101E300090F83C00012804D1FFE702208DF82F0024
:101E4000DAE10A99012081F83C00FFE7FFE70A98F0
:101E500000680068C00738B9FFE70A980168086899
:101E600040F001000860FFE70A980168086820F464
:101E7000006008600A99222081F83D000A994020FC
:101E800081F83E000A99002008640E980A99486279
:101E9000BDF820000A9948850A98408D0A9908855E
:101EA0000A990020CFF6FF70C8620A98BDF8261084
:101EB000BDF82420BDF82230DDF840C0079CEE4676
:101EC000CEF80440CEF800C002F046F820B1FFE79B
:101ED00001208DF82F008FE10A98008DA0B9FFE74F
:101EE000FFE7002006900A980068406906900A986B
:101EF0000068806906900698FFE70A9801680868FC
:101F000040F4007008604DE00A98008D01281AD155
:101F1000FFE70A980168086820F480600860FFE71E
:101F2000002005900A980068406905900A980068AA
:101F3000806905900598FFE70A980168086840F4F1
:101F4000007008602DE00A98008D02281AD1FFE782
:101F50000A980168086820F4806008600A9801689F
:101F6000086840F400600860FFE7002004900A98C9
:101F70000068406904900A98006880690490049899
:101F8000FFE70DE0FFE7002003900A980068406932
:101F900003900A980068806903900398FFE7FFE7C1
:101FA000FFE7FFE7FFE70A98008D002800F00E81A9
:101FB000FFE70A98008D032800F2CC80FFE70A981B
:101FC000008D01281ED1FFE70A981099079A02F0A8
:101FD00087FA20B1FFE701208DF82F000CE10A9865
:101FE000006800690A99496A08700A99486A0130CC
:101FF00048620A99088D013808850A99488D013888
:102000004885A6E00A98008D02283CD1FFE70A988F
:10201000109B07996A4611600421C0F20101002259
:1020200002F076F920B1FFE701208DF82F00E3E000
:102030000A980168086840F4007008600A9800680F
:1020400000690A99496A08700A99486A0130486229
:102050000A99088D013808850A99488D0138488504
:102060000A98006800690A99496A08700A99486ADA
:10207000013048620A99088D013808850A99488D0F
:102080000138488564E00A98109B07996A461160F8
:102090000421C0F20101002202F03AF920B1FFE769
:1020A00001208DF82F00A7E00A980168086820F445
:1020B000806008600A98006800690A99496A087097
:1020C0000A99486A013048620A99088D01380885E2
:1020D0000A99488D013848850A98109B07996A46E5
:1020E00011600421C0F20101002202F011F920B1B7
:1020F000FFE701208DF82F007EE00A98016808684C
:1021000040F4007008600A98006800690A99496AFA
:1021100008700A99486A013048620A99088D0138A6
:1021200008850A99488D013848850A980068006931
:102130000A99496A08700A99486A013048620A99FE
:10214000088D013808850A99488D01384885FFE7D0
:10215000FFE73AE00A981099079A02F0C1F920B116
:10216000FFE701208DF82F0046E00A98006800691B
:102170000A99496A08700A99486A013048620A99BE
:10218000088D013808850A99488D013848850A98D4
:102190000068406900F004010120B0EB910F13D1F9
:1021A000FFE70A98006800690A99496A08700A9965
:1021B000486A013048620A99088D013808850A99F1
:1021C000488D01384885FFE7FFE7ECE60A992020B3
:1021D00081F83D000A99002081F83E00FFE70A9946
:1021E000002081F83C00FFE700208DF82F0003E07D
:1021F00002208DF82F00FFE79DF82F000CB010BDD6
:1022000010B588B084460C980B98DDF828E0CDF81E
:1022100018C0ADF81610ADF81420ADF81230ADF8B6
:102220001000FFF77FFC0390069890F83D002028EF
:1022300040F0E680FFE7069803996A4611600221A4
:10224000C0F210010122192302F062F820B1FFE769
:1022500002208DF81F00D7E0FFE7069890F83C00B9
:10226000012804D1FFE702208DF81F00CCE0069979
:10227000012081F83C00FFE7FFE70698006800684E
:10228000C00738B9FFE706980168086840F0010008
:102290000860FFE706980168086820F4006008609D
:1022A0000699212081F83D000699402081F83E00E2
:1022B0000699002008640A9806994862BDF8100043
:1022C000069948850698408D06990885069900204C
:1022D000CFF6FF70C8620698BDF81610BDF814203E
:1022E000BDF81230DDF830C0039CEE46CEF8044055
:1022F000CEF800C001F022FF20B1FFE701208DF8E9
:102300001F0081E0FFE70698008D002849D0FFE715
:1023100006980C99039A02F047F980B1FFE70698F6
:10232000006C042807D1FFE706980168086840F4AC
:1023300000700860FFE701208DF81F0064E0069838
:102340000168406A007808610699486A013048626D
:102350000699088D013808850699488D0138488509
:1023600006980068406900F004010120B0EB910F6D
:1023700016D1FFE70698008D90B1FFE70698016837
:10238000406A007808610699486A013048620699F7
:10239000088D013808850699488D01384885FFE782
:1023A000B1E706980C99039A01F066FF80B1FFE748
:1023B0000698006C042807D1FFE7069801680868B2
:1023C00040F400700860FFE701208DF81F001BE05B
:1023D00006980168086840F400700860069920209B
:1023E00081F83D000699002081F83E00FFE706993C
:1023F000002081F83C00FFE700208DF81F0003E07B
:1024000002208DF81F00FFE79DF81F0008B010BDE7
:1024100080B588B007900020069005900490039046
:1024200002900798006845F20041C4F2000188421A
:1024300035D1FFE7FFE70020019043F63000C4F2FA
:102440000200016841F002010160006800F0020032
:1024500001900198FFE74FF4107002901220039052
:1024600000200490032005900420069040F20040D4
:10247000C4F2020002A9FFF75BF9FFE70020009019
:1024800043F64000C4F20200016841F4001101600B
:10249000006800F4001000900098FFE7FFE708B024
:1024A00080BD000040F20400C2F20000027840F259
:1024B0006461C2F2000108681044086070470000BF
:1024C00080B582B043F60041C4F20201086840F4CE
:1024D00000700860086840F480600860086840F494
:1024E00080700860032000F08BF80020019000F05D
:1024F00005F800F03BF8019802B080BD80B582B0CD
:10250000009040F20000C2F20000006840F20401B6
:10251000C2F200010A784FF47A71B1FBF2F1B0FB1C
:10252000F1F001F08FFB20B1FFE701208DF80700EB
:1025300018E000980F280DD8FFE700994FF0FF3002
:10254000002200F043F8009840F20801C2F20001B6
:10255000086003E001208DF8070003E000208DF8FB
:102560000700FFE79DF8070002B080BD82B0FFE7DB
:102570000020019043F64400C4F20200016841F4D7
:1025800080410160006800F4804001900198FFE7FD
:10259000FFE70020009043F64000C4F2020001680B
:1025A00041F080510160006800F080500090009878
:1025B000FFE702B07047000080B582B08DF80700D9
:1025C0009DF9070002F0A6FE02B080BD80B586B07E
:1025D0008DF81700049103920020029002F0B2FEE1
:1025E00002909DF91700019002980499039A02F055
:1025F0006BF90146019802F0ADFE06B080BD000007
:1026000080B582B00190019802F0C6FE02B080BD94
:1026100082B0019001980068009001990120C1F8F2
:1026200000050199002081F8F404009A916941F0B5
:1026300000619161009A516D0323C1F200031943B7
:10264000516502B0704700002DE9F04F95B013902E
:10265000139820B9FFE701208DF8530051E113983A
:1026600000681290139890F8BD0440B9FFE71399E1
:10267000002081F8BC04139800F048F9FFE7139993
:10268000032081F8BD041298C06BC005002804D453
:10269000FFE7139900200861FFE71398006802F034
:1026A0001FFD13980E9001680F9141688268C368FE
:1026B000D0F810C044698569C669076AD0F82480DB
:1026C000D0F82890D0F82CA0D0F830B0D0F834E072
:1026D00068461090C0F824E00F98DDF840E0CEF88E
:1026E00020B0CEF81CA0CEF81890CEF81480CEF80A
:1026F0001070CEF80C60CEF80850CEF80440CEF83A
:1027000000C002F0BBFA40B1FFE71399022081F844
:10271000BD0401208DF85300F3E0139800680021F8
:102720000D9102F073FD0D988DF84700FFE79DF8BD
:10273000470013994968884245D2FFE713989DF8EE
:10274000471001EBC10100EB8101012081F83D0040
:102750009DF84700139900EBC00201EB820181F85C
:102760003C009DF84700139900EBC00201EB820189
:10277000A1F8440013989DF8471001EBC10100EB4C
:102780008101002081F8400013999DF8472002EB59
:10279000C20201EB8201886413999DF8472002EB85
:1027A000C20201EB8201C86413999DF8472002EB35
:1027B000C20201EB82014865FFE79DF84700013046
:1027C0008DF84700B3E700208DF84700FFE79DF83C
:1027D00047001399496888423ED2FFE713989DF855
:1027E000471001EBC10100EB8101002081F87D025F
:1027F0009DF84710139A01EBC10302EB830282F8A4
:102800007C1213999DF8472002EBC20201EB820172
:1028100081F8800213999DF8472002EBC20201EB78
:102820008201C1F8880213999DF8472002EBC20289
:1028300001EB8201C1F88C0213999DF8472002EB4D
:10284000C20201EB8201C1F89402FFE79DF8470044
:1028500001308DF84700BAE713980A9001680B9190
:1028600041688268C368D0F810C044698569C66948
:10287000076AD0F82480D0F82890D0F82CA0D0F89F
:1028800030B0D0F834E068460C90C0F824E00B98E3
:10289000DDF830E0CEF820B0CEF81CA0CEF81890CD
:1028A000CEF81480CEF81070CEF80C60CEF8085038
:1028B000CEF80440CEF800C002F0B6FA40B1FFE70F
:1028C0001399022081F8BD0401208DF8530018E00F
:1028D0001399002081F838001399012081F8BD0474
:1028E0001398406A012804D1FFE71398FFF790FE80
:1028F000FFE71398006802F081FA00208DF853007A
:10290000FFE79DF8530015B0BDE8F08F80B5A2B089
:102910002190002020901F901E901D901C9005A8D3
:102920005C21FDF7EEFD21980068B0F1A04F58D171
:10293000FFE74FF48070059000201A9005A800F082
:1029400053F818B1FFE7FEF7A7FEFFE7FFE7002007
:10295000049043F63000C4F20200016841F0010126
:102960000160006800F0010004900498FFE74FF454
:10297000E8501C9002201D90002000901E90032023
:102980001F900A2020900020C4F2020001901CA990
:102990000291FEF7CDFE009A019802994FF4007360
:1029A0001C931D921E92FEF7C3FEFFE743F634010F
:1029B000C4F20201086840F080000860FFE70020D0
:1029C000039043F64400C4F20200016841F48041E0
:1029D0000160006800F4804003900398FFE7FFE780
:1029E000FFE722B080BD000080B58EB00C900020C3
:1029F00001900B900A90099008900790069005901E
:102A0000049003900C980078C00798B1FFE743F654
:102A10008C01C4F20201086820F0C0600C9A926B2D
:102A2000104308600C98806B18B9FFE701200490F0
:102A3000FFE7FFE70C9800788007002813D5FFE731
:102A400043F68C01C4F20201086820F0C0500C9AD1
:102A5000D26B104308600C98C06B18B9FFE70120D7
:102A60000490FFE7FFE70C980078400700281CD58A
:102A7000FFE743F68C01C4F20201086820F440101D
:102A80000C9A126B104308600C98006BB0F5801F15
:102A900003D1FFE701200490FFE70C98006B18B901
:102AA000FFE701200390FFE7FFE70C98007800079D
:102AB00000281CD5FFE743F68C01C4F20201086828
:102AC00020F440000C9A526B104308600C98406B45
:102AD000B0F5800F03D1FFE701200490FFE70C98C9
:102AE000406B18B9FFE701200390FFE7FFE70C9860
:102AF00000788006002840F1AD80FFE7FFE7002066
:102B0000029043F64000C4F20200016841F0805197
:102B10000160006800F0805002900298FFE747F2E1
:102B20000001C4F20001086840F480700860FEF7FC
:102B3000F9FF0B90FFE747F20000C4F200000068C5
:102B4000C00500280CD4FFE7FEF7ECFF0B99401AF4
:102B5000032804D3FFE703208DF83700C6E2EAE735
:102B600043F67000C4F20200006800F440700A905E
:102B70000A9800283ED0FFE70A980C99096C01F4E6
:102B80004071884236D0FFE743F67000C4F202007D
:102B9000016821F440710A9140F64062C4F2472274
:102BA00001211160002111600A9901600068C007CD
:102BB000F8B1FFE7FEF7B6FF0B90FFE743F67000B2
:102BC000C4F20200006800F002010020B0EB510FD7
:102BD0000ED1FFE7FEF7A6FF0B99401A41F28931AB
:102BE000884204D3FFE703208DF837007EE2E5E753
:102BF000FFE7FFE7FFE70C98006C00F44070B0F5CA
:102C0000407F11D1FFE743F60801C4F202010868D2
:102C100020F4F8100C9A126C4FF6FF43C0F6FF73C5
:102C20001A401043086008E043F60801C4F20201AC
:102C3000086820F4F8100860FFE70C98026C6FF346
:102C40001F3243F67001C4F20201086810430860A5
:102C5000FFE7FFE70C980078C006002809D5FFE7DA
:102C60000C9890F8580041F2E011C4F24721086036
:102C7000FFE70C980078000600280CD5FFE743F624
:102C80009401C4F20201086820F440000C9AD26C4E
:102C900010430860FFE70C980078400600280CD528
:102CA000FFE743F69401C4F20201086820F0806057
:102CB0000C9A926C10430860FFE70C984078C007AC
:102CC000A8B1FFE743F69401C4F20201086820F0BE
:102CD00000600C9A526D104308600C98406DB0F182
:102CE000006F03D1FFE701200390FFE7FFE70C9897
:102CF0004078800700280CD5FFE743F69401C4F222
:102D00000201086820F080500C9A526C1043086051
:102D1000FFE70C9840784007002815D5FFE743F6F9
:102D20009401C4F20201086820F000500C9A126D60
:102D3000104308600C98006DB0F1005F03D1FFE70D
:102D400001200490FFE7FFE70498012807D0FFE780
:102D50000C980068B0F5006F40F01681FFE768211D
:102D6000C4F2472100200860FEF7DCFE0B90FFE76D
:102D700043F60000C4F20200006800F00061002089
:102D8000B0EBD16F0CD0FFE7FEF7CCFE0B99401AE9
:102D9000032804D3FFE703208DF83700A6E1E7E717
:102DA0000C980078C00720B1FFE70C98806B50B1F9
:102DB000FFE70C9800788007002829D5FFE70C98DA
:102DC000C06B28BBFFE743F68401C4F20201086828
:102DD00000F44032022000EBD23009900868C0F3C2
:102DE000036008900C9A50689368526940EA831017
:102DF000099BDB034FF6FF7C23EA0C03A3F580332A
:102E00001843089B40EA036040EA02700860FFE74D
:102E10000C9800784007002806D5FFE70C98006B57
:102E2000B0F5801F0CD0FFE70C9800780007002851
:102E300037D5FFE70C98406BB0F5800F31D1FFE735
:102E400043F68401C4F20201086800F44032022013
:102E500000EBD23009900868C0F3027007900C9A1A
:102E600050689368126940EA8310099BDB034FF6B0
:102E7000FF7C23EA0C03A3F58033184340EA026089
:102E8000079A40EA0270086043F68C01C4F202011E
:102E9000086820F01F000C9A926A013A10430860FB
:102EA000FFE70C984078400700282AD5FFE70C98E8
:102EB000006DB0F1005F24D1FFE743F68401C4F256
:102EC0000201086800F44032022000EBD230089082
:102ED0000868C0F3027007900C9A50689368D26833
:102EE00040EA8310D2034FF6FF739A43A2F5803273
:102EF0001043089A40EA0260079A40EA02700860AC
:102F0000FFE70C984078000700281BD5FFE70C99D5
:102F10004868D1F808C0CB680A6940EA8C10DB0326
:102F20004FF6FF7C23EA0C03A3F58033184340EAF5
:102F30000260496940EA017043F68401C4F202016B
:102F40000860FFE76821C4F2472101200860FEF70E
:102F5000E9FD0B90FFE743F60000C4F202000068B1
:102F600000F000610020B0EBD16F0CD1FFE7FEF75D
:102F7000D9FD0B99401A032804D3FFE703208DF8ED
:102F80003700B3E0E7E7FFE70398012840F0AA80A5
:102F9000FFE77021C4F2472100200860FEF7C2FD60
:102FA0000B90FFE743F60000C4F20200006800F057
:102FB00000510020B0EB517F0CD0FFE7FEF7B2FDCF
:102FC0000B99401A032804D3FFE703208DF837003C
:102FD0008CE0E7E70C9800784007002804D5FFE76D
:102FE0000C98006B50B1FFE70C98007800070028A0
:102FF00031D5FFE70C98406B68BBFFE743F68801CB
:10300000C4F20201086800F44032022000EBD23022
:1030100006900C9A9069D369526A40EA8310069B25
:10302000DB034FF6FF7C23EA0C03A3F58033184340
:1030300040EA0260086043F68C01C4F202010868AD
:1030400020F4F8500C9AD36A6FF0FF0202EB0322CF
:1030500010430860FFE70C984078C00700B3FFE713
:103060000C98406DB0F1006F1AD1FFE743F688016C
:10307000C4F202010868C0F3036005900C9A9069DD
:10308000D369126A40EA8310D2034FF6FF739A4362
:10309000A2F580321043059A40EA02600860FFE71B
:1030A0007021C4F2472101200860FEF73BFD0B9020
:1030B000FFE743F60000C4F20200006800F0005190
:1030C0000020B0EB517F0CD1FFE7FEF72BFD0B99F1
:1030D000401A032804D3FFE703208DF8370005E0EA
:1030E000E7E7FFE700208DF83700FFE79DF837009E
:1030F0000EB080BD80B584B002900191029820B9D5
:10310000FFE701208DF80F0021E1019843F600410F
:10311000C4F20201096801F00F01884212D9FFE7E9
:10312000019943F60040C4F202000170006800F00B
:103130000F000199884204D0FFE701208DF80F00AD
:1031400005E1FFE702980078800700282AD5FFE70D
:10315000029800784007002809D5FFE743F60801E8
:10316000C4F20201086840F4E0500860FFE70298EA
:1031700000780007002809D5FFE743F60801C4F2EC
:103180000201086840F460400860FFE743F6080168
:10319000C4F20201086820F0F000029A926810431D
:1031A0000860FFE702980078C00700286ED0FFE7AC
:1031B00002984068012811D1FFE743F60000C4F2ED
:1031C0000200006800F400310020B0EB514F04D140
:1031D000FFE701208DF80F00B9E02CE0029840686D
:1031E000022805D0FFE702984068032811D1FFE7C5
:1031F00043F60000C4F20200006800F000710020F5
:10320000B0EB516F04D1FFE701208DF80F009EE075
:1032100010E043F60000C4F20200006800F0020172
:103220000020B0EB510F04D1FFE701208DF80F0013
:103230008DE0FFE7FFE743F60801C4F202010868EA
:1032400020F00300029A526810430860FEF76AFCFF
:103250000090FFE743F60800C4F20200006800F0A7
:103260000C0002994968B0EB810F0ED0FFE7FEF722
:1032700059FC0099401A41F28931884204D3FFE792
:1032800003208DF80F0062E0E4E7FFE7019843F6C2
:103290000041C4F20201096801F00F01884212D214
:1032A000FFE7019943F60040C4F202000170006894
:1032B00000F00F000199884204D0FFE701208DF84B
:1032C0000F0044E0FFE702980078400700280CD583
:1032D000FFE743F60801C4F20201086820F4E05059
:1032E000029AD26810430860FFE70298007800074E
:1032F00000280DD5FFE743F60801C4F20201086873
:1033000020F46040029A126940EAC2000860FFE7B8
:1033100000F04CF843F60801C4F202010968C9B292
:103320000A0946F24821C0F60001895CC84040F213
:103330000001C2F20001086040F20800C2F2000081
:103340000068FFF7DBF800208DF80F00FFE79DF81D
:103350000F0004B080BD000040F20000C2F2000087
:103360000068704780B5FFF7F7FF43F60801C4F225
:1033700002010968C1F3822246F25821C0F6000119
:10338000895CC84080BD000080B5FFF7E5FF43F6CB
:103390000801C4F20201096889B24A0B46F25821B9
:1033A000C0F60001895CC84080BD000080B586B0D1
:1033B00000200590049003900290019043F60800CD
:1033C000C4F20200006800F00C00014600910C28D5
:1033D00000F29B800099DFE801F0079898980D981B
:1033E000989813989898570042F20040C0F2F40061
:1033F000019090E041F20020C0F27A0001908AE052
:1034000043F60400C4F20200016801F03F01059197
:1034100000684002002813D5FFE743F60400C4F219
:1034200002000068C0F3881041F20021C0F27A0166
:10343000A0FB0101059A0023FCF78AFF049012E02B
:1034400043F60400C4F202000068C0F3881042F2A0
:103450000041C0F2F401A0FB0101059A0023FCF732
:1034600077FF0490FFE743F60400C4F2020000680F
:1034700000F44031022000EBD1300390049803990E
:10348000B0FBF1F0019046E043F60400C4F2020004
:10349000016801F03F01059100684002002813D542
:1034A000FFE743F60400C4F202000068C0F388108E
:1034B00041F20021C0F27A01A0FB0101059A00232C
:1034C000FCF746FF049012E043F60400C4F2020049
:1034D0000068C0F3881042F20041C0F2F401A0FB82
:1034E0000101059A0023FCF733FF0490FFE743F640
:1034F0000400C4F202000068C0F302700290049855
:103500000299B0FBF1F0019005E042F20040C0F2F8
:10351000F4000190FFE7019806B080BD80B586B049
:103520000490049820B9FFE701208DF8170084E388
:1035300004980078C007002800F0BA80FFE743F63F
:103540000800C4F20200006800F00C00042828D033
:10355000FFE743F60800C4F20200006800F00C0028
:1035600008280BD1FFE743F60400C4F2020000680C
:1035700000F48000B0F5800F13D0FFE743F6080099
:10358000C4F20200006800F00C000C281ED1FFE716
:1035900043F60400C4F2020000684002002815D57A
:1035A000FFE743F60000C4F20200006800F40031B7
:1035B0000020B0EB514F08D0FFE70498406820B9D5
:1035C000FFE701208DF8170037E370E0FFE704986C
:1035D0004068B0F5803F09D1FFE743F60001C4F22F
:1035E0000201086840F48030086020E004984068D8
:1035F000B0F5A02F0DD1FFE743F60001C4F20201A0
:10360000086840F480200860086840F48030086052
:103610000CE043F60001C4F20201086820F4803097
:103620000860086820F480200860FFE7FFE7FFE7F4
:1036300004984068E8B1FFE7FEF774FA0390FFE7EB
:1036400043F60000C4F20200006800F400310020DC
:10365000B0EB514F0CD1FFE7FEF764FA0399401A23
:10366000652804D3FFE703208DF81700E5E2E7E7BC
:103670001CE0FEF757FA0390FFE743F60000C4F2A0
:103680000200006800F400310020B0EB514F0CD074
:10369000FFE7FEF747FA0399401A652804D3FFE7CE
:1036A00003208DF81700C8E2E7E7FFE7FFE7FFE731
:1036B000049800788007002840F1A980FFE743F6CE
:1036C0000800C4F20200006810F00C0F26D0FFE7DB
:1036D00043F60800C4F20200006800F00C0008285D
:1036E00009D1FFE743F60400C4F20200006840027B
:1036F000002813D5FFE743F60800C4F20200006873
:1037000000F00C000C282CD1FFE743F60400C4F2B3
:10371000020000684002002823D4FFE743F60000BF
:10372000C4F20200006800F002010020B0EB510F6B
:1037300009D0FFE70498C068012804D0FFE7012002
:103740008DF8170079E243F60001C4F2020108681F
:1037500020F0F800049A126940EAC2000860FFE70E
:1037600054E00498C06870B3FFE70021C4F2472119
:1037700001200860FEF7D6F90390FFE743F600004A
:10378000C4F20200006800F002010020B0EB510F0B
:103790000CD1FFE7FEF7C6F90399401A032804D3BA
:1037A000FFE703208DF8170047E2E7E743F6000143
:1037B000C4F20201086820F0F800049A126940EA95
:1037C000C200086021E00021C4F247210020086007
:1037D000FEF7A8F90390FFE743F60000C4F20200E9
:1037E000006800F002010020B0EB510F0CD0FFE7A1
:1037F000FEF798F90399401A032804D3FFE7032042
:103800008DF8170019E2E7E7FFE7FFE7FFE7049805
:103810000078000700284BD5FFE70498406918B3EB
:10382000FFE740F68061C4F2472101200860FEF7FF
:1038300079F90390FFE743F67400C4F202000068D0
:1038400000F002010020B0EB510F0CD1FFE7FEF7B2
:1038500069F90399401A032804D3FFE703208DF880
:103860001700EAE1E7E722E040F68061C4F2472171
:1038700000200860FEF756F90390FFE743F6740056
:10388000C4F20200006800F002010020B0EB510F0A
:103890000CD0FFE7FEF746F90399401A032804D33A
:1038A000FFE703208DF81700C7E1E7E7FFE7FFE731
:1038B000049800784007002840F1CE80FFE7002000
:1038C0008DF8070043F64000C4F202000068C00013
:1038D000002815D4FFE7FFE70020009043F64000E2
:1038E000C4F20200016841F080510160006800F0FC
:1038F000805000900098FFE701208DF80700FFE757
:1039000047F20000C4F200000068C005002822D47D
:10391000FFE747F20001C4F20001086840F480703C
:103920000860FEF7FFF80390FFE747F20000C4F2DB
:1039300000000068C00500280CD4FFE7FEF7F2F88D
:103940000399401A032804D3FFE703208DF81700DA
:1039500073E1EAE7FFE7FFE704988068012809D1EF
:10396000FFE743F67001C4F20201086840F001006D
:1039700008601FE00498806805280DD1FFE743F632
:103980007001C4F20201086840F004000860086891
:1039900040F0010008600CE043F67001C4F202013F
:1039A000086820F001000860086820F00400086042
:1039B000FFE7FFE7FFE704988068F8B1FFE7FEF74D
:1039C000B1F80390FFE743F67000C4F2020000680C
:1039D00000F002010020B0EB510F0ED1FFE7FEF71F
:1039E000A1F80399401A41F28931884204D3FFE7D4
:1039F00003208DF8170020E1E5E71EE0FEF792F8BE
:103A00000390FFE743F67000C4F20200006800F084
:103A100002010020B0EB510F0ED0FFE7FEF782F855
:103A20000399401A41F28931884204D3FFE7032009
:103A30008DF8170001E1E5E7FFE79DF80700012891
:103A400009D1FFE743F64001C4F20201086820F003
:103A500080500860FFE7FFE704988069002800F0C5
:103A6000E880FFE743F60800C4F20200006800F0B7
:103A70000C00082800F08880FFE70498806902287D
:103A80005FD1FFE76021C4F2472100200860FEF704
:103A900049F80390FFE743F60000C4F20200006813
:103AA00000F000710020B0EB516F0CD0FFE7FEF783
:103AB00039F80399401A032804D3FFE703208DF84F
:103AC0001700BAE0E7E70499C869D1F820C04B6A4B
:103AD0008A6A40EA0C0040EA8310D2034FF6FF7373
:103AE0009A43A2F580321043CA6A40EA0260096B29
:103AF00040EA017043F60401C4F20201086060214B
:103B0000C4F2472101200860FEF70CF80390FFE79C
:103B100043F60000C4F20200006800F000710020CB
:103B2000B0EB516F0CD1FFE7FDF7FCFF0399401A92
:103B3000032804D3FFE703208DF817007DE0E7E7B3
:103B400021E06021C4F2472100200860FDF7EAFF70
:103B50000390FFE743F60000C4F20200006800F0A3
:103B600000710020B0EB516F0CD0FFE7FDF7DAFFDA
:103B70000399401A032804D3FFE703208DF81700A8
:103B80005BE0E7E7FFE753E004988069012804D190
:103B9000FFE701208DF817004FE043F60400C4F260
:103BA0000200006802900498806901283AD0FFE77B
:103BB000029800F480000499C969884232D1FFE775
:103BC000029800F03F000499096A88422AD1FFE771
:103BD000029847F6C07108400499496AB0EB811F0A
:103BE00020D1FFE7029800F440300499896AC903A4
:103BF0004FF6FF729143A1F58031884212D1FFE761
:103C0000029800F070600499C96AB0EB016F09D1A5
:103C1000FFE7029800F0E0400499096BB0EB017FE8
:103C200004D0FFE701208DF8170006E0FFE7FFE76B
:103C3000FFE700208DF81700FFE79DF8170006B09A
:103C400080BD000080B582B00190019800F076FE42
:103C500002B080BD80B582B00090009820B9FFE727
:103C600001208DF807003EE00098806908B1FFE769
:103C700000E0FFE7009890F83D0040B9FFE70099A9
:103C8000002081F83C00009800F032F8FFE700992E
:103C9000242081F83D0000980168C86820F4005095
:103CA000C860009800F0E2FE00980168086920F4FE
:103CB0009040086100980168486920F02A00486136
:103CC00000980168C86840F40050C860009900205E
:103CD0000864009A202182F83D10009A82F83E1074
:103CE0008DF80700FFE79DF8070002B080BD0000D7
:103CF00080B588B00790002006900590049003904E
:103D000002900798006844F60001C4F2000188425E
:103D100035D1FFE7FFE70020019043F64000C4F2F1
:103D20000200016841F480210160006800F48020F5
:103D300001900198FFE7FFE70020009043F6300074
:103D4000C4F20200016841F008010160006800F05F
:103D5000080000900098FFE74FF4407002900220A6
:103D6000039000200490032005900720069040F661
:103D70000040C4F2020002A9FDF7DAFCFFE708B038
:103D800080BD000080B58AB008900791ADF81A2078
:103D9000059300200290089890F83D00202840F0FC
:103DA0009080FFE7079820B1FFE7BDF81A0020B91F
:103DB000FFE701208DF8270087E0FFE7089890F8DB
:103DC0003C00012804D1FFE702208DF827007CE0A9
:103DD0000899012081F83C00FFE7FFE708990020DF
:103DE00008640899212081F83D00FDF79BFE0290B0
:103DF000BDF81A0008998884BDF81A000899C8848B
:103E000008988068B0F5805F09D1FFE708980069DD
:103E100028B9FFE7002004900798039004E0079872
:103E2000049000200390FFE7FFE70899002081F845
:103E30003C00FFE7FFE70898C08C58B3FFE70898FD
:103E4000029B05996A4611608021002200F0ACFEB9
:103E500020B1FFE703208DF8270036E0049858B919
:103E6000FFE7039800886FF35F20089909684860AE
:103E700003980230039008E00498007808990968D4
:103E80004860049801300490FFE70899C88C013815
:103E9000C884D0E70898029B05996A4611604021C2
:103EA000002200F081FE20B1FFE703208DF82700FB
:103EB0000BE00899202081F83D0000208DF82700B4
:103EC00003E002208DF82700FFE79DF827000AB0E5
:103ED00080BD000080B596B046F2A621C0F6000174
:103EE00002A80190FCF7ACFA019801F0A5FB16B00E
:103EF00080BD000082B0009000980068406900F426
:103F000080610120B0EB912F1ED1FFE7009801687E
:103F10006FF480604861009900200863009A2021B6
:103F200082F83D10009981F83E000099086C40F03D
:103F300004000864FFE70099002081F83C00FFE7D7
:103F400001208DF8070003E000208DF80700FFE74F
:103F50009DF8070002B0704780B586B0DDF824C038
:103F6000DDF820C00490ADF80E10ADF80C20ADF8CF
:103F70000A3004980168086840F48060086004987A
:103F80000168086840F4807008600498089B0999EB
:103F90006A4611604FF00111002200F0B9F980B1BA
:103FA000FFE7049800680068C005002805D5FFE712
:103FB00004994FF400700864FFE703208DF81700A0
:103FC000B7E0BDF80E0000F0FE0004990968086132
:103FD0000498089A099B0221C0F2010100F0F8F947
:103FE00020B1FFE701208DF81700A2E0FFE70020D5
:103FF0000190049800684069019004980068806905
:1040000001900198FFE704980899099A00F0CCFA0A
:1040100080B1FFE70498006C042807D1FFE70498FB
:104020000168086840F400700860FFE701208DF81F
:1040300017007EE0BDF80A00012806D1FFE79DF8D1
:104040000C0004990968086121E09DF80D000499AD
:104050000968086104980899099A00F0A5FA80B1E6
:10406000FFE70498006C042807D1FFE70498016873
:10407000086840F400700860FFE701208DF8170021
:1040800057E09DF80C00049909680861FFE704985F
:104090000899099A00F088FA80B1FFE70498006C4B
:1040A000042807D1FFE704980168086840F400700D
:1040B0000860FFE701208DF817003AE004980168D6
:1040C000086840F4807008600498089B09996A4663
:1040D00011604FF00111002200F01AF980B1FFE7E2
:1040E000049800680068C005002805D5FFE704991A
:1040F0004FF400700864FFE703208DF8170018E004
:104100009DF80E0040F001000499096808610498C8
:10411000089A099B0221C0F2010100F059F920B16F
:10412000FFE701208DF8170003E000208DF817004D
:10413000FFE79DF8170006B080BD000080B586B08F
:10414000DDF824C0DDF820C00490ADF80E10ADF805
:104150000C20ADF80A3004980168086840F48070BB
:1041600008600498089B09996A4611604FF0011194
:10417000002200F0CDF880B1FFE7049800680068E5
:10418000C005002805D5FFE704994FF400700864C6
:10419000FFE703208DF8170069E0BDF80E0000F07E
:1041A000FE000499096808610498089A099B022195
:1041B000C0F2010100F00CF920B1FFE701208DF8F9
:1041C000170054E0FFE70020019004980068406960
:1041D000019004980068806901900198FFE70498B5
:1041E0000899099A00F0E0F980B1FFE70498006CA3
:1041F000042807D1FFE704980168086840F40070BC
:104200000860FFE701208DF8170030E0BDF80A00D4
:10421000012806D1FFE79DF80C00049909680861A0
:1042200021E09DF80D000499096808610498089937
:10423000099A00F0B9F980B1FFE70498006C0428EE
:1042400007D1FFE704980168086840F4007008602F
:10425000FFE701208DF8170009E09DF80C00049994
:1042600009680861FFE700208DF81700FFE79DF857
:10427000170006B080BD000080B584B002900191A7
:104280000092FFE702980068406900F004010020F6
:10429000B0EB910F33D1FFE70298FFF72BFE20B16F
:1042A000FFE701208DF80F002DE00198013028B3C1
:1042B000FFE7FDF737FC0099401A0199884203D8BF
:1042C000FFE70198C8B9FFE7029900200863029A46
:1042D000202182F83D10029981F83E000299086C75
:1042E00040F020000864FFE70299002081F83C00BC
:1042F000FFE701208DF80F0005E0FFE7C2E700208F
:104300008DF80F00FFE79DF80F0004B080BD00009E
:1043100080B586B0DDF820C0049003918DF80B20A5
:104320000193FFE79DF80E0001280CD1FFE70498E8
:1043300000684069BDF80C100840401AB0FA80F0DF
:10434000400900900BE0049800688069BDF80C10EB
:104350000840401AB0FA80F040090090FFE700984A
:104360009DF80B1088422AD1FFE70198013028B34D
:10437000FFE7FDF7D7FB0899401A0199884203D857
:10438000FFE70198C8B9FFE7049900200863049A81
:10439000202182F83D10049981F83E000499086CB0
:1043A00040F020000864FFE70499002081F83C00F9
:1043B000FFE701208DF8170005E0FFE7B2E70020D6
:1043C0008DF81700FFE79DF8170006B080BD0000CC
:1043D00080B586B00490039102920193FFE79DF8A7
:1043E0000E0001280CD1FFE7049800684069BDF871
:1043F0000C100840401AB0FA80F0400900900BE021
:10440000049800688069BDF80C100840401AB0FAA2
:1044100080F040090090FFE70098002858D1FFE79E
:1044200004980068406900F480610120B0EB912F8E
:1044300024D1FFE704980168086840F40070086020
:10444000049801686FF48060486104990020086353
:10445000049A202182F83D10049981F83E000499C5
:10446000086C40F004000864FFE70499002081F81C
:104470003C00FFE701208DF817002DE00298013085
:1044800028B3FFE7FDF74EFB0199401A02998842D5
:1044900003D8FFE70298C8B9FFE704990020086332
:1044A000049A202182F83D10049981F83E00049975
:1044B000086C40F020000864FFE70499002081F8B0
:1044C0003C00FFE701208DF8170005E0FFE786E7D5
:1044D00000208DF81700FFE79DF8170006B080BD9B
:1044E00080B584B0029001910092FFE702980068C5
:1044F000406900F040010020B0EB911F4BD1FFE775
:1045000002980068406900F010010120B0EB111F13
:104510001CD1FFE7029801686FF010004861029912
:1045200000200863029A202182F83D10029981F848
:104530003E000299086C0864FFE70299002081F8A8
:104540003C00FFE701208DF80F0028E0FDF7EAFAB4
:104550000099401A0199884203D8FFE70198C8B929
:10456000FFE7029900200863029A202182F83D109B
:10457000029981F83E000299086C40F0200008641E
:10458000FFE70299002081F83C00FFE701208DF849
:104590000F0004E0AAE700208DF80F00FFE79DF868
:1045A0000F0004B080BD000080B584B0029001917E
:1045B0000092FFE7029800684069C1B20020B0EBAA
:1045C000D11F33D1FFE70298FFF794FC20B1FFE73A
:1045D00001208DF80F002DE00198013028B3FFE78E
:1045E000FDF7A0FA0099401A0199884203D8FFE725
:1045F0000198C8B9FFE7029900200863029A2021B8
:1046000082F83D10029981F83E000299086C40F052
:1046100020000864FFE70299002081F83C00FFE7D2
:1046200001208DF80F0005E0FFE7C3E700208DF8BB
:104630000F00FFE79DF80F0004B080BD80B594B077
:10464000002013901290119010900F90FFE700201F
:104650000E9043F63000C4F20200016841F00401FC
:104660000160006800F004000E900E98FFE7FFE77D
:1046700000200D9043F63000C4F20200016841F0C2
:1046800080010160006800F080000D900D98FFE748
:10469000FFE700200C9043F63000C4F202000168EE
:1046A00041F002010160006800F002000C900C98DB
:1046B000FFE7FFE700200B9043F63000C4F2020052
:1046C000016841F008010160006800F008000B90EB
:1046D0000B98FFE7FFE700200A9043F63000C4F292
:1046E0000200016841F040010160006800F04000F4
:1046F0000A900A98FFE7FFE70020099043F6300090
:10470000C4F20200016841F001010160006800F09C
:10471000010009900998FFE740F20040C4F202004E
:10472000029044F28101019100220792FDF7E2F923
:10473000079A41F60000C4F202000590402103915F
:10474000FDF7D8F907984FF400510F914FF48811F5
:104750001091119040F60000C4F202000FA90691DA
:10476000FCF7E6FF019B02980699079A0F93012335
:104770000493109311921292FCF7DAFFDDF80CC04B
:10478000049B05980699079ACDF83CC010931192A6
:104790001292FCF7CDFF05980699079A80230F9394
:1047A00010921192FCF7C4FF079A28200890114636
:1047B000FDF70CFF0898FDF7FFFE14B080BD000068
:1047C00080B582B040F27000C2F20000019045F264
:1047D0000041C4F20001016048F2A061C0F2010191
:1047E000416000218160C1604FF4804202614161FB
:1047F0008161C1610162FDF79BF918B1FFE7FCF728
:104800004BFFFFE702B080BD80B582B040F2D050D0
:10481000C2F20000019044F60001C4F20001016000
:104820004FF41641416000218160C16001610C229A
:1048300042618161C161FFF70DFA18B1FFE7FCF732
:104840002BFFFFE702B080BD80B582B040F2C4000C
:10485000C2F2000001904FF0A041016006214160CA
:104860000222C2600021016182610122C2610162F3
:104870004162C2620163FDF7E7FE18B1FFE7FCF792
:104880000BFFFFE702B080BD80B596B046F29721DE
:10489000C0F6000102A80190FBF7D2FD019800F0DC
:1048A000CBFE16B080BD000080B596B046F2A221C6
:1048B000C0F6000102A80190FBF7C2FD019800F0CC
:1048C000BBFE16B080BD000088B00790069105922F
:1048D000079800F0070004900498C0F1070005282D
:1048E00003D3FFE70420019004E00498C0F107001F
:1048F0000190FFE70198039004980430062803D83C
:10490000FFE70020009003E0049803380090FFE7E1
:104910000098029006980399012202FA01F10139E8
:104920000840029B984005999A40013A114008437B
:1049300008B07047704700007047000080B582B033
:10494000009000980138B0F1807F03D3FFE7012089
:10495000019019E0009801384EF21401CEF20001E6
:1049600008604FF0FF300F2100F0F4FC4EF2180108
:10497000CEF20001002008604EF21002CEF20002DA
:10498000072111600190FFE7019802B080BD00008F
:1049900080B5FDF787FD80BD80B594B007A83421B0
:1049A000FBF7AFFD00200690059004900390029065
:1049B000FFE70020019043F64000C4F202000168C6
:1049C00041F080510160006800F080500190019832
:1049D000FFE7FFE70020009047F20000C4F200006C
:1049E000016841F440410160006800F440400090DB
:1049F0000098FFE7012007904FF4A02008900220C4
:104A00000D904FF480010E9104210F91A821109177
:104A1000119007211291139007A8FEF77FFD18B19E
:104A2000FFE7FCF739FEFFE70F200290022003901A
:104A3000002004904FF4A05005904FF48050069051
:104A400002A80521FEF756FB18B1FFE7FCF724FE8C
:104A5000FFE714B080BD00004EF68851CEF2000191
:104A6000086840F4700008607047000080B586B0A8
:104A7000059005980068006920F44050059A116877
:104A8000D26810430861059988680B694A69C96949
:104A9000184310430843049005980068C06849F221
:104AA0000C6188430499084305990968C860059812
:104AB0000068406920F44070059A116892691043BB
:104AC00048610598006841F20001C4F20101884282
:104AD00009D0FFE70598006841F20041C4F20101E6
:104AE000884204D1FFE7FEF74FFC039003E0FEF796
:104AF00039FC0390FFE70598C069B0F5004F29D154
:104B0000FFE703981921A0FB0101059A136802939E
:104B100053685A00DB0FFBF71BFC0299864648F2EC
:104B20001F53C5F2EB13AEFB0320420910014FF0F7
:104B3000640C02FB1CEC322202EBCC02A2FB03321F
:104B4000F82303EA521300EB4300C2F3421210446D
:104B5000886026E003981921A0FB0101059A1368DB
:104B6000019353689A009B0FFBF7F2FB019984466F
:104B700048F21F52C5F2EB12ACFB0230430964202D
:104B800003FB10CC322000EB0C10A0FB0202F02043
:104B900000EA521000EB0310C2F343121044886085
:104BA000FFE706B080BD000080B588B0DDF828C002
:104BB000069005918DF813200393FFE7069800688F
:104BC000006805990840401AB0FA80F040099DF845
:104BD0001310884249D1FFE70A980130002843D0DA
:104BE000FFE70A9840B1FFE7FCF79CFF0399401AE2
:104BF0000A99884237D9FFE7FFE7FFE70698006880
:104C000050E8030F20F4D0700290FFE70299069855
:104C1000026842E803100028F0D1FFE7FFE7FFE752
:104C2000FFE70698006850E8050F20F001000190AA
:104C3000FFE701990698026842E805100028F0D1C4
:104C4000FFE7FFE70699202081F83D00069981F8EB
:104C50003E00FFE70699002081F83C00FFE70320B3
:104C60008DF81F0005E0FFE7A8E700208DF81F0082
:104C7000FFE79DF81F0008B080BD00002DE9F04F50
:104C800091B00191DDF88CB0DDF888A0DDF884905A
:104C9000DDF880801F9F1E9E1D9D1C9CDDF86CE032
:104CA000DDF868C001990199CDF840B0CDF83CA07D
:104CB000CDF83890CDF834800C970B960A9509946E
:104CC000CDF820E0CDF81CC0069305920491039026
:104CD0000998012822D1FFE70399886B20F48030DE
:104CE00088630399C8684FF6BF72CFF6BD72104053
:104CF000C8600399C86820F44010C8601098012863
:104D000006D1FFE70399C86840F48010C860FFE748
:104D1000039800F031F88DF80B0019E00399C8688A
:104D200040F04000C860039800F026F88DF80B00B2
:104D30000D9830B9FFE70399886B40F480308863A1
:104D400005E00399886B20F480308863FFE7FFE774
:104D5000079801280BD1FFE70399886840F0060007
:104D600088600399886840F020008860FFE79DF81C
:104D70000B0011B0BDE8F08F83B0019000200090CF
:104D8000FFE7009801300090009840F64151C0F2D2
:104D90000301884204D3FFE703208DF80B0028E0CD
:104DA000FFE701980069C00F0028EAD0FFE7002064
:104DB00000900199086940F001000861FFE7009840
:104DC00001300090009840F64151C0F20301884242
:104DD00004D3FFE703208DF80B000AE0FFE70198FA
:104DE0000069C0070028EAD1FFE700208DF80B001A
:104DF000FFE79DF80B0003B07047000082B0019000
:104E0000019800900099D1F8000E20F00300C1F83D
:104E1000000E0099D1F8040840F00200C1F804081F
:104E2000002002B0704700002DE9F04F93B00191CF
:104E3000DDF894B0DDF890A0DDF88C90DDF8888086
:104E4000219F209E1F9D1E9CDDF874E0DDF870C040
:104E500001990199CDF848B0CDF844A0CDF8409023
:104E6000CDF83C800E970D960C950B94CDF828E06C
:104E7000CDF824C0089307920691059000208DF884
:104E80001300059903910290FFE702980E280CD8B1
:104E9000FFE70598029900EB81010020C1F80401A9
:104EA000FFE7029801300290EFE71098B8B9FFE7EA
:104EB0000399D1F8040840F00200C1F804080599EC
:104EC000886B20F4001088630599086840F0400062
:104ED00008600599086840F08000086005E00599C1
:104EE000886B40F400108863FFE703990020C1F845
:104EF000000E0399D1F80008C1F800080B980128AA
:104F00000ED1FFE7089828B9FFE70598002100F0C7
:104F1000EDF904E00598012100F0E8F9FFE704E06D
:104F20000598032100F0E2F9FFE70598102100F051
:104F300021F920B1FFE701208DF81300FFE7059864
:104F400000F0D8F820B1FFE701208DF81300FFE74B
:104F500003990020C1F810080399C1F814080399B7
:104F6000C1F81C080290FFE70298069988423BD2DC
:104F7000FFE70398029900EB4110D0F80009C00F39
:104F8000B0B1FFE7029848B9FFE70398029900EB38
:104F900041114FF00060C1F8000908E00398029940
:104FA00000EB41114FF09040C1F80009FFE707E026
:104FB0000398029900EB41110020C1F80009FFE7B6
:104FC0000398029900EB41110020C1F810090398E1
:104FD000029900EB41114FF67F30C1F80809FFE755
:104FE000029801300290BFE700200290FFE702988C
:104FF000069988423BD2FFE70398029900EB4110E3
:10500000D0F8000BC00FB0B1FFE7029848B9FFE736
:105010000398029900EB41114FF00060C1F8000BBA
:1050200008E00398029900EB41114FF09040C1F85D
:10503000000BFFE707E00398029900EB4111002005
:10504000C1F8000BFFE70398029900EB4111002023
:10505000C1F8100B0398029900EB41114FF67F3015
:10506000C1F8080BFFE7029801300290BFE70399EF
:10507000D1F8100820F48070C1F8100805990020BC
:10508000886105996FF080404861099830B9FFE761
:105090000599886940F010008861FFE705998869E3
:1050A00043F60002C8F23C02104388610C9830B10C
:1050B000FFE70599886940F008008861FFE71098CC
:1050C000012808D1FFE7059988690422C4F200028B
:1050D00010438861FFE79DF8130013B0BDE8F08F1F
:1050E00081B000900099886820F00100886000205D
:1050F00001B0704783B0019000200090FFE7009856
:1051000001300090009840F64151C0F203018842FE
:1051100004D3FFE703208DF80B0027E0FFE7019899
:105120000069C00F0028EAD0FFE700200090019935
:1051300010200861FFE7009801300090009840F6C9
:105140004151C0F20301884204D3FFE703208DF8E8
:105150000B000BE0FFE70198006900F01000102839
:10516000E9D0FFE700208DF80B00FFE79DF80B006A
:1051700003B0704784B00290019100200090FFE7D7
:10518000009801300090009840F64151C0F20301B0
:10519000884204D3FFE703208DF80F0029E0FFE7E2
:1051A00002980069C00F0028EAD0FFE700200090B5
:1051B00001988001203002990861FFE700980130D2
:1051C0000090009840F64151C0F20301884204D398
:1051D000FFE703208DF80F000BE0FFE7029800695E
:1051E00000F020002028E9D0FFE700208DF80F0014
:1051F000FFE79DF80F0004B07047000081B00090F9
:105200000098406900F0010001B0704780B586B099
:1052100004908DF80F10002002900499C86820F0C7
:10522000C040C8609DF80F00012823D1FFE7049912
:10523000C86840F00050C860FFE70120FCF734FA6E
:10524000029801300290FFE70498FFF7D7FF01466C
:1052500000200129019007D0FFE7029900203229A0
:1052600038BF01200190FFE70198C0070028E4D172
:10527000FFE72AE09DF80F0010BBFFE70499C8681C
:1052800040F08040C860FFE70120FCF70DFA02986B
:1052900001300290FFE70498FFF7B0FF01460020BD
:1052A000009039B1FFE702990020322938BF012070
:1052B0000090FFE70098C0070028E5D1FFE703E072
:1052C00001208DF817000CE0FFE70298322804D186
:1052D000FFE701208DF8170003E000208DF817008C
:1052E000FFE79DF8170006B080BD000083B0029074
:1052F0008DF80710029800909DF807200099D1F8CA
:1053000000081043C1F80008002003B070470000F7
:105310007047000081B08DF803009DF9030000285C
:105320000ED4FFE79DF9031001F01F020120904009
:105330004A094EF20011CEF2000141F82200FFE7C7
:1053400001B070474EF60C50CEF200000068C0F37A
:105350000220704782B08DF8070000919DF9070088
:1053600000280AD4FFE7009800019DF907104EF2CB
:105370000042CEF2000288540BE0009800019DF834
:10538000071001F00F014EF61452CEF200028854BD
:10539000FFE702B07047000083B00290029800F06F
:1053A000070000904EF60C51CEF200010868019003
:1053B00001984FF6FF02104001900198009A40EAD0
:1053C00002200022C0F2FA521043019001980860B6
:1053D00003B0704781B08DF803009DF80300010908
:1053E00001EB810100F00F0000EB4100C0B201B001
:1053F0007047000081B08DF803009DF803004CF663
:10540000CD41CCF6CC41A0FB011202F07801D208CC
:1054100002EB8202A0EB420040EA4100C0B201B0C0
:105420007047000080B586B0ADF816000491ADF865
:105430000E20BDF816200498BDF80E3069464FF0D6
:10544000640CC1F808C04B60086040F27000C2F202
:105450000000A0211023FCF7BDFC18B1FFE7FCF70A
:105460001BF9FFE706B080BD80B586B0ADF8160029
:105470000491ADF80E20BDF816200498BDF80E304A
:1054800069464FF0640CC1F808C04B60086040F2F8
:105490007000C2F20000A0211023FCF7B1FE18B189
:1054A000FFE7FCF7F9F8FFE706B080BDB0B594B0B0
:1054B00000200B901390FDF703F8FFF76DFAFFF74C
:1054C000BDF8FFF77DF9FFF79FF9FFF7BDF900F091
:1054D0002BF90B980DF145010722FFF7A3FF9DF86B
:1054E00045009DF846109DF847209DF8483000F093
:1054F00079F99DF849009DF84A109DF84B2000F07D
:10550000ABF90B98ADF834008DF83300FFE70DF1DF
:105510003E020992101D511D063200F0D5F809987F
:10552000411C821CC31C00F099F89DF83EC09DF8F8
:105530003F009DF840309DF841209DF842E09DF8E5
:1055400043409DF8445069460D61CC60C1F808E0C5
:10555000C1F804C0086040F21460C2F200000A9072
:1055600046F26721C0F60001FAF76AFF0A9800F0D8
:1055700063F80DF1370107221046FFF753FF9DF83E
:105580003300C00750B9FFE70DF13E000DF13701C0
:105590000722FAF76BFF002847D1FFE7BDF8340078
:1055A00038B9FFE746F26020C0F6000000F044F88A
:1055B000FFE701218DF83310BDF834000130ADF85C
:1055C000340040F20040C4F202000890FCF77EFA7A
:1055D00008988021FCF77AFA08984FF48041FCF78C
:1055E00075FABDF834000A281AD1FFE700220792A5
:1055F0008DF83320ADF8342040F20040C4F20200B0
:1056000006900121FCF776FA0698079A8021FCF7AC
:1056100071FA0698079A4FF48041FCF76BFAFFE79E
:1056200040F2E630FCF740F804E040F2E730FCF7E7
:105630003BF8FFE76BE7000080B582B0019001986E
:105640000090FAF73FFF009982B240F2D050C2F2C8
:1056500000006423FEF796FB02B080BD80B588B0E1
:1056600007900691059204936946C820886004203B
:10567000486003A8086040F27000C2F20000D02128
:1056800003220123FCF7A6FB18B1FFE7FCF704F89F
:10569000FFE79DF80C00FFF79DFE079908709DF845
:1056A0000D00FFF797FE069908709DF80E00FFF7B2
:1056B00091FE059908709DF80F00FFF78BFE049985
:1056C000087008B080BD000080B588B007900691D2
:1056D00005926946C8208860032048600DF11100DA
:1056E000086040F27000C2F20000D02100220123C5
:1056F000FCF770FB18B1FFE7FBF7CEFFFFE79DF863
:105700001100FFF767FE059908709DF81200FFF77A
:1057100061FE069908709DF81300FFF75BFE07997C
:10572000087008B080BD000080B582B000208DF800
:10573000070001218DF806108DF805009DF807007F
:1057400000F003008DF807009DF8060038B1FFE770
:105750009DF8070040F010008DF80700FFE79DF866
:10576000050038B1FFE79DF8070040F080008DF894
:105770000700FFE79DF80710072000F09FF80020C2
:10578000009000F011F8014600988DF804109DF883
:10579000041001F07F018DF804109DF8041000F052
:1057A0008DF802B080BD000080B584B08DF80F0088
:1057B0009DF80F2069466420886001234B600DF13D
:1057C0000E00086040F27000C2F20000D021FCF729
:1057D00001FB18B1FFE7FBF75FFFFFE79DF80E0045
:1057E00004B080BD80B586B08DF817008DF8161016
:1057F0008DF815208DF814309DF81700FFF7FAFD8D
:105800008DF810009DF81600FFF7F4FD8DF81100DB
:105810009DF81500FFF7EEFD8DF812009DF81400BD
:10582000FFF7E8FD8DF813006946642088600420C6
:10583000486004A8086040F27000C2F20000D02165
:1058400003220123FCF7DCFC18B1FFE7FBF724FF80
:10585000FFE706B080BD000080B586B08DF8170068
:105860008DF816108DF815209DF81500FFF7C2FD74
:105870008DF812009DF81600FFF7BCFD8DF813009F
:105880009DF81700FFF7B6FD8DF8140069466420F7
:105890008860032048600DF11200086040F270003B
:1058A000C2F20000D02100220123FCF7A9FC18B1AC
:1058B000FFE7FBF7F1FEFFE706B080BD80B584B0DF
:1058C0008DF80F008DF80E109DF80F2069466420AA
:1058D000886001234B600DF10E00086040F27000FB
:1058E000C2F20000D021FCF78BFC8DF80D009DF872
:1058F0000D0018B1FFE7FBF7CFFEFFE704B080BD56
:105900005FEA400C08BF91F0000F4FEA8C234FEA8A
:10591000C12243EA51514FEA1C5018BF00F5F04034
:105920004FEA300018BF41F000415FEA6C5C00F0C4
:105930002980BCF1FF3F08BF40F080407047130C46
:1059400006BF12044FF0100C4FF0000C130E04BFF2
:1059500012020CF1080C130F04BF12010CF1040C1D
:10596000930F04BF92000CF1020CD30F04BF52003E
:105970000CF1010C11464FF00002A0F11F00A0EB4A
:105980000C00704711F0004F08BF704731F0004124
:105990003FF4D5AF0B0C06BF09044FF0100C4FF0CD
:1059A000000C0B0E04BF09020CF1080C0B0F04BF16
:1059B00009010CF1040C8B0F04BF89000CF1020CDF
:1059C000CB0F04BF49000CF1010CCCF1200322FAEB
:1059D00003F341EA030102FA0CF2A0EB0C0000F120
:1059E0000100704723F07F4720F07F4C80EA0300DE
:1059F00000F00040ACEB070303F57C5303F1FF0319
:105A00002DE9804909B44FEA144324EA03484FEAD8
:105A1000154B25EA0B4E0FF2042606EB13273E78B2
:105A200003FB0667C7F5000707FB06F64FEAD646F5
:105A300006F102064FEA543707FB066CCCF1005C16
:105A40004FEA1C472CEA074C0CFB06F507FB06F453
:105A500004EB15464FEA961649085FEA320234BF56
:105A600000204FF000404FEAD13706FB07FC4FEA19
:105A70001C4C0CFB0BF7D21B03FB0CF761EB070173
:105A80000CFB0EF7B0EB074072EB17420CFB08F76C
:105A900034BFA2EB0742B2EB074261EB17414FEA7A
:105AA0000C444FEA910706FB07FC4FEA1C4C0CFB29
:105AB0000BF7B0EBC74072EB573203FB0CF734BF68
:105AC000A2EBC742B2EBC74261EB57310CFB0EF7BA
:105AD000B0EBC70072EB57720CFB08F734BFA2EBB8
